{
	"task1/Int2RomanNumeral.sol": {
		"Int2RomanNumeral": {
			"abi": [
				{
					"inputs": [
						{
							"internalType": "uint256",
							"name": "number",
							"type": "uint256"
						}
					],
					"name": "toRoman",
					"outputs": [
						{
							"internalType": "string",
							"name": "",
							"type": "string"
						}
					],
					"stateMutability": "pure",
					"type": "function"
				}
			],
			"devdoc": {
				"kind": "dev",
				"methods": {},
				"version": 1
			},
			"evm": {
				"assembly": "    /* \"task1/Int2RomanNumeral.sol\":137:2488  contract Int2RomanNumeral {... */\n  mstore(0x40, 0x80)\n  callvalue\n  dup1\n  iszero\n  tag_1\n  jumpi\n  revert(0x00, 0x00)\ntag_1:\n  pop\n  dataSize(sub_0)\n  dup1\n  dataOffset(sub_0)\n  0x00\n  codecopy\n  0x00\n  return\nstop\n\nsub_0: assembly {\n        /* \"task1/Int2RomanNumeral.sol\":137:2488  contract Int2RomanNumeral {... */\n      mstore(0x40, 0x80)\n      callvalue\n      dup1\n      iszero\n      tag_1\n      jumpi\n      revert(0x00, 0x00)\n    tag_1:\n      pop\n      jumpi(tag_2, lt(calldatasize, 0x04))\n      shr(0xe0, calldataload(0x00))\n      dup1\n      0xab7baabe\n      eq\n      tag_3\n      jumpi\n    tag_2:\n      revert(0x00, 0x00)\n        /* \"task1/Int2RomanNumeral.sol\":1938:2486  function toRoman(uint256 number) public pure returns (string memory) {... */\n    tag_3:\n      tag_4\n      0x04\n      dup1\n      calldatasize\n      sub\n      dup2\n      add\n      swap1\n      tag_5\n      swap2\n      swap1\n      tag_6\n      jump\t// in\n    tag_5:\n      tag_7\n      jump\t// in\n    tag_4:\n      mload(0x40)\n      tag_8\n      swap2\n      swap1\n      tag_9\n      jump\t// in\n    tag_8:\n      mload(0x40)\n      dup1\n      swap2\n      sub\n      swap1\n      return\n    tag_7:\n        /* \"task1/Int2RomanNumeral.sol\":1992:2005  string memory */\n      0x60\n        /* \"task1/Int2RomanNumeral.sol\":2034:2035  0 */\n      0x00\n        /* \"task1/Int2RomanNumeral.sol\":2025:2031  number */\n      dup3\n        /* \"task1/Int2RomanNumeral.sol\":2025:2035  number > 0 */\n      gt\n        /* \"task1/Int2RomanNumeral.sol\":2025:2053  number > 0 && number <= 3999 */\n      dup1\n      iszero\n      tag_11\n      jumpi\n      pop\n        /* \"task1/Int2RomanNumeral.sol\":2049:2053  3999 */\n      0x0f9f\n        /* \"task1/Int2RomanNumeral.sol\":2039:2045  number */\n      dup3\n        /* \"task1/Int2RomanNumeral.sol\":2039:2053  number <= 3999 */\n      gt\n      iszero\n        /* \"task1/Int2RomanNumeral.sol\":2025:2053  number > 0 && number <= 3999 */\n    tag_11:\n        /* \"task1/Int2RomanNumeral.sol\":2017:2091  require(number > 0 && number <= 3999, \"Number must be between 1 and 3999\") */\n      tag_12\n      jumpi\n      mload(0x40)\n      0x08c379a000000000000000000000000000000000000000000000000000000000\n      dup2\n      mstore\n      0x04\n      add\n      tag_13\n      swap1\n      tag_14\n      jump\t// in\n    tag_13:\n      mload(0x40)\n      dup1\n      swap2\n      sub\n      swap1\n      revert\n    tag_12:\n        /* \"task1/Int2RomanNumeral.sol\":2110:2127  uint256 thousands */\n      0x00\n        /* \"task1/Int2RomanNumeral.sol\":2139:2143  1000 */\n      0x03e8\n        /* \"task1/Int2RomanNumeral.sol\":2130:2136  number */\n      dup4\n        /* \"task1/Int2RomanNumeral.sol\":2130:2143  number / 1000 */\n      tag_15\n      swap2\n      swap1\n      tag_16\n      jump\t// in\n    tag_15:\n        /* \"task1/Int2RomanNumeral.sol\":2110:2143  uint256 thousands = number / 1000 */\n      swap1\n      pop\n        /* \"task1/Int2RomanNumeral.sol\":2153:2169  uint256 hundreds */\n      0x00\n        /* \"task1/Int2RomanNumeral.sol\":2190:2193  100 */\n      0x64\n        /* \"task1/Int2RomanNumeral.sol\":2182:2186  1000 */\n      0x03e8\n        /* \"task1/Int2RomanNumeral.sol\":2173:2179  number */\n      dup6\n        /* \"task1/Int2RomanNumeral.sol\":2173:2186  number % 1000 */\n      tag_17\n      swap2\n      swap1\n      tag_18\n      jump\t// in\n    tag_17:\n        /* \"task1/Int2RomanNumeral.sol\":2172:2193  (number % 1000) / 100 */\n      tag_19\n      swap2\n      swap1\n      tag_16\n      jump\t// in\n    tag_19:\n        /* \"task1/Int2RomanNumeral.sol\":2153:2193  uint256 hundreds = (number % 1000) / 100 */\n      swap1\n      pop\n        /* \"task1/Int2RomanNumeral.sol\":2203:2215  uint256 tens */\n      0x00\n        /* \"task1/Int2RomanNumeral.sol\":2235:2237  10 */\n      0x0a\n        /* \"task1/Int2RomanNumeral.sol\":2228:2231  100 */\n      0x64\n        /* \"task1/Int2RomanNumeral.sol\":2219:2225  number */\n      dup7\n        /* \"task1/Int2RomanNumeral.sol\":2219:2231  number % 100 */\n      tag_20\n      swap2\n      swap1\n      tag_18\n      jump\t// in\n    tag_20:\n        /* \"task1/Int2RomanNumeral.sol\":2218:2237  (number % 100) / 10 */\n      tag_21\n      swap2\n      swap1\n      tag_16\n      jump\t// in\n    tag_21:\n        /* \"task1/Int2RomanNumeral.sol\":2203:2237  uint256 tens = (number % 100) / 10 */\n      swap1\n      pop\n        /* \"task1/Int2RomanNumeral.sol\":2247:2259  uint256 ones */\n      0x00\n        /* \"task1/Int2RomanNumeral.sol\":2271:2273  10 */\n      0x0a\n        /* \"task1/Int2RomanNumeral.sol\":2262:2268  number */\n      dup7\n        /* \"task1/Int2RomanNumeral.sol\":2262:2273  number % 10 */\n      tag_22\n      swap2\n      swap1\n      tag_18\n      jump\t// in\n    tag_22:\n        /* \"task1/Int2RomanNumeral.sol\":2247:2273  uint256 ones = number % 10 */\n      swap1\n      pop\n        /* \"task1/Int2RomanNumeral.sol\":2336:2364  _convertThousands(thousands) */\n      tag_23\n        /* \"task1/Int2RomanNumeral.sol\":2354:2363  thousands */\n      dup5\n        /* \"task1/Int2RomanNumeral.sol\":2336:2353  _convertThousands */\n      tag_24\n        /* \"task1/Int2RomanNumeral.sol\":2336:2364  _convertThousands(thousands) */\n      jump\t// in\n    tag_23:\n        /* \"task1/Int2RomanNumeral.sol\":2378:2404  _convertHundreds(hundreds) */\n      tag_25\n        /* \"task1/Int2RomanNumeral.sol\":2395:2403  hundreds */\n      dup5\n        /* \"task1/Int2RomanNumeral.sol\":2378:2394  _convertHundreds */\n      tag_26\n        /* \"task1/Int2RomanNumeral.sol\":2378:2404  _convertHundreds(hundreds) */\n      jump\t// in\n    tag_25:\n        /* \"task1/Int2RomanNumeral.sol\":2418:2436  _convertTens(tens) */\n      tag_27\n        /* \"task1/Int2RomanNumeral.sol\":2431:2435  tens */\n      dup5\n        /* \"task1/Int2RomanNumeral.sol\":2418:2430  _convertTens */\n      tag_28\n        /* \"task1/Int2RomanNumeral.sol\":2418:2436  _convertTens(tens) */\n      jump\t// in\n    tag_27:\n        /* \"task1/Int2RomanNumeral.sol\":2450:2468  _convertOnes(ones) */\n      tag_29\n        /* \"task1/Int2RomanNumeral.sol\":2463:2467  ones */\n      dup5\n        /* \"task1/Int2RomanNumeral.sol\":2450:2462  _convertOnes */\n      tag_30\n        /* \"task1/Int2RomanNumeral.sol\":2450:2468  _convertOnes(ones) */\n      jump\t// in\n    tag_29:\n        /* \"task1/Int2RomanNumeral.sol\":2306:2478  abi.encodePacked(... */\n      add(0x20, mload(0x40))\n      tag_31\n      swap5\n      swap4\n      swap3\n      swap2\n      swap1\n      tag_32\n      jump\t// in\n    tag_31:\n      mload(0x40)\n      0x20\n      dup2\n      dup4\n      sub\n      sub\n      dup2\n      mstore\n      swap1\n      0x40\n      mstore\n        /* \"task1/Int2RomanNumeral.sol\":2292:2479  return string(abi.encodePacked(... */\n      swap5\n      pop\n      pop\n      pop\n      pop\n      pop\n        /* \"task1/Int2RomanNumeral.sol\":1938:2486  function toRoman(uint256 number) public pure returns (string memory) {... */\n      swap2\n      swap1\n      pop\n      jump\t// out\n        /* \"task1/Int2RomanNumeral.sol\":189:490  function _convertThousands(uint256 number) private pure returns (string memory) {... */\n    tag_24:\n        /* \"task1/Int2RomanNumeral.sol\":254:267  string memory */\n      0x60\n        /* \"task1/Int2RomanNumeral.sol\":293:294  0 */\n      0x00\n        /* \"task1/Int2RomanNumeral.sol\":283:289  number */\n      dup3\n        /* \"task1/Int2RomanNumeral.sol\":283:294  number == 0 */\n      sub\n        /* \"task1/Int2RomanNumeral.sol\":279:305  if (number == 0) return \"\" */\n      tag_34\n      jumpi\n        /* \"task1/Int2RomanNumeral.sol\":296:305  return \"\" */\n      mload(0x40)\n      dup1\n      0x20\n      add\n      0x40\n      mstore\n      dup1\n      0x00\n      dup2\n      mstore\n      pop\n      swap1\n      pop\n      jump(tag_33)\n        /* \"task1/Int2RomanNumeral.sol\":279:305  if (number == 0) return \"\" */\n    tag_34:\n        /* \"task1/Int2RomanNumeral.sol\":324:343  bytes memory result */\n      0x60\n        /* \"task1/Int2RomanNumeral.sol\":358:367  uint256 i */\n      0x00\n        /* \"task1/Int2RomanNumeral.sol\":370:371  0 */\n      0x00\n        /* \"task1/Int2RomanNumeral.sol\":358:371  uint256 i = 0 */\n      swap1\n      pop\n        /* \"task1/Int2RomanNumeral.sol\":353:453  for (uint256 i = 0; i < number; i++) {... */\n    tag_35:\n        /* \"task1/Int2RomanNumeral.sol\":377:383  number */\n      dup4\n        /* \"task1/Int2RomanNumeral.sol\":373:374  i */\n      dup2\n        /* \"task1/Int2RomanNumeral.sol\":373:383  i < number */\n      lt\n        /* \"task1/Int2RomanNumeral.sol\":353:453  for (uint256 i = 0; i < number; i++) {... */\n      iszero\n      tag_36\n      jumpi\n        /* \"task1/Int2RomanNumeral.sol\":430:436  result */\n      dup2\n        /* \"task1/Int2RomanNumeral.sol\":413:442  abi.encodePacked(result, \"M\") */\n      add(0x20, mload(0x40))\n      tag_38\n      swap2\n      swap1\n      tag_39\n      jump\t// in\n    tag_38:\n      mload(0x40)\n      0x20\n      dup2\n      dup4\n      sub\n      sub\n      dup2\n      mstore\n      swap1\n      0x40\n      mstore\n        /* \"task1/Int2RomanNumeral.sol\":404:442  result = abi.encodePacked(result, \"M\") */\n      swap2\n      pop\n        /* \"task1/Int2RomanNumeral.sol\":385:388  i++ */\n      dup1\n      dup1\n      0x01\n      add\n      swap2\n      pop\n      pop\n        /* \"task1/Int2RomanNumeral.sol\":353:453  for (uint256 i = 0; i < number; i++) {... */\n      jump(tag_35)\n    tag_36:\n      pop\n        /* \"task1/Int2RomanNumeral.sol\":476:482  result */\n      dup1\n        /* \"task1/Int2RomanNumeral.sol\":462:483  return string(result) */\n      swap2\n      pop\n      pop\n        /* \"task1/Int2RomanNumeral.sol\":189:490  function _convertThousands(uint256 number) private pure returns (string memory) {... */\n    tag_33:\n      swap2\n      swap1\n      pop\n      jump\t// out\n        /* \"task1/Int2RomanNumeral.sol\":523:972  function _convertHundreds(uint256 number) private pure returns (string memory) {... */\n    tag_26:\n        /* \"task1/Int2RomanNumeral.sol\":587:600  string memory */\n      0x60\n        /* \"task1/Int2RomanNumeral.sol\":626:627  9 */\n      0x09\n        /* \"task1/Int2RomanNumeral.sol\":616:622  number */\n      dup3\n        /* \"task1/Int2RomanNumeral.sol\":616:627  number == 9 */\n      sub\n        /* \"task1/Int2RomanNumeral.sol\":612:640  if (number == 9) return \"CM\" */\n      tag_41\n      jumpi\n        /* \"task1/Int2RomanNumeral.sol\":629:640  return \"CM\" */\n      mload(0x40)\n      dup1\n      0x40\n      add\n      0x40\n      mstore\n      dup1\n      0x02\n      dup2\n      mstore\n      0x20\n      add\n      0x434d000000000000000000000000000000000000000000000000000000000000\n      dup2\n      mstore\n      pop\n      swap1\n      pop\n      jump(tag_40)\n        /* \"task1/Int2RomanNumeral.sol\":612:640  if (number == 9) return \"CM\" */\n    tag_41:\n        /* \"task1/Int2RomanNumeral.sol\":664:665  8 */\n      0x08\n        /* \"task1/Int2RomanNumeral.sol\":654:660  number */\n      dup3\n        /* \"task1/Int2RomanNumeral.sol\":654:665  number == 8 */\n      sub\n        /* \"task1/Int2RomanNumeral.sol\":650:680  if (number == 8) return \"DCCC\" */\n      tag_42\n      jumpi\n        /* \"task1/Int2RomanNumeral.sol\":667:680  return \"DCCC\" */\n      mload(0x40)\n      dup1\n      0x40\n      add\n      0x40\n      mstore\n      dup1\n      0x04\n      dup2\n      mstore\n      0x20\n      add\n      0x4443434300000000000000000000000000000000000000000000000000000000\n      dup2\n      mstore\n      pop\n      swap1\n      pop\n      jump(tag_40)\n        /* \"task1/Int2RomanNumeral.sol\":650:680  if (number == 8) return \"DCCC\" */\n    tag_42:\n        /* \"task1/Int2RomanNumeral.sol\":704:705  7 */\n      0x07\n        /* \"task1/Int2RomanNumeral.sol\":694:700  number */\n      dup3\n        /* \"task1/Int2RomanNumeral.sol\":694:705  number == 7 */\n      sub\n        /* \"task1/Int2RomanNumeral.sol\":690:719  if (number == 7) return \"DCC\" */\n      tag_43\n      jumpi\n        /* \"task1/Int2RomanNumeral.sol\":707:719  return \"DCC\" */\n      mload(0x40)\n      dup1\n      0x40\n      add\n      0x40\n      mstore\n      dup1\n      0x03\n      dup2\n      mstore\n      0x20\n      add\n      0x4443430000000000000000000000000000000000000000000000000000000000\n      dup2\n      mstore\n      pop\n      swap1\n      pop\n      jump(tag_40)\n        /* \"task1/Int2RomanNumeral.sol\":690:719  if (number == 7) return \"DCC\" */\n    tag_43:\n        /* \"task1/Int2RomanNumeral.sol\":743:744  6 */\n      0x06\n        /* \"task1/Int2RomanNumeral.sol\":733:739  number */\n      dup3\n        /* \"task1/Int2RomanNumeral.sol\":733:744  number == 6 */\n      sub\n        /* \"task1/Int2RomanNumeral.sol\":729:757  if (number == 6) return \"DC\" */\n      tag_44\n      jumpi\n        /* \"task1/Int2RomanNumeral.sol\":746:757  return \"DC\" */\n      mload(0x40)\n      dup1\n      0x40\n      add\n      0x40\n      mstore\n      dup1\n      0x02\n      dup2\n      mstore\n      0x20\n      add\n      0x4443000000000000000000000000000000000000000000000000000000000000\n      dup2\n      mstore\n      pop\n      swap1\n      pop\n      jump(tag_40)\n        /* \"task1/Int2RomanNumeral.sol\":729:757  if (number == 6) return \"DC\" */\n    tag_44:\n        /* \"task1/Int2RomanNumeral.sol\":781:782  5 */\n      0x05\n        /* \"task1/Int2RomanNumeral.sol\":771:777  number */\n      dup3\n        /* \"task1/Int2RomanNumeral.sol\":771:782  number == 5 */\n      sub\n        /* \"task1/Int2RomanNumeral.sol\":767:794  if (number == 5) return \"D\" */\n      tag_45\n      jumpi\n        /* \"task1/Int2RomanNumeral.sol\":784:794  return \"D\" */\n      mload(0x40)\n      dup1\n      0x40\n      add\n      0x40\n      mstore\n      dup1\n      0x01\n      dup2\n      mstore\n      0x20\n      add\n      0x4400000000000000000000000000000000000000000000000000000000000000\n      dup2\n      mstore\n      pop\n      swap1\n      pop\n      jump(tag_40)\n        /* \"task1/Int2RomanNumeral.sol\":767:794  if (number == 5) return \"D\" */\n    tag_45:\n        /* \"task1/Int2RomanNumeral.sol\":818:819  4 */\n      0x04\n        /* \"task1/Int2RomanNumeral.sol\":808:814  number */\n      dup3\n        /* \"task1/Int2RomanNumeral.sol\":808:819  number == 4 */\n      sub\n        /* \"task1/Int2RomanNumeral.sol\":804:832  if (number == 4) return \"CD\" */\n      tag_46\n      jumpi\n        /* \"task1/Int2RomanNumeral.sol\":821:832  return \"CD\" */\n      mload(0x40)\n      dup1\n      0x40\n      add\n      0x40\n      mstore\n      dup1\n      0x02\n      dup2\n      mstore\n      0x20\n      add\n      0x4344000000000000000000000000000000000000000000000000000000000000\n      dup2\n      mstore\n      pop\n      swap1\n      pop\n      jump(tag_40)\n        /* \"task1/Int2RomanNumeral.sol\":804:832  if (number == 4) return \"CD\" */\n    tag_46:\n        /* \"task1/Int2RomanNumeral.sol\":856:857  3 */\n      0x03\n        /* \"task1/Int2RomanNumeral.sol\":846:852  number */\n      dup3\n        /* \"task1/Int2RomanNumeral.sol\":846:857  number == 3 */\n      sub\n        /* \"task1/Int2RomanNumeral.sol\":842:871  if (number == 3) return \"CCC\" */\n      tag_47\n      jumpi\n        /* \"task1/Int2RomanNumeral.sol\":859:871  return \"CCC\" */\n      mload(0x40)\n      dup1\n      0x40\n      add\n      0x40\n      mstore\n      dup1\n      0x03\n      dup2\n      mstore\n      0x20\n      add\n      0x4343430000000000000000000000000000000000000000000000000000000000\n      dup2\n      mstore\n      pop\n      swap1\n      pop\n      jump(tag_40)\n        /* \"task1/Int2RomanNumeral.sol\":842:871  if (number == 3) return \"CCC\" */\n    tag_47:\n        /* \"task1/Int2RomanNumeral.sol\":895:896  2 */\n      0x02\n        /* \"task1/Int2RomanNumeral.sol\":885:891  number */\n      dup3\n        /* \"task1/Int2RomanNumeral.sol\":885:896  number == 2 */\n      sub\n        /* \"task1/Int2RomanNumeral.sol\":881:909  if (number == 2) return \"CC\" */\n      tag_48\n      jumpi\n        /* \"task1/Int2RomanNumeral.sol\":898:909  return \"CC\" */\n      mload(0x40)\n      dup1\n      0x40\n      add\n      0x40\n      mstore\n      dup1\n      0x02\n      dup2\n      mstore\n      0x20\n      add\n      0x4343000000000000000000000000000000000000000000000000000000000000\n      dup2\n      mstore\n      pop\n      swap1\n      pop\n      jump(tag_40)\n        /* \"task1/Int2RomanNumeral.sol\":881:909  if (number == 2) return \"CC\" */\n    tag_48:\n        /* \"task1/Int2RomanNumeral.sol\":933:934  1 */\n      0x01\n        /* \"task1/Int2RomanNumeral.sol\":923:929  number */\n      dup3\n        /* \"task1/Int2RomanNumeral.sol\":923:934  number == 1 */\n      sub\n        /* \"task1/Int2RomanNumeral.sol\":919:946  if (number == 1) return \"C\" */\n      tag_49\n      jumpi\n        /* \"task1/Int2RomanNumeral.sol\":936:946  return \"C\" */\n      mload(0x40)\n      dup1\n      0x40\n      add\n      0x40\n      mstore\n      dup1\n      0x01\n      dup2\n      mstore\n      0x20\n      add\n      0x4300000000000000000000000000000000000000000000000000000000000000\n      dup2\n      mstore\n      pop\n      swap1\n      pop\n      jump(tag_40)\n        /* \"task1/Int2RomanNumeral.sol\":919:946  if (number == 1) return \"C\" */\n    tag_49:\n        /* \"task1/Int2RomanNumeral.sol\":956:965  return \"\" */\n      mload(0x40)\n      dup1\n      0x20\n      add\n      0x40\n      mstore\n      dup1\n      0x00\n      dup2\n      mstore\n      pop\n      swap1\n      pop\n        /* \"task1/Int2RomanNumeral.sol\":523:972  function _convertHundreds(uint256 number) private pure returns (string memory) {... */\n    tag_40:\n      swap2\n      swap1\n      pop\n      jump\t// out\n        /* \"task1/Int2RomanNumeral.sol\":1005:1450  function _convertTens(uint256 number) private pure returns (string memory) {... */\n    tag_28:\n        /* \"task1/Int2RomanNumeral.sol\":1065:1078  string memory */\n      0x60\n        /* \"task1/Int2RomanNumeral.sol\":1104:1105  9 */\n      0x09\n        /* \"task1/Int2RomanNumeral.sol\":1094:1100  number */\n      dup3\n        /* \"task1/Int2RomanNumeral.sol\":1094:1105  number == 9 */\n      sub\n        /* \"task1/Int2RomanNumeral.sol\":1090:1118  if (number == 9) return \"XC\" */\n      tag_51\n      jumpi\n        /* \"task1/Int2RomanNumeral.sol\":1107:1118  return \"XC\" */\n      mload(0x40)\n      dup1\n      0x40\n      add\n      0x40\n      mstore\n      dup1\n      0x02\n      dup2\n      mstore\n      0x20\n      add\n      0x5843000000000000000000000000000000000000000000000000000000000000\n      dup2\n      mstore\n      pop\n      swap1\n      pop\n      jump(tag_50)\n        /* \"task1/Int2RomanNumeral.sol\":1090:1118  if (number == 9) return \"XC\" */\n    tag_51:\n        /* \"task1/Int2RomanNumeral.sol\":1142:1143  8 */\n      0x08\n        /* \"task1/Int2RomanNumeral.sol\":1132:1138  number */\n      dup3\n        /* \"task1/Int2RomanNumeral.sol\":1132:1143  number == 8 */\n      sub\n        /* \"task1/Int2RomanNumeral.sol\":1128:1158  if (number == 8) return \"LXXX\" */\n      tag_52\n      jumpi\n        /* \"task1/Int2RomanNumeral.sol\":1145:1158  return \"LXXX\" */\n      mload(0x40)\n      dup1\n      0x40\n      add\n      0x40\n      mstore\n      dup1\n      0x04\n      dup2\n      mstore\n      0x20\n      add\n      0x4c58585800000000000000000000000000000000000000000000000000000000\n      dup2\n      mstore\n      pop\n      swap1\n      pop\n      jump(tag_50)\n        /* \"task1/Int2RomanNumeral.sol\":1128:1158  if (number == 8) return \"LXXX\" */\n    tag_52:\n        /* \"task1/Int2RomanNumeral.sol\":1182:1183  7 */\n      0x07\n        /* \"task1/Int2RomanNumeral.sol\":1172:1178  number */\n      dup3\n        /* \"task1/Int2RomanNumeral.sol\":1172:1183  number == 7 */\n      sub\n        /* \"task1/Int2RomanNumeral.sol\":1168:1197  if (number == 7) return \"LXX\" */\n      tag_53\n      jumpi\n        /* \"task1/Int2RomanNumeral.sol\":1185:1197  return \"LXX\" */\n      mload(0x40)\n      dup1\n      0x40\n      add\n      0x40\n      mstore\n      dup1\n      0x03\n      dup2\n      mstore\n      0x20\n      add\n      0x4c58580000000000000000000000000000000000000000000000000000000000\n      dup2\n      mstore\n      pop\n      swap1\n      pop\n      jump(tag_50)\n        /* \"task1/Int2RomanNumeral.sol\":1168:1197  if (number == 7) return \"LXX\" */\n    tag_53:\n        /* \"task1/Int2RomanNumeral.sol\":1221:1222  6 */\n      0x06\n        /* \"task1/Int2RomanNumeral.sol\":1211:1217  number */\n      dup3\n        /* \"task1/Int2RomanNumeral.sol\":1211:1222  number == 6 */\n      sub\n        /* \"task1/Int2RomanNumeral.sol\":1207:1235  if (number == 6) return \"LX\" */\n      tag_54\n      jumpi\n        /* \"task1/Int2RomanNumeral.sol\":1224:1235  return \"LX\" */\n      mload(0x40)\n      dup1\n      0x40\n      add\n      0x40\n      mstore\n      dup1\n      0x02\n      dup2\n      mstore\n      0x20\n      add\n      0x4c58000000000000000000000000000000000000000000000000000000000000\n      dup2\n      mstore\n      pop\n      swap1\n      pop\n      jump(tag_50)\n        /* \"task1/Int2RomanNumeral.sol\":1207:1235  if (number == 6) return \"LX\" */\n    tag_54:\n        /* \"task1/Int2RomanNumeral.sol\":1259:1260  5 */\n      0x05\n        /* \"task1/Int2RomanNumeral.sol\":1249:1255  number */\n      dup3\n        /* \"task1/Int2RomanNumeral.sol\":1249:1260  number == 5 */\n      sub\n        /* \"task1/Int2RomanNumeral.sol\":1245:1272  if (number == 5) return \"L\" */\n      tag_55\n      jumpi\n        /* \"task1/Int2RomanNumeral.sol\":1262:1272  return \"L\" */\n      mload(0x40)\n      dup1\n      0x40\n      add\n      0x40\n      mstore\n      dup1\n      0x01\n      dup2\n      mstore\n      0x20\n      add\n      0x4c00000000000000000000000000000000000000000000000000000000000000\n      dup2\n      mstore\n      pop\n      swap1\n      pop\n      jump(tag_50)\n        /* \"task1/Int2RomanNumeral.sol\":1245:1272  if (number == 5) return \"L\" */\n    tag_55:\n        /* \"task1/Int2RomanNumeral.sol\":1296:1297  4 */\n      0x04\n        /* \"task1/Int2RomanNumeral.sol\":1286:1292  number */\n      dup3\n        /* \"task1/Int2RomanNumeral.sol\":1286:1297  number == 4 */\n      sub\n        /* \"task1/Int2RomanNumeral.sol\":1282:1310  if (number == 4) return \"XL\" */\n      tag_56\n      jumpi\n        /* \"task1/Int2RomanNumeral.sol\":1299:1310  return \"XL\" */\n      mload(0x40)\n      dup1\n      0x40\n      add\n      0x40\n      mstore\n      dup1\n      0x02\n      dup2\n      mstore\n      0x20\n      add\n      0x584c000000000000000000000000000000000000000000000000000000000000\n      dup2\n      mstore\n      pop\n      swap1\n      pop\n      jump(tag_50)\n        /* \"task1/Int2RomanNumeral.sol\":1282:1310  if (number == 4) return \"XL\" */\n    tag_56:\n        /* \"task1/Int2RomanNumeral.sol\":1334:1335  3 */\n      0x03\n        /* \"task1/Int2RomanNumeral.sol\":1324:1330  number */\n      dup3\n        /* \"task1/Int2RomanNumeral.sol\":1324:1335  number == 3 */\n      sub\n        /* \"task1/Int2RomanNumeral.sol\":1320:1349  if (number == 3) return \"XXX\" */\n      tag_57\n      jumpi\n        /* \"task1/Int2RomanNumeral.sol\":1337:1349  return \"XXX\" */\n      mload(0x40)\n      dup1\n      0x40\n      add\n      0x40\n      mstore\n      dup1\n      0x03\n      dup2\n      mstore\n      0x20\n      add\n      0x5858580000000000000000000000000000000000000000000000000000000000\n      dup2\n      mstore\n      pop\n      swap1\n      pop\n      jump(tag_50)\n        /* \"task1/Int2RomanNumeral.sol\":1320:1349  if (number == 3) return \"XXX\" */\n    tag_57:\n        /* \"task1/Int2RomanNumeral.sol\":1373:1374  2 */\n      0x02\n        /* \"task1/Int2RomanNumeral.sol\":1363:1369  number */\n      dup3\n        /* \"task1/Int2RomanNumeral.sol\":1363:1374  number == 2 */\n      sub\n        /* \"task1/Int2RomanNumeral.sol\":1359:1387  if (number == 2) return \"XX\" */\n      tag_58\n      jumpi\n        /* \"task1/Int2RomanNumeral.sol\":1376:1387  return \"XX\" */\n      mload(0x40)\n      dup1\n      0x40\n      add\n      0x40\n      mstore\n      dup1\n      0x02\n      dup2\n      mstore\n      0x20\n      add\n      0x5858000000000000000000000000000000000000000000000000000000000000\n      dup2\n      mstore\n      pop\n      swap1\n      pop\n      jump(tag_50)\n        /* \"task1/Int2RomanNumeral.sol\":1359:1387  if (number == 2) return \"XX\" */\n    tag_58:\n        /* \"task1/Int2RomanNumeral.sol\":1411:1412  1 */\n      0x01\n        /* \"task1/Int2RomanNumeral.sol\":1401:1407  number */\n      dup3\n        /* \"task1/Int2RomanNumeral.sol\":1401:1412  number == 1 */\n      sub\n        /* \"task1/Int2RomanNumeral.sol\":1397:1424  if (number == 1) return \"X\" */\n      tag_59\n      jumpi\n        /* \"task1/Int2RomanNumeral.sol\":1414:1424  return \"X\" */\n      mload(0x40)\n      dup1\n      0x40\n      add\n      0x40\n      mstore\n      dup1\n      0x01\n      dup2\n      mstore\n      0x20\n      add\n      0x5800000000000000000000000000000000000000000000000000000000000000\n      dup2\n      mstore\n      pop\n      swap1\n      pop\n      jump(tag_50)\n        /* \"task1/Int2RomanNumeral.sol\":1397:1424  if (number == 1) return \"X\" */\n    tag_59:\n        /* \"task1/Int2RomanNumeral.sol\":1434:1443  return \"\" */\n      mload(0x40)\n      dup1\n      0x20\n      add\n      0x40\n      mstore\n      dup1\n      0x00\n      dup2\n      mstore\n      pop\n      swap1\n      pop\n        /* \"task1/Int2RomanNumeral.sol\":1005:1450  function _convertTens(uint256 number) private pure returns (string memory) {... */\n    tag_50:\n      swap2\n      swap1\n      pop\n      jump\t// out\n        /* \"task1/Int2RomanNumeral.sol\":1483:1928  function _convertOnes(uint256 number) private pure returns (string memory) {... */\n    tag_30:\n        /* \"task1/Int2RomanNumeral.sol\":1543:1556  string memory */\n      0x60\n        /* \"task1/Int2RomanNumeral.sol\":1582:1583  9 */\n      0x09\n        /* \"task1/Int2RomanNumeral.sol\":1572:1578  number */\n      dup3\n        /* \"task1/Int2RomanNumeral.sol\":1572:1583  number == 9 */\n      sub\n        /* \"task1/Int2RomanNumeral.sol\":1568:1596  if (number == 9) return \"IX\" */\n      tag_61\n      jumpi\n        /* \"task1/Int2RomanNumeral.sol\":1585:1596  return \"IX\" */\n      mload(0x40)\n      dup1\n      0x40\n      add\n      0x40\n      mstore\n      dup1\n      0x02\n      dup2\n      mstore\n      0x20\n      add\n      0x4958000000000000000000000000000000000000000000000000000000000000\n      dup2\n      mstore\n      pop\n      swap1\n      pop\n      jump(tag_60)\n        /* \"task1/Int2RomanNumeral.sol\":1568:1596  if (number == 9) return \"IX\" */\n    tag_61:\n        /* \"task1/Int2RomanNumeral.sol\":1620:1621  8 */\n      0x08\n        /* \"task1/Int2RomanNumeral.sol\":1610:1616  number */\n      dup3\n        /* \"task1/Int2RomanNumeral.sol\":1610:1621  number == 8 */\n      sub\n        /* \"task1/Int2RomanNumeral.sol\":1606:1636  if (number == 8) return \"VIII\" */\n      tag_62\n      jumpi\n        /* \"task1/Int2RomanNumeral.sol\":1623:1636  return \"VIII\" */\n      mload(0x40)\n      dup1\n      0x40\n      add\n      0x40\n      mstore\n      dup1\n      0x04\n      dup2\n      mstore\n      0x20\n      add\n      0x5649494900000000000000000000000000000000000000000000000000000000\n      dup2\n      mstore\n      pop\n      swap1\n      pop\n      jump(tag_60)\n        /* \"task1/Int2RomanNumeral.sol\":1606:1636  if (number == 8) return \"VIII\" */\n    tag_62:\n        /* \"task1/Int2RomanNumeral.sol\":1660:1661  7 */\n      0x07\n        /* \"task1/Int2RomanNumeral.sol\":1650:1656  number */\n      dup3\n        /* \"task1/Int2RomanNumeral.sol\":1650:1661  number == 7 */\n      sub\n        /* \"task1/Int2RomanNumeral.sol\":1646:1675  if (number == 7) return \"VII\" */\n      tag_63\n      jumpi\n        /* \"task1/Int2RomanNumeral.sol\":1663:1675  return \"VII\" */\n      mload(0x40)\n      dup1\n      0x40\n      add\n      0x40\n      mstore\n      dup1\n      0x03\n      dup2\n      mstore\n      0x20\n      add\n      0x5649490000000000000000000000000000000000000000000000000000000000\n      dup2\n      mstore\n      pop\n      swap1\n      pop\n      jump(tag_60)\n        /* \"task1/Int2RomanNumeral.sol\":1646:1675  if (number == 7) return \"VII\" */\n    tag_63:\n        /* \"task1/Int2RomanNumeral.sol\":1699:1700  6 */\n      0x06\n        /* \"task1/Int2RomanNumeral.sol\":1689:1695  number */\n      dup3\n        /* \"task1/Int2RomanNumeral.sol\":1689:1700  number == 6 */\n      sub\n        /* \"task1/Int2RomanNumeral.sol\":1685:1713  if (number == 6) return \"VI\" */\n      tag_64\n      jumpi\n        /* \"task1/Int2RomanNumeral.sol\":1702:1713  return \"VI\" */\n      mload(0x40)\n      dup1\n      0x40\n      add\n      0x40\n      mstore\n      dup1\n      0x02\n      dup2\n      mstore\n      0x20\n      add\n      0x5649000000000000000000000000000000000000000000000000000000000000\n      dup2\n      mstore\n      pop\n      swap1\n      pop\n      jump(tag_60)\n        /* \"task1/Int2RomanNumeral.sol\":1685:1713  if (number == 6) return \"VI\" */\n    tag_64:\n        /* \"task1/Int2RomanNumeral.sol\":1737:1738  5 */\n      0x05\n        /* \"task1/Int2RomanNumeral.sol\":1727:1733  number */\n      dup3\n        /* \"task1/Int2RomanNumeral.sol\":1727:1738  number == 5 */\n      sub\n        /* \"task1/Int2RomanNumeral.sol\":1723:1750  if (number == 5) return \"V\" */\n      tag_65\n      jumpi\n        /* \"task1/Int2RomanNumeral.sol\":1740:1750  return \"V\" */\n      mload(0x40)\n      dup1\n      0x40\n      add\n      0x40\n      mstore\n      dup1\n      0x01\n      dup2\n      mstore\n      0x20\n      add\n      0x5600000000000000000000000000000000000000000000000000000000000000\n      dup2\n      mstore\n      pop\n      swap1\n      pop\n      jump(tag_60)\n        /* \"task1/Int2RomanNumeral.sol\":1723:1750  if (number == 5) return \"V\" */\n    tag_65:\n        /* \"task1/Int2RomanNumeral.sol\":1774:1775  4 */\n      0x04\n        /* \"task1/Int2RomanNumeral.sol\":1764:1770  number */\n      dup3\n        /* \"task1/Int2RomanNumeral.sol\":1764:1775  number == 4 */\n      sub\n        /* \"task1/Int2RomanNumeral.sol\":1760:1788  if (number == 4) return \"IV\" */\n      tag_66\n      jumpi\n        /* \"task1/Int2RomanNumeral.sol\":1777:1788  return \"IV\" */\n      mload(0x40)\n      dup1\n      0x40\n      add\n      0x40\n      mstore\n      dup1\n      0x02\n      dup2\n      mstore\n      0x20\n      add\n      0x4956000000000000000000000000000000000000000000000000000000000000\n      dup2\n      mstore\n      pop\n      swap1\n      pop\n      jump(tag_60)\n        /* \"task1/Int2RomanNumeral.sol\":1760:1788  if (number == 4) return \"IV\" */\n    tag_66:\n        /* \"task1/Int2RomanNumeral.sol\":1812:1813  3 */\n      0x03\n        /* \"task1/Int2RomanNumeral.sol\":1802:1808  number */\n      dup3\n        /* \"task1/Int2RomanNumeral.sol\":1802:1813  number == 3 */\n      sub\n        /* \"task1/Int2RomanNumeral.sol\":1798:1827  if (number == 3) return \"III\" */\n      tag_67\n      jumpi\n        /* \"task1/Int2RomanNumeral.sol\":1815:1827  return \"III\" */\n      mload(0x40)\n      dup1\n      0x40\n      add\n      0x40\n      mstore\n      dup1\n      0x03\n      dup2\n      mstore\n      0x20\n      add\n      0x4949490000000000000000000000000000000000000000000000000000000000\n      dup2\n      mstore\n      pop\n      swap1\n      pop\n      jump(tag_60)\n        /* \"task1/Int2RomanNumeral.sol\":1798:1827  if (number == 3) return \"III\" */\n    tag_67:\n        /* \"task1/Int2RomanNumeral.sol\":1851:1852  2 */\n      0x02\n        /* \"task1/Int2RomanNumeral.sol\":1841:1847  number */\n      dup3\n        /* \"task1/Int2RomanNumeral.sol\":1841:1852  number == 2 */\n      sub\n        /* \"task1/Int2RomanNumeral.sol\":1837:1865  if (number == 2) return \"II\" */\n      tag_68\n      jumpi\n        /* \"task1/Int2RomanNumeral.sol\":1854:1865  return \"II\" */\n      mload(0x40)\n      dup1\n      0x40\n      add\n      0x40\n      mstore\n      dup1\n      0x02\n      dup2\n      mstore\n      0x20\n      add\n      0x4949000000000000000000000000000000000000000000000000000000000000\n      dup2\n      mstore\n      pop\n      swap1\n      pop\n      jump(tag_60)\n        /* \"task1/Int2RomanNumeral.sol\":1837:1865  if (number == 2) return \"II\" */\n    tag_68:\n        /* \"task1/Int2RomanNumeral.sol\":1889:1890  1 */\n      0x01\n        /* \"task1/Int2RomanNumeral.sol\":1879:1885  number */\n      dup3\n        /* \"task1/Int2RomanNumeral.sol\":1879:1890  number == 1 */\n      sub\n        /* \"task1/Int2RomanNumeral.sol\":1875:1902  if (number == 1) return \"I\" */\n      tag_69\n      jumpi\n        /* \"task1/Int2RomanNumeral.sol\":1892:1902  return \"I\" */\n      mload(0x40)\n      dup1\n      0x40\n      add\n      0x40\n      mstore\n      dup1\n      0x01\n      dup2\n      mstore\n      0x20\n      add\n      0x4900000000000000000000000000000000000000000000000000000000000000\n      dup2\n      mstore\n      pop\n      swap1\n      pop\n      jump(tag_60)\n        /* \"task1/Int2RomanNumeral.sol\":1875:1902  if (number == 1) return \"I\" */\n    tag_69:\n        /* \"task1/Int2RomanNumeral.sol\":1912:1921  return \"\" */\n      mload(0x40)\n      dup1\n      0x20\n      add\n      0x40\n      mstore\n      dup1\n      0x00\n      dup2\n      mstore\n      pop\n      swap1\n      pop\n        /* \"task1/Int2RomanNumeral.sol\":1483:1928  function _convertOnes(uint256 number) private pure returns (string memory) {... */\n    tag_60:\n      swap2\n      swap1\n      pop\n      jump\t// out\n        /* \"#utility.yul\":88:205   */\n    tag_71:\n        /* \"#utility.yul\":197:198   */\n      0x00\n        /* \"#utility.yul\":194:195   */\n      0x00\n        /* \"#utility.yul\":187:199   */\n      revert\n        /* \"#utility.yul\":334:411   */\n    tag_73:\n        /* \"#utility.yul\":371:378   */\n      0x00\n        /* \"#utility.yul\":400:405   */\n      dup2\n        /* \"#utility.yul\":389:405   */\n      swap1\n      pop\n        /* \"#utility.yul\":334:411   */\n      swap2\n      swap1\n      pop\n      jump\t// out\n        /* \"#utility.yul\":417:539   */\n    tag_74:\n        /* \"#utility.yul\":490:514   */\n      tag_98\n        /* \"#utility.yul\":508:513   */\n      dup2\n        /* \"#utility.yul\":490:514   */\n      tag_73\n      jump\t// in\n    tag_98:\n        /* \"#utility.yul\":483:488   */\n      dup2\n        /* \"#utility.yul\":480:515   */\n      eq\n        /* \"#utility.yul\":470:533   */\n      tag_99\n      jumpi\n        /* \"#utility.yul\":529:530   */\n      0x00\n        /* \"#utility.yul\":526:527   */\n      0x00\n        /* \"#utility.yul\":519:531   */\n      revert\n        /* \"#utility.yul\":470:533   */\n    tag_99:\n        /* \"#utility.yul\":417:539   */\n      pop\n      jump\t// out\n        /* \"#utility.yul\":545:684   */\n    tag_75:\n        /* \"#utility.yul\":591:596   */\n      0x00\n        /* \"#utility.yul\":629:635   */\n      dup2\n        /* \"#utility.yul\":616:636   */\n      calldataload\n        /* \"#utility.yul\":607:636   */\n      swap1\n      pop\n        /* \"#utility.yul\":645:678   */\n      tag_101\n        /* \"#utility.yul\":672:677   */\n      dup2\n        /* \"#utility.yul\":645:678   */\n      tag_74\n      jump\t// in\n    tag_101:\n        /* \"#utility.yul\":545:684   */\n      swap3\n      swap2\n      pop\n      pop\n      jump\t// out\n        /* \"#utility.yul\":690:1019   */\n    tag_6:\n        /* \"#utility.yul\":749:755   */\n      0x00\n        /* \"#utility.yul\":798:800   */\n      0x20\n        /* \"#utility.yul\":786:795   */\n      dup3\n        /* \"#utility.yul\":777:784   */\n      dup5\n        /* \"#utility.yul\":773:796   */\n      sub\n        /* \"#utility.yul\":769:801   */\n      slt\n        /* \"#utility.yul\":766:885   */\n      iszero\n      tag_103\n      jumpi\n        /* \"#utility.yul\":804:883   */\n      tag_104\n      tag_71\n      jump\t// in\n    tag_104:\n        /* \"#utility.yul\":766:885   */\n    tag_103:\n        /* \"#utility.yul\":924:925   */\n      0x00\n        /* \"#utility.yul\":949:1002   */\n      tag_105\n        /* \"#utility.yul\":994:1001   */\n      dup5\n        /* \"#utility.yul\":985:991   */\n      dup3\n        /* \"#utility.yul\":974:983   */\n      dup6\n        /* \"#utility.yul\":970:992   */\n      add\n        /* \"#utility.yul\":949:1002   */\n      tag_75\n      jump\t// in\n    tag_105:\n        /* \"#utility.yul\":939:1002   */\n      swap2\n      pop\n        /* \"#utility.yul\":895:1012   */\n      pop\n        /* \"#utility.yul\":690:1019   */\n      swap3\n      swap2\n      pop\n      pop\n      jump\t// out\n        /* \"#utility.yul\":1025:1124   */\n    tag_76:\n        /* \"#utility.yul\":1077:1083   */\n      0x00\n        /* \"#utility.yul\":1111:1116   */\n      dup2\n        /* \"#utility.yul\":1105:1117   */\n      mload\n        /* \"#utility.yul\":1095:1117   */\n      swap1\n      pop\n        /* \"#utility.yul\":1025:1124   */\n      swap2\n      swap1\n      pop\n      jump\t// out\n        /* \"#utility.yul\":1130:1299   */\n    tag_77:\n        /* \"#utility.yul\":1214:1225   */\n      0x00\n        /* \"#utility.yul\":1248:1254   */\n      dup3\n        /* \"#utility.yul\":1243:1246   */\n      dup3\n        /* \"#utility.yul\":1236:1255   */\n      mstore\n        /* \"#utility.yul\":1288:1292   */\n      0x20\n        /* \"#utility.yul\":1283:1286   */\n      dup3\n        /* \"#utility.yul\":1279:1293   */\n      add\n        /* \"#utility.yul\":1264:1293   */\n      swap1\n      pop\n        /* \"#utility.yul\":1130:1299   */\n      swap3\n      swap2\n      pop\n      pop\n      jump\t// out\n        /* \"#utility.yul\":1305:1444   */\n    tag_78:\n        /* \"#utility.yul\":1394:1400   */\n      dup3\n        /* \"#utility.yul\":1389:1392   */\n      dup2\n        /* \"#utility.yul\":1384:1387   */\n      dup4\n        /* \"#utility.yul\":1378:1401   */\n      mcopy\n        /* \"#utility.yul\":1435:1436   */\n      0x00\n        /* \"#utility.yul\":1426:1432   */\n      dup4\n        /* \"#utility.yul\":1421:1424   */\n      dup4\n        /* \"#utility.yul\":1417:1433   */\n      add\n        /* \"#utility.yul\":1410:1437   */\n      mstore\n        /* \"#utility.yul\":1305:1444   */\n      pop\n      pop\n      pop\n      jump\t// out\n        /* \"#utility.yul\":1450:1552   */\n    tag_79:\n        /* \"#utility.yul\":1491:1497   */\n      0x00\n        /* \"#utility.yul\":1542:1544   */\n      0x1f\n        /* \"#utility.yul\":1538:1545   */\n      not\n        /* \"#utility.yul\":1533:1535   */\n      0x1f\n        /* \"#utility.yul\":1526:1531   */\n      dup4\n        /* \"#utility.yul\":1522:1536   */\n      add\n        /* \"#utility.yul\":1518:1546   */\n      and\n        /* \"#utility.yul\":1508:1546   */\n      swap1\n      pop\n        /* \"#utility.yul\":1450:1552   */\n      swap2\n      swap1\n      pop\n      jump\t// out\n        /* \"#utility.yul\":1558:1935   */\n    tag_80:\n        /* \"#utility.yul\":1646:1649   */\n      0x00\n        /* \"#utility.yul\":1674:1713   */\n      tag_111\n        /* \"#utility.yul\":1707:1712   */\n      dup3\n        /* \"#utility.yul\":1674:1713   */\n      tag_76\n      jump\t// in\n    tag_111:\n        /* \"#utility.yul\":1729:1800   */\n      tag_112\n        /* \"#utility.yul\":1793:1799   */\n      dup2\n        /* \"#utility.yul\":1788:1791   */\n      dup6\n        /* \"#utility.yul\":1729:1800   */\n      tag_77\n      jump\t// in\n    tag_112:\n        /* \"#utility.yul\":1722:1800   */\n      swap4\n      pop\n        /* \"#utility.yul\":1809:1874   */\n      tag_113\n        /* \"#utility.yul\":1867:1873   */\n      dup2\n        /* \"#utility.yul\":1862:1865   */\n      dup6\n        /* \"#utility.yul\":1855:1859   */\n      0x20\n        /* \"#utility.yul\":1848:1853   */\n      dup7\n        /* \"#utility.yul\":1844:1860   */\n      add\n        /* \"#utility.yul\":1809:1874   */\n      tag_78\n      jump\t// in\n    tag_113:\n        /* \"#utility.yul\":1899:1928   */\n      tag_114\n        /* \"#utility.yul\":1921:1927   */\n      dup2\n        /* \"#utility.yul\":1899:1928   */\n      tag_79\n      jump\t// in\n    tag_114:\n        /* \"#utility.yul\":1894:1897   */\n      dup5\n        /* \"#utility.yul\":1890:1929   */\n      add\n        /* \"#utility.yul\":1883:1929   */\n      swap2\n      pop\n        /* \"#utility.yul\":1650:1935   */\n      pop\n        /* \"#utility.yul\":1558:1935   */\n      swap3\n      swap2\n      pop\n      pop\n      jump\t// out\n        /* \"#utility.yul\":1941:2254   */\n    tag_9:\n        /* \"#utility.yul\":2054:2058   */\n      0x00\n        /* \"#utility.yul\":2092:2094   */\n      0x20\n        /* \"#utility.yul\":2081:2090   */\n      dup3\n        /* \"#utility.yul\":2077:2095   */\n      add\n        /* \"#utility.yul\":2069:2095   */\n      swap1\n      pop\n        /* \"#utility.yul\":2141:2150   */\n      dup2\n        /* \"#utility.yul\":2135:2139   */\n      dup2\n        /* \"#utility.yul\":2131:2151   */\n      sub\n        /* \"#utility.yul\":2127:2128   */\n      0x00\n        /* \"#utility.yul\":2116:2125   */\n      dup4\n        /* \"#utility.yul\":2112:2129   */\n      add\n        /* \"#utility.yul\":2105:2152   */\n      mstore\n        /* \"#utility.yul\":2169:2247   */\n      tag_116\n        /* \"#utility.yul\":2242:2246   */\n      dup2\n        /* \"#utility.yul\":2233:2239   */\n      dup5\n        /* \"#utility.yul\":2169:2247   */\n      tag_80\n      jump\t// in\n    tag_116:\n        /* \"#utility.yul\":2161:2247   */\n      swap1\n      pop\n        /* \"#utility.yul\":1941:2254   */\n      swap3\n      swap2\n      pop\n      pop\n      jump\t// out\n        /* \"#utility.yul\":2260:2480   */\n    tag_81:\n        /* \"#utility.yul\":2400:2434   */\n      0x4e756d626572206d757374206265206265747765656e203120616e6420333939\n        /* \"#utility.yul\":2396:2397   */\n      0x00\n        /* \"#utility.yul\":2388:2394   */\n      dup3\n        /* \"#utility.yul\":2384:2398   */\n      add\n        /* \"#utility.yul\":2377:2435   */\n      mstore\n        /* \"#utility.yul\":2469:2472   */\n      0x3900000000000000000000000000000000000000000000000000000000000000\n        /* \"#utility.yul\":2464:2466   */\n      0x20\n        /* \"#utility.yul\":2456:2462   */\n      dup3\n        /* \"#utility.yul\":2452:2467   */\n      add\n        /* \"#utility.yul\":2445:2473   */\n      mstore\n        /* \"#utility.yul\":2260:2480   */\n      pop\n      jump\t// out\n        /* \"#utility.yul\":2486:2852   */\n    tag_82:\n        /* \"#utility.yul\":2628:2631   */\n      0x00\n        /* \"#utility.yul\":2649:2716   */\n      tag_119\n        /* \"#utility.yul\":2713:2715   */\n      0x21\n        /* \"#utility.yul\":2708:2711   */\n      dup4\n        /* \"#utility.yul\":2649:2716   */\n      tag_77\n      jump\t// in\n    tag_119:\n        /* \"#utility.yul\":2642:2716   */\n      swap2\n      pop\n        /* \"#utility.yul\":2725:2818   */\n      tag_120\n        /* \"#utility.yul\":2814:2817   */\n      dup3\n        /* \"#utility.yul\":2725:2818   */\n      tag_81\n      jump\t// in\n    tag_120:\n        /* \"#utility.yul\":2843:2845   */\n      0x40\n        /* \"#utility.yul\":2838:2841   */\n      dup3\n        /* \"#utility.yul\":2834:2846   */\n      add\n        /* \"#utility.yul\":2827:2846   */\n      swap1\n      pop\n        /* \"#utility.yul\":2486:2852   */\n      swap2\n      swap1\n      pop\n      jump\t// out\n        /* \"#utility.yul\":2858:3277   */\n    tag_14:\n        /* \"#utility.yul\":3024:3028   */\n      0x00\n        /* \"#utility.yul\":3062:3064   */\n      0x20\n        /* \"#utility.yul\":3051:3060   */\n      dup3\n        /* \"#utility.yul\":3047:3065   */\n      add\n        /* \"#utility.yul\":3039:3065   */\n      swap1\n      pop\n        /* \"#utility.yul\":3111:3120   */\n      dup2\n        /* \"#utility.yul\":3105:3109   */\n      dup2\n        /* \"#utility.yul\":3101:3121   */\n      sub\n        /* \"#utility.yul\":3097:3098   */\n      0x00\n        /* \"#utility.yul\":3086:3095   */\n      dup4\n        /* \"#utility.yul\":3082:3099   */\n      add\n        /* \"#utility.yul\":3075:3122   */\n      mstore\n        /* \"#utility.yul\":3139:3270   */\n      tag_122\n        /* \"#utility.yul\":3265:3269   */\n      dup2\n        /* \"#utility.yul\":3139:3270   */\n      tag_82\n      jump\t// in\n    tag_122:\n        /* \"#utility.yul\":3131:3270   */\n      swap1\n      pop\n        /* \"#utility.yul\":2858:3277   */\n      swap2\n      swap1\n      pop\n      jump\t// out\n        /* \"#utility.yul\":3283:3463   */\n    tag_83:\n        /* \"#utility.yul\":3331:3408   */\n      0x4e487b7100000000000000000000000000000000000000000000000000000000\n        /* \"#utility.yul\":3328:3329   */\n      0x00\n        /* \"#utility.yul\":3321:3409   */\n      mstore\n        /* \"#utility.yul\":3428:3432   */\n      0x12\n        /* \"#utility.yul\":3425:3426   */\n      0x04\n        /* \"#utility.yul\":3418:3433   */\n      mstore\n        /* \"#utility.yul\":3452:3456   */\n      0x24\n        /* \"#utility.yul\":3449:3450   */\n      0x00\n        /* \"#utility.yul\":3442:3457   */\n      revert\n        /* \"#utility.yul\":3655:3840   */\n    tag_16:\n        /* \"#utility.yul\":3695:3696   */\n      0x00\n        /* \"#utility.yul\":3712:3732   */\n      tag_126\n        /* \"#utility.yul\":3730:3731   */\n      dup3\n        /* \"#utility.yul\":3712:3732   */\n      tag_73\n      jump\t// in\n    tag_126:\n        /* \"#utility.yul\":3707:3732   */\n      swap2\n      pop\n        /* \"#utility.yul\":3746:3766   */\n      tag_127\n        /* \"#utility.yul\":3764:3765   */\n      dup4\n        /* \"#utility.yul\":3746:3766   */\n      tag_73\n      jump\t// in\n    tag_127:\n        /* \"#utility.yul\":3741:3766   */\n      swap3\n      pop\n        /* \"#utility.yul\":3785:3786   */\n      dup3\n        /* \"#utility.yul\":3775:3810   */\n      tag_128\n      jumpi\n        /* \"#utility.yul\":3790:3808   */\n      tag_129\n      tag_83\n      jump\t// in\n    tag_129:\n        /* \"#utility.yul\":3775:3810   */\n    tag_128:\n        /* \"#utility.yul\":3832:3833   */\n      dup3\n        /* \"#utility.yul\":3829:3830   */\n      dup3\n        /* \"#utility.yul\":3825:3834   */\n      div\n        /* \"#utility.yul\":3820:3834   */\n      swap1\n      pop\n        /* \"#utility.yul\":3655:3840   */\n      swap3\n      swap2\n      pop\n      pop\n      jump\t// out\n        /* \"#utility.yul\":3846:4022   */\n    tag_18:\n        /* \"#utility.yul\":3878:3879   */\n      0x00\n        /* \"#utility.yul\":3895:3915   */\n      tag_131\n        /* \"#utility.yul\":3913:3914   */\n      dup3\n        /* \"#utility.yul\":3895:3915   */\n      tag_73\n      jump\t// in\n    tag_131:\n        /* \"#utility.yul\":3890:3915   */\n      swap2\n      pop\n        /* \"#utility.yul\":3929:3949   */\n      tag_132\n        /* \"#utility.yul\":3947:3948   */\n      dup4\n        /* \"#utility.yul\":3929:3949   */\n      tag_73\n      jump\t// in\n    tag_132:\n        /* \"#utility.yul\":3924:3949   */\n      swap3\n      pop\n        /* \"#utility.yul\":3968:3969   */\n      dup3\n        /* \"#utility.yul\":3958:3993   */\n      tag_133\n      jumpi\n        /* \"#utility.yul\":3973:3991   */\n      tag_134\n      tag_83\n      jump\t// in\n    tag_134:\n        /* \"#utility.yul\":3958:3993   */\n    tag_133:\n        /* \"#utility.yul\":4014:4015   */\n      dup3\n        /* \"#utility.yul\":4011:4012   */\n      dup3\n        /* \"#utility.yul\":4007:4016   */\n      mod\n        /* \"#utility.yul\":4002:4016   */\n      swap1\n      pop\n        /* \"#utility.yul\":3846:4022   */\n      swap3\n      swap2\n      pop\n      pop\n      jump\t// out\n        /* \"#utility.yul\":4028:4176   */\n    tag_85:\n        /* \"#utility.yul\":4130:4141   */\n      0x00\n        /* \"#utility.yul\":4167:4170   */\n      dup2\n        /* \"#utility.yul\":4152:4170   */\n      swap1\n      pop\n        /* \"#utility.yul\":4028:4176   */\n      swap3\n      swap2\n      pop\n      pop\n      jump\t// out\n        /* \"#utility.yul\":4182:4572   */\n    tag_86:\n        /* \"#utility.yul\":4288:4291   */\n      0x00\n        /* \"#utility.yul\":4316:4355   */\n      tag_137\n        /* \"#utility.yul\":4349:4354   */\n      dup3\n        /* \"#utility.yul\":4316:4355   */\n      tag_76\n      jump\t// in\n    tag_137:\n        /* \"#utility.yul\":4371:4460   */\n      tag_138\n        /* \"#utility.yul\":4453:4459   */\n      dup2\n        /* \"#utility.yul\":4448:4451   */\n      dup6\n        /* \"#utility.yul\":4371:4460   */\n      tag_85\n      jump\t// in\n    tag_138:\n        /* \"#utility.yul\":4364:4460   */\n      swap4\n      pop\n        /* \"#utility.yul\":4469:4534   */\n      tag_139\n        /* \"#utility.yul\":4527:4533   */\n      dup2\n        /* \"#utility.yul\":4522:4525   */\n      dup6\n        /* \"#utility.yul\":4515:4519   */\n      0x20\n        /* \"#utility.yul\":4508:4513   */\n      dup7\n        /* \"#utility.yul\":4504:4520   */\n      add\n        /* \"#utility.yul\":4469:4534   */\n      tag_78\n      jump\t// in\n    tag_139:\n        /* \"#utility.yul\":4559:4565   */\n      dup1\n        /* \"#utility.yul\":4554:4557   */\n      dup5\n        /* \"#utility.yul\":4550:4566   */\n      add\n        /* \"#utility.yul\":4543:4566   */\n      swap2\n      pop\n        /* \"#utility.yul\":4292:4572   */\n      pop\n        /* \"#utility.yul\":4182:4572   */\n      swap3\n      swap2\n      pop\n      pop\n      jump\t// out\n        /* \"#utility.yul\":4578:5333   */\n    tag_32:\n        /* \"#utility.yul\":4854:4857   */\n      0x00\n        /* \"#utility.yul\":4876:4971   */\n      tag_141\n        /* \"#utility.yul\":4967:4970   */\n      dup3\n        /* \"#utility.yul\":4958:4964   */\n      dup8\n        /* \"#utility.yul\":4876:4971   */\n      tag_86\n      jump\t// in\n    tag_141:\n        /* \"#utility.yul\":4869:4971   */\n      swap2\n      pop\n        /* \"#utility.yul\":4988:5083   */\n      tag_142\n        /* \"#utility.yul\":5079:5082   */\n      dup3\n        /* \"#utility.yul\":5070:5076   */\n      dup7\n        /* \"#utility.yul\":4988:5083   */\n      tag_86\n      jump\t// in\n    tag_142:\n        /* \"#utility.yul\":4981:5083   */\n      swap2\n      pop\n        /* \"#utility.yul\":5100:5195   */\n      tag_143\n        /* \"#utility.yul\":5191:5194   */\n      dup3\n        /* \"#utility.yul\":5182:5188   */\n      dup6\n        /* \"#utility.yul\":5100:5195   */\n      tag_86\n      jump\t// in\n    tag_143:\n        /* \"#utility.yul\":5093:5195   */\n      swap2\n      pop\n        /* \"#utility.yul\":5212:5307   */\n      tag_144\n        /* \"#utility.yul\":5303:5306   */\n      dup3\n        /* \"#utility.yul\":5294:5300   */\n      dup5\n        /* \"#utility.yul\":5212:5307   */\n      tag_86\n      jump\t// in\n    tag_144:\n        /* \"#utility.yul\":5205:5307   */\n      swap2\n      pop\n        /* \"#utility.yul\":5324:5327   */\n      dup2\n        /* \"#utility.yul\":5317:5327   */\n      swap1\n      pop\n        /* \"#utility.yul\":4578:5333   */\n      swap6\n      swap5\n      pop\n      pop\n      pop\n      pop\n      pop\n      jump\t// out\n        /* \"#utility.yul\":5339:5437   */\n    tag_87:\n        /* \"#utility.yul\":5390:5396   */\n      0x00\n        /* \"#utility.yul\":5424:5429   */\n      dup2\n        /* \"#utility.yul\":5418:5430   */\n      mload\n        /* \"#utility.yul\":5408:5430   */\n      swap1\n      pop\n        /* \"#utility.yul\":5339:5437   */\n      swap2\n      swap1\n      pop\n      jump\t// out\n        /* \"#utility.yul\":5443:5590   */\n    tag_88:\n        /* \"#utility.yul\":5544:5555   */\n      0x00\n        /* \"#utility.yul\":5581:5584   */\n      dup2\n        /* \"#utility.yul\":5566:5584   */\n      swap1\n      pop\n        /* \"#utility.yul\":5443:5590   */\n      swap3\n      swap2\n      pop\n      pop\n      jump\t// out\n        /* \"#utility.yul\":5596:5982   */\n    tag_89:\n        /* \"#utility.yul\":5700:5703   */\n      0x00\n        /* \"#utility.yul\":5728:5766   */\n      tag_148\n        /* \"#utility.yul\":5760:5765   */\n      dup3\n        /* \"#utility.yul\":5728:5766   */\n      tag_87\n      jump\t// in\n    tag_148:\n        /* \"#utility.yul\":5782:5870   */\n      tag_149\n        /* \"#utility.yul\":5863:5869   */\n      dup2\n        /* \"#utility.yul\":5858:5861   */\n      dup6\n        /* \"#utility.yul\":5782:5870   */\n      tag_88\n      jump\t// in\n    tag_149:\n        /* \"#utility.yul\":5775:5870   */\n      swap4\n      pop\n        /* \"#utility.yul\":5879:5944   */\n      tag_150\n        /* \"#utility.yul\":5937:5943   */\n      dup2\n        /* \"#utility.yul\":5932:5935   */\n      dup6\n        /* \"#utility.yul\":5925:5929   */\n      0x20\n        /* \"#utility.yul\":5918:5923   */\n      dup7\n        /* \"#utility.yul\":5914:5930   */\n      add\n        /* \"#utility.yul\":5879:5944   */\n      tag_78\n      jump\t// in\n    tag_150:\n        /* \"#utility.yul\":5969:5975   */\n      dup1\n        /* \"#utility.yul\":5964:5967   */\n      dup5\n        /* \"#utility.yul\":5960:5976   */\n      add\n        /* \"#utility.yul\":5953:5976   */\n      swap2\n      pop\n        /* \"#utility.yul\":5704:5982   */\n      pop\n        /* \"#utility.yul\":5596:5982   */\n      swap3\n      swap2\n      pop\n      pop\n      jump\t// out\n        /* \"#utility.yul\":5988:6139   */\n    tag_90:\n        /* \"#utility.yul\":6128:6131   */\n      0x4d00000000000000000000000000000000000000000000000000000000000000\n        /* \"#utility.yul\":6124:6125   */\n      0x00\n        /* \"#utility.yul\":6116:6122   */\n      dup3\n        /* \"#utility.yul\":6112:6126   */\n      add\n        /* \"#utility.yul\":6105:6132   */\n      mstore\n        /* \"#utility.yul\":5988:6139   */\n      pop\n      jump\t// out\n        /* \"#utility.yul\":6145:6545   */\n    tag_91:\n        /* \"#utility.yul\":6305:6308   */\n      0x00\n        /* \"#utility.yul\":6326:6410   */\n      tag_153\n        /* \"#utility.yul\":6408:6409   */\n      0x01\n        /* \"#utility.yul\":6403:6406   */\n      dup4\n        /* \"#utility.yul\":6326:6410   */\n      tag_85\n      jump\t// in\n    tag_153:\n        /* \"#utility.yul\":6319:6410   */\n      swap2\n      pop\n        /* \"#utility.yul\":6419:6512   */\n      tag_154\n        /* \"#utility.yul\":6508:6511   */\n      dup3\n        /* \"#utility.yul\":6419:6512   */\n      tag_90\n      jump\t// in\n    tag_154:\n        /* \"#utility.yul\":6537:6538   */\n      0x01\n        /* \"#utility.yul\":6532:6535   */\n      dup3\n        /* \"#utility.yul\":6528:6539   */\n      add\n        /* \"#utility.yul\":6521:6539   */\n      swap1\n      pop\n        /* \"#utility.yul\":6145:6545   */\n      swap2\n      swap1\n      pop\n      jump\t// out\n        /* \"#utility.yul\":6551:7088   */\n    tag_39:\n        /* \"#utility.yul\":6782:6785   */\n      0x00\n        /* \"#utility.yul\":6804:6897   */\n      tag_156\n        /* \"#utility.yul\":6893:6896   */\n      dup3\n        /* \"#utility.yul\":6884:6890   */\n      dup5\n        /* \"#utility.yul\":6804:6897   */\n      tag_89\n      jump\t// in\n    tag_156:\n        /* \"#utility.yul\":6797:6897   */\n      swap2\n      pop\n        /* \"#utility.yul\":6914:7062   */\n      tag_157\n        /* \"#utility.yul\":7058:7061   */\n      dup3\n        /* \"#utility.yul\":6914:7062   */\n      tag_91\n      jump\t// in\n    tag_157:\n        /* \"#utility.yul\":6907:7062   */\n      swap2\n      pop\n        /* \"#utility.yul\":7079:7082   */\n      dup2\n        /* \"#utility.yul\":7072:7082   */\n      swap1\n      pop\n        /* \"#utility.yul\":6551:7088   */\n      swap3\n      swap2\n      pop\n      pop\n      jump\t// out\n\n    auxdata: 0xa2646970667358221220a32d321f46c3ca9248437a6528981c8d224208ff35a9789c1f21bdccb2c9248d64736f6c634300081e0033\n}\n",
				"bytecode": {
					"linkReferences": {},
					"object": "6080604052348015600e575f5ffd5b50610cbd8061001c5f395ff3fe608060405234801561000f575f5ffd5b5060043610610029575f3560e01c8063ab7baabe1461002d575b5f5ffd5b6100476004803603810190610042919061098b565b61005d565b6040516100549190610a26565b60405180910390f35b60605f821180156100705750610f9f8211155b6100af576040517f08c379a00000000000000000000000000000000000000000000000000000000081526004016100a690610ab6565b60405180910390fd5b5f6103e8836100be9190610b01565b90505f60646103e8856100d19190610b31565b6100db9190610b01565b90505f600a6064866100ed9190610b31565b6100f79190610b01565b90505f600a866101079190610b31565b90506101128461015a565b61011b846101c2565b61012484610448565b61012d846106ce565b6040516020016101409493929190610b9b565b604051602081830303815290604052945050505050919050565b60605f82036101795760405180602001604052805f81525090506101bd565b60605f5f90505b838110156101b757816040516020016101999190610c66565b60405160208183030381529060405291508080600101915050610180565b50809150505b919050565b606060098203610209576040518060400160405280600281526020017f434d0000000000000000000000000000000000000000000000000000000000008152509050610443565b6008820361024e576040518060400160405280600481526020017f44434343000000000000000000000000000000000000000000000000000000008152509050610443565b60078203610293576040518060400160405280600381526020017f44434300000000000000000000000000000000000000000000000000000000008152509050610443565b600682036102d8576040518060400160405280600281526020017f44430000000000000000000000000000000000000000000000000000000000008152509050610443565b6005820361031d576040518060400160405280600181526020017f44000000000000000000000000000000000000000000000000000000000000008152509050610443565b60048203610362576040518060400160405280600281526020017f43440000000000000000000000000000000000000000000000000000000000008152509050610443565b600382036103a7576040518060400160405280600381526020017f43434300000000000000000000000000000000000000000000000000000000008152509050610443565b600282036103ec576040518060400160405280600281526020017f43430000000000000000000000000000000000000000000000000000000000008152509050610443565b60018203610431576040518060400160405280600181526020017f43000000000000000000000000000000000000000000000000000000000000008152509050610443565b60405180602001604052805f81525090505b919050565b60606009820361048f576040518060400160405280600281526020017f584300000000000000000000000000000000000000000000000000000000000081525090506106c9565b600882036104d4576040518060400160405280600481526020017f4c5858580000000000000000000000000000000000000000000000000000000081525090506106c9565b60078203610519576040518060400160405280600381526020017f4c5858000000000000000000000000000000000000000000000000000000000081525090506106c9565b6006820361055e576040518060400160405280600281526020017f4c5800000000000000000000000000000000000000000000000000000000000081525090506106c9565b600582036105a3576040518060400160405280600181526020017f4c0000000000000000000000000000000000000000000000000000000000000081525090506106c9565b600482036105e8576040518060400160405280600281526020017f584c00000000000000000000000000000000000000000000000000000000000081525090506106c9565b6003820361062d576040518060400160405280600381526020017f585858000000000000000000000000000000000000000000000000000000000081525090506106c9565b60028203610672576040518060400160405280600281526020017f585800000000000000000000000000000000000000000000000000000000000081525090506106c9565b600182036106b7576040518060400160405280600181526020017f580000000000000000000000000000000000000000000000000000000000000081525090506106c9565b60405180602001604052805f81525090505b919050565b606060098203610715576040518060400160405280600281526020017f4958000000000000000000000000000000000000000000000000000000000000815250905061094f565b6008820361075a576040518060400160405280600481526020017f5649494900000000000000000000000000000000000000000000000000000000815250905061094f565b6007820361079f576040518060400160405280600381526020017f5649490000000000000000000000000000000000000000000000000000000000815250905061094f565b600682036107e4576040518060400160405280600281526020017f5649000000000000000000000000000000000000000000000000000000000000815250905061094f565b60058203610829576040518060400160405280600181526020017f5600000000000000000000000000000000000000000000000000000000000000815250905061094f565b6004820361086e576040518060400160405280600281526020017f4956000000000000000000000000000000000000000000000000000000000000815250905061094f565b600382036108b3576040518060400160405280600381526020017f4949490000000000000000000000000000000000000000000000000000000000815250905061094f565b600282036108f8576040518060400160405280600281526020017f4949000000000000000000000000000000000000000000000000000000000000815250905061094f565b6001820361093d576040518060400160405280600181526020017f4900000000000000000000000000000000000000000000000000000000000000815250905061094f565b60405180602001604052805f81525090505b919050565b5f5ffd5b5f819050919050565b61096a81610958565b8114610974575f5ffd5b50565b5f8135905061098581610961565b92915050565b5f602082840312156109a05761099f610954565b5b5f6109ad84828501610977565b91505092915050565b5f81519050919050565b5f82825260208201905092915050565b8281835e5f83830152505050565b5f601f19601f8301169050919050565b5f6109f8826109b6565b610a0281856109c0565b9350610a128185602086016109d0565b610a1b816109de565b840191505092915050565b5f6020820190508181035f830152610a3e81846109ee565b905092915050565b7f4e756d626572206d757374206265206265747765656e203120616e64203339395f8201527f3900000000000000000000000000000000000000000000000000000000000000602082015250565b5f610aa06021836109c0565b9150610aab82610a46565b604082019050919050565b5f6020820190508181035f830152610acd81610a94565b9050919050565b7f4e487b71000000000000000000000000000000000000000000000000000000005f52601260045260245ffd5b5f610b0b82610958565b9150610b1683610958565b925082610b2657610b25610ad4565b5b828204905092915050565b5f610b3b82610958565b9150610b4683610958565b925082610b5657610b55610ad4565b5b828206905092915050565b5f81905092915050565b5f610b75826109b6565b610b7f8185610b61565b9350610b8f8185602086016109d0565b80840191505092915050565b5f610ba68287610b6b565b9150610bb28286610b6b565b9150610bbe8285610b6b565b9150610bca8284610b6b565b915081905095945050505050565b5f81519050919050565b5f81905092915050565b5f610bf682610bd8565b610c008185610be2565b9350610c108185602086016109d0565b80840191505092915050565b7f4d000000000000000000000000000000000000000000000000000000000000005f82015250565b5f610c50600183610b61565b9150610c5b82610c1c565b600182019050919050565b5f610c718284610bec565b9150610c7c82610c44565b91508190509291505056fea2646970667358221220a32d321f46c3ca9248437a6528981c8d224208ff35a9789c1f21bdccb2c9248d64736f6c634300081e0033",
					"opcodes": "PUSH1 0x80 PUSH1 0x40 MSTORE CALLVALUE DUP1 ISZERO PUSH1 0xE JUMPI PUSH0 PUSH0 REVERT JUMPDEST POP PUSH2 0xCBD DUP1 PUSH2 0x1C PUSH0 CODECOPY PUSH0 RETURN INVALID PUSH1 0x80 PUSH1 0x40 MSTORE CALLVALUE DUP1 ISZERO PUSH2 0xF JUMPI PUSH0 PUSH0 REVERT JUMPDEST POP PUSH1 0x4 CALLDATASIZE LT PUSH2 0x29 JUMPI PUSH0 CALLDATALOAD PUSH1 0xE0 SHR DUP1 PUSH4 0xAB7BAABE EQ PUSH2 0x2D JUMPI JUMPDEST PUSH0 PUSH0 REVERT JUMPDEST PUSH2 0x47 PUSH1 0x4 DUP1 CALLDATASIZE SUB DUP2 ADD SWAP1 PUSH2 0x42 SWAP2 SWAP1 PUSH2 0x98B JUMP JUMPDEST PUSH2 0x5D JUMP JUMPDEST PUSH1 0x40 MLOAD PUSH2 0x54 SWAP2 SWAP1 PUSH2 0xA26 JUMP JUMPDEST PUSH1 0x40 MLOAD DUP1 SWAP2 SUB SWAP1 RETURN JUMPDEST PUSH1 0x60 PUSH0 DUP3 GT DUP1 ISZERO PUSH2 0x70 JUMPI POP PUSH2 0xF9F DUP3 GT ISZERO JUMPDEST PUSH2 0xAF JUMPI PUSH1 0x40 MLOAD PUSH32 0x8C379A000000000000000000000000000000000000000000000000000000000 DUP2 MSTORE PUSH1 0x4 ADD PUSH2 0xA6 SWAP1 PUSH2 0xAB6 JUMP JUMPDEST PUSH1 0x40 MLOAD DUP1 SWAP2 SUB SWAP1 REVERT JUMPDEST PUSH0 PUSH2 0x3E8 DUP4 PUSH2 0xBE SWAP2 SWAP1 PUSH2 0xB01 JUMP JUMPDEST SWAP1 POP PUSH0 PUSH1 0x64 PUSH2 0x3E8 DUP6 PUSH2 0xD1 SWAP2 SWAP1 PUSH2 0xB31 JUMP JUMPDEST PUSH2 0xDB SWAP2 SWAP1 PUSH2 0xB01 JUMP JUMPDEST SWAP1 POP PUSH0 PUSH1 0xA PUSH1 0x64 DUP7 PUSH2 0xED SWAP2 SWAP1 PUSH2 0xB31 JUMP JUMPDEST PUSH2 0xF7 SWAP2 SWAP1 PUSH2 0xB01 JUMP JUMPDEST SWAP1 POP PUSH0 PUSH1 0xA DUP7 PUSH2 0x107 SWAP2 SWAP1 PUSH2 0xB31 JUMP JUMPDEST SWAP1 POP PUSH2 0x112 DUP5 PUSH2 0x15A JUMP JUMPDEST PUSH2 0x11B DUP5 PUSH2 0x1C2 JUMP JUMPDEST PUSH2 0x124 DUP5 PUSH2 0x448 JUMP JUMPDEST PUSH2 0x12D DUP5 PUSH2 0x6CE JUMP JUMPDEST PUSH1 0x40 MLOAD PUSH1 0x20 ADD PUSH2 0x140 SWAP5 SWAP4 SWAP3 SWAP2 SWAP1 PUSH2 0xB9B JUMP JUMPDEST PUSH1 0x40 MLOAD PUSH1 0x20 DUP2 DUP4 SUB SUB DUP2 MSTORE SWAP1 PUSH1 0x40 MSTORE SWAP5 POP POP POP POP POP SWAP2 SWAP1 POP JUMP JUMPDEST PUSH1 0x60 PUSH0 DUP3 SUB PUSH2 0x179 JUMPI PUSH1 0x40 MLOAD DUP1 PUSH1 0x20 ADD PUSH1 0x40 MSTORE DUP1 PUSH0 DUP2 MSTORE POP SWAP1 POP PUSH2 0x1BD JUMP JUMPDEST PUSH1 0x60 PUSH0 PUSH0 SWAP1 POP JUMPDEST DUP4 DUP2 LT ISZERO PUSH2 0x1B7 JUMPI DUP2 PUSH1 0x40 MLOAD PUSH1 0x20 ADD PUSH2 0x199 SWAP2 SWAP1 PUSH2 0xC66 JUMP JUMPDEST PUSH1 0x40 MLOAD PUSH1 0x20 DUP2 DUP4 SUB SUB DUP2 MSTORE SWAP1 PUSH1 0x40 MSTORE SWAP2 POP DUP1 DUP1 PUSH1 0x1 ADD SWAP2 POP POP PUSH2 0x180 JUMP JUMPDEST POP DUP1 SWAP2 POP POP JUMPDEST SWAP2 SWAP1 POP JUMP JUMPDEST PUSH1 0x60 PUSH1 0x9 DUP3 SUB PUSH2 0x209 JUMPI PUSH1 0x40 MLOAD DUP1 PUSH1 0x40 ADD PUSH1 0x40 MSTORE DUP1 PUSH1 0x2 DUP2 MSTORE PUSH1 0x20 ADD PUSH32 0x434D000000000000000000000000000000000000000000000000000000000000 DUP2 MSTORE POP SWAP1 POP PUSH2 0x443 JUMP JUMPDEST PUSH1 0x8 DUP3 SUB PUSH2 0x24E JUMPI PUSH1 0x40 MLOAD DUP1 PUSH1 0x40 ADD PUSH1 0x40 MSTORE DUP1 PUSH1 0x4 DUP2 MSTORE PUSH1 0x20 ADD PUSH32 0x4443434300000000000000000000000000000000000000000000000000000000 DUP2 MSTORE POP SWAP1 POP PUSH2 0x443 JUMP JUMPDEST PUSH1 0x7 DUP3 SUB PUSH2 0x293 JUMPI PUSH1 0x40 MLOAD DUP1 PUSH1 0x40 ADD PUSH1 0x40 MSTORE DUP1 PUSH1 0x3 DUP2 MSTORE PUSH1 0x20 ADD PUSH32 0x4443430000000000000000000000000000000000000000000000000000000000 DUP2 MSTORE POP SWAP1 POP PUSH2 0x443 JUMP JUMPDEST PUSH1 0x6 DUP3 SUB PUSH2 0x2D8 JUMPI PUSH1 0x40 MLOAD DUP1 PUSH1 0x40 ADD PUSH1 0x40 MSTORE DUP1 PUSH1 0x2 DUP2 MSTORE PUSH1 0x20 ADD PUSH32 0x4443000000000000000000000000000000000000000000000000000000000000 DUP2 MSTORE POP SWAP1 POP PUSH2 0x443 JUMP JUMPDEST PUSH1 0x5 DUP3 SUB PUSH2 0x31D JUMPI PUSH1 0x40 MLOAD DUP1 PUSH1 0x40 ADD PUSH1 0x40 MSTORE DUP1 PUSH1 0x1 DUP2 MSTORE PUSH1 0x20 ADD PUSH32 0x4400000000000000000000000000000000000000000000000000000000000000 DUP2 MSTORE POP SWAP1 POP PUSH2 0x443 JUMP JUMPDEST PUSH1 0x4 DUP3 SUB PUSH2 0x362 JUMPI PUSH1 0x40 MLOAD DUP1 PUSH1 0x40 ADD PUSH1 0x40 MSTORE DUP1 PUSH1 0x2 DUP2 MSTORE PUSH1 0x20 ADD PUSH32 0x4344000000000000000000000000000000000000000000000000000000000000 DUP2 MSTORE POP SWAP1 POP PUSH2 0x443 JUMP JUMPDEST PUSH1 0x3 DUP3 SUB PUSH2 0x3A7 JUMPI PUSH1 0x40 MLOAD DUP1 PUSH1 0x40 ADD PUSH1 0x40 MSTORE DUP1 PUSH1 0x3 DUP2 MSTORE PUSH1 0x20 ADD PUSH32 0x4343430000000000000000000000000000000000000000000000000000000000 DUP2 MSTORE POP SWAP1 POP PUSH2 0x443 JUMP JUMPDEST PUSH1 0x2 DUP3 SUB PUSH2 0x3EC JUMPI PUSH1 0x40 MLOAD DUP1 PUSH1 0x40 ADD PUSH1 0x40 MSTORE DUP1 PUSH1 0x2 DUP2 MSTORE PUSH1 0x20 ADD PUSH32 0x4343000000000000000000000000000000000000000000000000000000000000 DUP2 MSTORE POP SWAP1 POP PUSH2 0x443 JUMP JUMPDEST PUSH1 0x1 DUP3 SUB PUSH2 0x431 JUMPI PUSH1 0x40 MLOAD DUP1 PUSH1 0x40 ADD PUSH1 0x40 MSTORE DUP1 PUSH1 0x1 DUP2 MSTORE PUSH1 0x20 ADD PUSH32 0x4300000000000000000000000000000000000000000000000000000000000000 DUP2 MSTORE POP SWAP1 POP PUSH2 0x443 JUMP JUMPDEST PUSH1 0x40 MLOAD DUP1 PUSH1 0x20 ADD PUSH1 0x40 MSTORE DUP1 PUSH0 DUP2 MSTORE POP SWAP1 POP JUMPDEST SWAP2 SWAP1 POP JUMP JUMPDEST PUSH1 0x60 PUSH1 0x9 DUP3 SUB PUSH2 0x48F JUMPI PUSH1 0x40 MLOAD DUP1 PUSH1 0x40 ADD PUSH1 0x40 MSTORE DUP1 PUSH1 0x2 DUP2 MSTORE PUSH1 0x20 ADD PUSH32 0x5843000000000000000000000000000000000000000000000000000000000000 DUP2 MSTORE POP SWAP1 POP PUSH2 0x6C9 JUMP JUMPDEST PUSH1 0x8 DUP3 SUB PUSH2 0x4D4 JUMPI PUSH1 0x40 MLOAD DUP1 PUSH1 0x40 ADD PUSH1 0x40 MSTORE DUP1 PUSH1 0x4 DUP2 MSTORE PUSH1 0x20 ADD PUSH32 0x4C58585800000000000000000000000000000000000000000000000000000000 DUP2 MSTORE POP SWAP1 POP PUSH2 0x6C9 JUMP JUMPDEST PUSH1 0x7 DUP3 SUB PUSH2 0x519 JUMPI PUSH1 0x40 MLOAD DUP1 PUSH1 0x40 ADD PUSH1 0x40 MSTORE DUP1 PUSH1 0x3 DUP2 MSTORE PUSH1 0x20 ADD PUSH32 0x4C58580000000000000000000000000000000000000000000000000000000000 DUP2 MSTORE POP SWAP1 POP PUSH2 0x6C9 JUMP JUMPDEST PUSH1 0x6 DUP3 SUB PUSH2 0x55E JUMPI PUSH1 0x40 MLOAD DUP1 PUSH1 0x40 ADD PUSH1 0x40 MSTORE DUP1 PUSH1 0x2 DUP2 MSTORE PUSH1 0x20 ADD PUSH32 0x4C58000000000000000000000000000000000000000000000000000000000000 DUP2 MSTORE POP SWAP1 POP PUSH2 0x6C9 JUMP JUMPDEST PUSH1 0x5 DUP3 SUB PUSH2 0x5A3 JUMPI PUSH1 0x40 MLOAD DUP1 PUSH1 0x40 ADD PUSH1 0x40 MSTORE DUP1 PUSH1 0x1 DUP2 MSTORE PUSH1 0x20 ADD PUSH32 0x4C00000000000000000000000000000000000000000000000000000000000000 DUP2 MSTORE POP SWAP1 POP PUSH2 0x6C9 JUMP JUMPDEST PUSH1 0x4 DUP3 SUB PUSH2 0x5E8 JUMPI PUSH1 0x40 MLOAD DUP1 PUSH1 0x40 ADD PUSH1 0x40 MSTORE DUP1 PUSH1 0x2 DUP2 MSTORE PUSH1 0x20 ADD PUSH32 0x584C000000000000000000000000000000000000000000000000000000000000 DUP2 MSTORE POP SWAP1 POP PUSH2 0x6C9 JUMP JUMPDEST PUSH1 0x3 DUP3 SUB PUSH2 0x62D JUMPI PUSH1 0x40 MLOAD DUP1 PUSH1 0x40 ADD PUSH1 0x40 MSTORE DUP1 PUSH1 0x3 DUP2 MSTORE PUSH1 0x20 ADD PUSH32 0x5858580000000000000000000000000000000000000000000000000000000000 DUP2 MSTORE POP SWAP1 POP PUSH2 0x6C9 JUMP JUMPDEST PUSH1 0x2 DUP3 SUB PUSH2 0x672 JUMPI PUSH1 0x40 MLOAD DUP1 PUSH1 0x40 ADD PUSH1 0x40 MSTORE DUP1 PUSH1 0x2 DUP2 MSTORE PUSH1 0x20 ADD PUSH32 0x5858000000000000000000000000000000000000000000000000000000000000 DUP2 MSTORE POP SWAP1 POP PUSH2 0x6C9 JUMP JUMPDEST PUSH1 0x1 DUP3 SUB PUSH2 0x6B7 JUMPI PUSH1 0x40 MLOAD DUP1 PUSH1 0x40 ADD PUSH1 0x40 MSTORE DUP1 PUSH1 0x1 DUP2 MSTORE PUSH1 0x20 ADD PUSH32 0x5800000000000000000000000000000000000000000000000000000000000000 DUP2 MSTORE POP SWAP1 POP PUSH2 0x6C9 JUMP JUMPDEST PUSH1 0x40 MLOAD DUP1 PUSH1 0x20 ADD PUSH1 0x40 MSTORE DUP1 PUSH0 DUP2 MSTORE POP SWAP1 POP JUMPDEST SWAP2 SWAP1 POP JUMP JUMPDEST PUSH1 0x60 PUSH1 0x9 DUP3 SUB PUSH2 0x715 JUMPI PUSH1 0x40 MLOAD DUP1 PUSH1 0x40 ADD PUSH1 0x40 MSTORE DUP1 PUSH1 0x2 DUP2 MSTORE PUSH1 0x20 ADD PUSH32 0x4958000000000000000000000000000000000000000000000000000000000000 DUP2 MSTORE POP SWAP1 POP PUSH2 0x94F JUMP JUMPDEST PUSH1 0x8 DUP3 SUB PUSH2 0x75A JUMPI PUSH1 0x40 MLOAD DUP1 PUSH1 0x40 ADD PUSH1 0x40 MSTORE DUP1 PUSH1 0x4 DUP2 MSTORE PUSH1 0x20 ADD PUSH32 0x5649494900000000000000000000000000000000000000000000000000000000 DUP2 MSTORE POP SWAP1 POP PUSH2 0x94F JUMP JUMPDEST PUSH1 0x7 DUP3 SUB PUSH2 0x79F JUMPI PUSH1 0x40 MLOAD DUP1 PUSH1 0x40 ADD PUSH1 0x40 MSTORE DUP1 PUSH1 0x3 DUP2 MSTORE PUSH1 0x20 ADD PUSH32 0x5649490000000000000000000000000000000000000000000000000000000000 DUP2 MSTORE POP SWAP1 POP PUSH2 0x94F JUMP JUMPDEST PUSH1 0x6 DUP3 SUB PUSH2 0x7E4 JUMPI PUSH1 0x40 MLOAD DUP1 PUSH1 0x40 ADD PUSH1 0x40 MSTORE DUP1 PUSH1 0x2 DUP2 MSTORE PUSH1 0x20 ADD PUSH32 0x5649000000000000000000000000000000000000000000000000000000000000 DUP2 MSTORE POP SWAP1 POP PUSH2 0x94F JUMP JUMPDEST PUSH1 0x5 DUP3 SUB PUSH2 0x829 JUMPI PUSH1 0x40 MLOAD DUP1 PUSH1 0x40 ADD PUSH1 0x40 MSTORE DUP1 PUSH1 0x1 DUP2 MSTORE PUSH1 0x20 ADD PUSH32 0x5600000000000000000000000000000000000000000000000000000000000000 DUP2 MSTORE POP SWAP1 POP PUSH2 0x94F JUMP JUMPDEST PUSH1 0x4 DUP3 SUB PUSH2 0x86E JUMPI PUSH1 0x40 MLOAD DUP1 PUSH1 0x40 ADD PUSH1 0x40 MSTORE DUP1 PUSH1 0x2 DUP2 MSTORE PUSH1 0x20 ADD PUSH32 0x4956000000000000000000000000000000000000000000000000000000000000 DUP2 MSTORE POP SWAP1 POP PUSH2 0x94F JUMP JUMPDEST PUSH1 0x3 DUP3 SUB PUSH2 0x8B3 JUMPI PUSH1 0x40 MLOAD DUP1 PUSH1 0x40 ADD PUSH1 0x40 MSTORE DUP1 PUSH1 0x3 DUP2 MSTORE PUSH1 0x20 ADD PUSH32 0x4949490000000000000000000000000000000000000000000000000000000000 DUP2 MSTORE POP SWAP1 POP PUSH2 0x94F JUMP JUMPDEST PUSH1 0x2 DUP3 SUB PUSH2 0x8F8 JUMPI PUSH1 0x40 MLOAD DUP1 PUSH1 0x40 ADD PUSH1 0x40 MSTORE DUP1 PUSH1 0x2 DUP2 MSTORE PUSH1 0x20 ADD PUSH32 0x4949000000000000000000000000000000000000000000000000000000000000 DUP2 MSTORE POP SWAP1 POP PUSH2 0x94F JUMP JUMPDEST PUSH1 0x1 DUP3 SUB PUSH2 0x93D JUMPI PUSH1 0x40 MLOAD DUP1 PUSH1 0x40 ADD PUSH1 0x40 MSTORE DUP1 PUSH1 0x1 DUP2 MSTORE PUSH1 0x20 ADD PUSH32 0x4900000000000000000000000000000000000000000000000000000000000000 DUP2 MSTORE POP SWAP1 POP PUSH2 0x94F JUMP JUMPDEST PUSH1 0x40 MLOAD DUP1 PUSH1 0x20 ADD PUSH1 0x40 MSTORE DUP1 PUSH0 DUP2 MSTORE POP SWAP1 POP JUMPDEST SWAP2 SWAP1 POP JUMP JUMPDEST PUSH0 PUSH0 REVERT JUMPDEST PUSH0 DUP2 SWAP1 POP SWAP2 SWAP1 POP JUMP JUMPDEST PUSH2 0x96A DUP2 PUSH2 0x958 JUMP JUMPDEST DUP2 EQ PUSH2 0x974 JUMPI PUSH0 PUSH0 REVERT JUMPDEST POP JUMP JUMPDEST PUSH0 DUP2 CALLDATALOAD SWAP1 POP PUSH2 0x985 DUP2 PUSH2 0x961 JUMP JUMPDEST SWAP3 SWAP2 POP POP JUMP JUMPDEST PUSH0 PUSH1 0x20 DUP3 DUP5 SUB SLT ISZERO PUSH2 0x9A0 JUMPI PUSH2 0x99F PUSH2 0x954 JUMP JUMPDEST JUMPDEST PUSH0 PUSH2 0x9AD DUP5 DUP3 DUP6 ADD PUSH2 0x977 JUMP JUMPDEST SWAP2 POP POP SWAP3 SWAP2 POP POP JUMP JUMPDEST PUSH0 DUP2 MLOAD SWAP1 POP SWAP2 SWAP1 POP JUMP JUMPDEST PUSH0 DUP3 DUP3 MSTORE PUSH1 0x20 DUP3 ADD SWAP1 POP SWAP3 SWAP2 POP POP JUMP JUMPDEST DUP3 DUP2 DUP4 MCOPY PUSH0 DUP4 DUP4 ADD MSTORE POP POP POP JUMP JUMPDEST PUSH0 PUSH1 0x1F NOT PUSH1 0x1F DUP4 ADD AND SWAP1 POP SWAP2 SWAP1 POP JUMP JUMPDEST PUSH0 PUSH2 0x9F8 DUP3 PUSH2 0x9B6 JUMP JUMPDEST PUSH2 0xA02 DUP2 DUP6 PUSH2 0x9C0 JUMP JUMPDEST SWAP4 POP PUSH2 0xA12 DUP2 DUP6 PUSH1 0x20 DUP7 ADD PUSH2 0x9D0 JUMP JUMPDEST PUSH2 0xA1B DUP2 PUSH2 0x9DE JUMP JUMPDEST DUP5 ADD SWAP2 POP POP SWAP3 SWAP2 POP POP JUMP JUMPDEST PUSH0 PUSH1 0x20 DUP3 ADD SWAP1 POP DUP2 DUP2 SUB PUSH0 DUP4 ADD MSTORE PUSH2 0xA3E DUP2 DUP5 PUSH2 0x9EE JUMP JUMPDEST SWAP1 POP SWAP3 SWAP2 POP POP JUMP JUMPDEST PUSH32 0x4E756D626572206D757374206265206265747765656E203120616E6420333939 PUSH0 DUP3 ADD MSTORE PUSH32 0x3900000000000000000000000000000000000000000000000000000000000000 PUSH1 0x20 DUP3 ADD MSTORE POP JUMP JUMPDEST PUSH0 PUSH2 0xAA0 PUSH1 0x21 DUP4 PUSH2 0x9C0 JUMP JUMPDEST SWAP2 POP PUSH2 0xAAB DUP3 PUSH2 0xA46 JUMP JUMPDEST PUSH1 0x40 DUP3 ADD SWAP1 POP SWAP2 SWAP1 POP JUMP JUMPDEST PUSH0 PUSH1 0x20 DUP3 ADD SWAP1 POP DUP2 DUP2 SUB PUSH0 DUP4 ADD MSTORE PUSH2 0xACD DUP2 PUSH2 0xA94 JUMP JUMPDEST SWAP1 POP SWAP2 SWAP1 POP JUMP JUMPDEST PUSH32 0x4E487B7100000000000000000000000000000000000000000000000000000000 PUSH0 MSTORE PUSH1 0x12 PUSH1 0x4 MSTORE PUSH1 0x24 PUSH0 REVERT JUMPDEST PUSH0 PUSH2 0xB0B DUP3 PUSH2 0x958 JUMP JUMPDEST SWAP2 POP PUSH2 0xB16 DUP4 PUSH2 0x958 JUMP JUMPDEST SWAP3 POP DUP3 PUSH2 0xB26 JUMPI PUSH2 0xB25 PUSH2 0xAD4 JUMP JUMPDEST JUMPDEST DUP3 DUP3 DIV SWAP1 POP SWAP3 SWAP2 POP POP JUMP JUMPDEST PUSH0 PUSH2 0xB3B DUP3 PUSH2 0x958 JUMP JUMPDEST SWAP2 POP PUSH2 0xB46 DUP4 PUSH2 0x958 JUMP JUMPDEST SWAP3 POP DUP3 PUSH2 0xB56 JUMPI PUSH2 0xB55 PUSH2 0xAD4 JUMP JUMPDEST JUMPDEST DUP3 DUP3 MOD SWAP1 POP SWAP3 SWAP2 POP POP JUMP JUMPDEST PUSH0 DUP2 SWAP1 POP SWAP3 SWAP2 POP POP JUMP JUMPDEST PUSH0 PUSH2 0xB75 DUP3 PUSH2 0x9B6 JUMP JUMPDEST PUSH2 0xB7F DUP2 DUP6 PUSH2 0xB61 JUMP JUMPDEST SWAP4 POP PUSH2 0xB8F DUP2 DUP6 PUSH1 0x20 DUP7 ADD PUSH2 0x9D0 JUMP JUMPDEST DUP1 DUP5 ADD SWAP2 POP POP SWAP3 SWAP2 POP POP JUMP JUMPDEST PUSH0 PUSH2 0xBA6 DUP3 DUP8 PUSH2 0xB6B JUMP JUMPDEST SWAP2 POP PUSH2 0xBB2 DUP3 DUP7 PUSH2 0xB6B JUMP JUMPDEST SWAP2 POP PUSH2 0xBBE DUP3 DUP6 PUSH2 0xB6B JUMP JUMPDEST SWAP2 POP PUSH2 0xBCA DUP3 DUP5 PUSH2 0xB6B JUMP JUMPDEST SWAP2 POP DUP2 SWAP1 POP SWAP6 SWAP5 POP POP POP POP POP JUMP JUMPDEST PUSH0 DUP2 MLOAD SWAP1 POP SWAP2 SWAP1 POP JUMP JUMPDEST PUSH0 DUP2 SWAP1 POP SWAP3 SWAP2 POP POP JUMP JUMPDEST PUSH0 PUSH2 0xBF6 DUP3 PUSH2 0xBD8 JUMP JUMPDEST PUSH2 0xC00 DUP2 DUP6 PUSH2 0xBE2 JUMP JUMPDEST SWAP4 POP PUSH2 0xC10 DUP2 DUP6 PUSH1 0x20 DUP7 ADD PUSH2 0x9D0 JUMP JUMPDEST DUP1 DUP5 ADD SWAP2 POP POP SWAP3 SWAP2 POP POP JUMP JUMPDEST PUSH32 0x4D00000000000000000000000000000000000000000000000000000000000000 PUSH0 DUP3 ADD MSTORE POP JUMP JUMPDEST PUSH0 PUSH2 0xC50 PUSH1 0x1 DUP4 PUSH2 0xB61 JUMP JUMPDEST SWAP2 POP PUSH2 0xC5B DUP3 PUSH2 0xC1C JUMP JUMPDEST PUSH1 0x1 DUP3 ADD SWAP1 POP SWAP2 SWAP1 POP JUMP JUMPDEST PUSH0 PUSH2 0xC71 DUP3 DUP5 PUSH2 0xBEC JUMP JUMPDEST SWAP2 POP PUSH2 0xC7C DUP3 PUSH2 0xC44 JUMP JUMPDEST SWAP2 POP DUP2 SWAP1 POP SWAP3 SWAP2 POP POP JUMP INVALID LOG2 PUSH5 0x6970667358 0x22 SLT KECCAK256 LOG3 0x2D ORIGIN 0x1F CHAINID 0xC3 0xCA SWAP3 BASEFEE NUMBER PUSH27 0x6528981C8D224208FF35A9789C1F21BDCCB2C9248D64736F6C6343 STOP ADDMOD 0x1E STOP CALLER "
				},
				"gasEstimates": {
					"creation": {
						"codeDepositCost": "652200",
						"executionCost": "681",
						"totalCost": "652881"
					},
					"external": {
						"toRoman(uint256)": "infinite"
					},
					"internal": {
						"_convertHundreds(uint256)": "infinite",
						"_convertOnes(uint256)": "infinite",
						"_convertTens(uint256)": "infinite",
						"_convertThousands(uint256)": "infinite"
					}
				},
				"methodIdentifiers": {
					"toRoman(uint256)": "ab7baabe"
				}
			},
			"storageLayout": {
				"storage": [],
				"types": null
			},
			"userdoc": {
				"kind": "user",
				"methods": {},
				"version": 1
			}
		}
	}
}