{
	"task1/RomanNumeral2Int.sol": {
		"RomanNumeral2Int": {
			"abi": [
				{
					"inputs": [],
					"stateMutability": "nonpayable",
					"type": "constructor"
				},
				{
					"inputs": [
						{
							"internalType": "string",
							"name": "roman",
							"type": "string"
						}
					],
					"name": "romanToInt",
					"outputs": [
						{
							"internalType": "uint256",
							"name": "",
							"type": "uint256"
						}
					],
					"stateMutability": "view",
					"type": "function"
				}
			],
			"devdoc": {
				"kind": "dev",
				"methods": {},
				"version": 1
			},
			"evm": {
				"assembly": "    /* \"task1/RomanNumeral2Int.sol\":657:1716  contract RomanNumeral2Int {... */\n  mstore(0x40, 0x80)\n    /* \"task1/RomanNumeral2Int.sol\":739:958  constructor() {... */\n  callvalue\n  dup1\n  iszero\n  tag_1\n  jumpi\n  revert(0x00, 0x00)\ntag_1:\n  pop\n    /* \"task1/RomanNumeral2Int.sol\":779:780  1 */\n  0x01\n    /* \"task1/RomanNumeral2Int.sol\":763:771  romanMap */\n  0x00\n    /* \"task1/RomanNumeral2Int.sol\":763:776  romanMap[\"I\"] */\n  0x00\n  and(not(0xffffffffffffffffffffffffffffffffffffffffffffffffffffffffffffff), 0x4900000000000000000000000000000000000000000000000000000000000000)\n  dup2\n  mstore\n  0x20\n  add\n  swap1\n  dup2\n  mstore\n  0x20\n  add\n  0x00\n  keccak256\n    /* \"task1/RomanNumeral2Int.sol\":763:780  romanMap[\"I\"] = 1 */\n  dup2\n  swap1\n  sstore\n  pop\n    /* \"task1/RomanNumeral2Int.sol\":806:807  5 */\n  0x05\n    /* \"task1/RomanNumeral2Int.sol\":790:798  romanMap */\n  0x00\n    /* \"task1/RomanNumeral2Int.sol\":790:803  romanMap[\"V\"] */\n  0x00\n  and(not(0xffffffffffffffffffffffffffffffffffffffffffffffffffffffffffffff), 0x5600000000000000000000000000000000000000000000000000000000000000)\n  dup2\n  mstore\n  0x20\n  add\n  swap1\n  dup2\n  mstore\n  0x20\n  add\n  0x00\n  keccak256\n    /* \"task1/RomanNumeral2Int.sol\":790:807  romanMap[\"V\"] = 5 */\n  dup2\n  swap1\n  sstore\n  pop\n    /* \"task1/RomanNumeral2Int.sol\":833:835  10 */\n  0x0a\n    /* \"task1/RomanNumeral2Int.sol\":817:825  romanMap */\n  0x00\n    /* \"task1/RomanNumeral2Int.sol\":817:830  romanMap[\"X\"] */\n  0x00\n  and(not(0xffffffffffffffffffffffffffffffffffffffffffffffffffffffffffffff), 0x5800000000000000000000000000000000000000000000000000000000000000)\n  dup2\n  mstore\n  0x20\n  add\n  swap1\n  dup2\n  mstore\n  0x20\n  add\n  0x00\n  keccak256\n    /* \"task1/RomanNumeral2Int.sol\":817:835  romanMap[\"X\"] = 10 */\n  dup2\n  swap1\n  sstore\n  pop\n    /* \"task1/RomanNumeral2Int.sol\":861:863  50 */\n  0x32\n    /* \"task1/RomanNumeral2Int.sol\":845:853  romanMap */\n  0x00\n    /* \"task1/RomanNumeral2Int.sol\":845:858  romanMap[\"L\"] */\n  0x00\n  and(not(0xffffffffffffffffffffffffffffffffffffffffffffffffffffffffffffff), 0x4c00000000000000000000000000000000000000000000000000000000000000)\n  dup2\n  mstore\n  0x20\n  add\n  swap1\n  dup2\n  mstore\n  0x20\n  add\n  0x00\n  keccak256\n    /* \"task1/RomanNumeral2Int.sol\":845:863  romanMap[\"L\"] = 50 */\n  dup2\n  swap1\n  sstore\n  pop\n    /* \"task1/RomanNumeral2Int.sol\":889:892  100 */\n  0x64\n    /* \"task1/RomanNumeral2Int.sol\":873:881  romanMap */\n  0x00\n    /* \"task1/RomanNumeral2Int.sol\":873:886  romanMap[\"C\"] */\n  0x00\n  and(not(0xffffffffffffffffffffffffffffffffffffffffffffffffffffffffffffff), 0x4300000000000000000000000000000000000000000000000000000000000000)\n  dup2\n  mstore\n  0x20\n  add\n  swap1\n  dup2\n  mstore\n  0x20\n  add\n  0x00\n  keccak256\n    /* \"task1/RomanNumeral2Int.sol\":873:892  romanMap[\"C\"] = 100 */\n  dup2\n  swap1\n  sstore\n  pop\n    /* \"task1/RomanNumeral2Int.sol\":918:921  500 */\n  0x01f4\n    /* \"task1/RomanNumeral2Int.sol\":902:910  romanMap */\n  0x00\n    /* \"task1/RomanNumeral2Int.sol\":902:915  romanMap[\"D\"] */\n  0x00\n  and(not(0xffffffffffffffffffffffffffffffffffffffffffffffffffffffffffffff), 0x4400000000000000000000000000000000000000000000000000000000000000)\n  dup2\n  mstore\n  0x20\n  add\n  swap1\n  dup2\n  mstore\n  0x20\n  add\n  0x00\n  keccak256\n    /* \"task1/RomanNumeral2Int.sol\":902:921  romanMap[\"D\"] = 500 */\n  dup2\n  swap1\n  sstore\n  pop\n    /* \"task1/RomanNumeral2Int.sol\":947:951  1000 */\n  0x03e8\n    /* \"task1/RomanNumeral2Int.sol\":931:939  romanMap */\n  0x00\n    /* \"task1/RomanNumeral2Int.sol\":931:944  romanMap[\"M\"] */\n  0x00\n  and(not(0xffffffffffffffffffffffffffffffffffffffffffffffffffffffffffffff), 0x4d00000000000000000000000000000000000000000000000000000000000000)\n  dup2\n  mstore\n  0x20\n  add\n  swap1\n  dup2\n  mstore\n  0x20\n  add\n  0x00\n  keccak256\n    /* \"task1/RomanNumeral2Int.sol\":931:951  romanMap[\"M\"] = 1000 */\n  dup2\n  swap1\n  sstore\n  pop\n    /* \"task1/RomanNumeral2Int.sol\":657:1716  contract RomanNumeral2Int {... */\n  dataSize(sub_0)\n  dup1\n  dataOffset(sub_0)\n  0x00\n  codecopy\n  0x00\n  return\nstop\n\nsub_0: assembly {\n        /* \"task1/RomanNumeral2Int.sol\":657:1716  contract RomanNumeral2Int {... */\n      mstore(0x40, 0x80)\n      callvalue\n      dup1\n      iszero\n      tag_1\n      jumpi\n      revert(0x00, 0x00)\n    tag_1:\n      pop\n      jumpi(tag_2, lt(calldatasize, 0x04))\n      shr(0xe0, calldataload(0x00))\n      dup1\n      0xcb159dfe\n      eq\n      tag_3\n      jumpi\n    tag_2:\n      revert(0x00, 0x00)\n        /* \"task1/RomanNumeral2Int.sol\":964:1714  function romanToInt(string memory roman) public view returns (uint256) {... */\n    tag_3:\n      tag_4\n      0x04\n      dup1\n      calldatasize\n      sub\n      dup2\n      add\n      swap1\n      tag_5\n      swap2\n      swap1\n      tag_6\n      jump\t// in\n    tag_5:\n      tag_7\n      jump\t// in\n    tag_4:\n      mload(0x40)\n      tag_8\n      swap2\n      swap1\n      tag_9\n      jump\t// in\n    tag_8:\n      mload(0x40)\n      dup1\n      swap2\n      sub\n      swap1\n      return\n    tag_7:\n        /* \"task1/RomanNumeral2Int.sol\":1026:1033  uint256 */\n      0x00\n        /* \"task1/RomanNumeral2Int.sol\":1045:1068  bytes memory romanBytes */\n      0x00\n        /* \"task1/RomanNumeral2Int.sol\":1077:1082  roman */\n      dup3\n        /* \"task1/RomanNumeral2Int.sol\":1045:1083  bytes memory romanBytes = bytes(roman) */\n      swap1\n      pop\n        /* \"task1/RomanNumeral2Int.sol\":1093:1107  uint256 length */\n      0x00\n        /* \"task1/RomanNumeral2Int.sol\":1110:1120  romanBytes */\n      dup2\n        /* \"task1/RomanNumeral2Int.sol\":1110:1127  romanBytes.length */\n      mload\n        /* \"task1/RomanNumeral2Int.sol\":1093:1127  uint256 length = romanBytes.length */\n      swap1\n      pop\n        /* \"task1/RomanNumeral2Int.sol\":1152:1153  0 */\n      0x00\n        /* \"task1/RomanNumeral2Int.sol\":1142:1148  length */\n      dup2\n        /* \"task1/RomanNumeral2Int.sol\":1142:1153  length == 0 */\n      sub\n        /* \"task1/RomanNumeral2Int.sol\":1138:1177  if (length == 0) revert(\"Empty string\") */\n      tag_11\n      jumpi\n        /* \"task1/RomanNumeral2Int.sol\":1155:1177  revert(\"Empty string\") */\n      mload(0x40)\n      0x08c379a000000000000000000000000000000000000000000000000000000000\n      dup2\n      mstore\n      0x04\n      add\n      tag_12\n      swap1\n      tag_13\n      jump\t// in\n    tag_12:\n      mload(0x40)\n      dup1\n      swap2\n      sub\n      swap1\n      revert\n        /* \"task1/RomanNumeral2Int.sol\":1138:1177  if (length == 0) revert(\"Empty string\") */\n    tag_11:\n        /* \"task1/RomanNumeral2Int.sol\":1188:1202  uint256 result */\n      0x00\n        /* \"task1/RomanNumeral2Int.sol\":1205:1206  0 */\n      0x00\n        /* \"task1/RomanNumeral2Int.sol\":1188:1206  uint256 result = 0 */\n      swap1\n      pop\n        /* \"task1/RomanNumeral2Int.sol\":1216:1233  uint256 prevValue */\n      0x00\n        /* \"task1/RomanNumeral2Int.sol\":1236:1237  0 */\n      0x00\n        /* \"task1/RomanNumeral2Int.sol\":1216:1237  uint256 prevValue = 0 */\n      swap1\n      pop\n        /* \"task1/RomanNumeral2Int.sol\":1253:1262  uint256 i */\n      0x00\n        /* \"task1/RomanNumeral2Int.sol\":1265:1271  length */\n      dup4\n        /* \"task1/RomanNumeral2Int.sol\":1253:1271  uint256 i = length */\n      swap1\n      pop\n        /* \"task1/RomanNumeral2Int.sol\":1248:1684  for (uint256 i = length; i > 0; i--) {... */\n    tag_14:\n        /* \"task1/RomanNumeral2Int.sol\":1277:1278  0 */\n      0x00\n        /* \"task1/RomanNumeral2Int.sol\":1273:1274  i */\n      dup2\n        /* \"task1/RomanNumeral2Int.sol\":1273:1278  i > 0 */\n      gt\n        /* \"task1/RomanNumeral2Int.sol\":1248:1684  for (uint256 i = length; i > 0; i--) {... */\n      iszero\n      tag_15\n      jumpi\n        /* \"task1/RomanNumeral2Int.sol\":1299:1317  bytes1 currentChar */\n      0x00\n        /* \"task1/RomanNumeral2Int.sol\":1320:1330  romanBytes */\n      dup6\n        /* \"task1/RomanNumeral2Int.sol\":1335:1336  1 */\n      0x01\n        /* \"task1/RomanNumeral2Int.sol\":1331:1332  i */\n      dup4\n        /* \"task1/RomanNumeral2Int.sol\":1331:1336  i - 1 */\n      tag_17\n      swap2\n      swap1\n      tag_18\n      jump\t// in\n    tag_17:\n        /* \"task1/RomanNumeral2Int.sol\":1320:1337  romanBytes[i - 1] */\n      dup2\n      mload\n      dup2\n      lt\n      tag_19\n      jumpi\n      tag_20\n      tag_21\n      jump\t// in\n    tag_20:\n    tag_19:\n      0x20\n      add\n      add\n      mload\n      0xf8\n      shr\n      0xf8\n      shl\n        /* \"task1/RomanNumeral2Int.sol\":1299:1337  bytes1 currentChar = romanBytes[i - 1] */\n      swap1\n      pop\n        /* \"task1/RomanNumeral2Int.sol\":1351:1371  uint256 currentValue */\n      0x00\n        /* \"task1/RomanNumeral2Int.sol\":1374:1382  romanMap */\n      0x00\n        /* \"task1/RomanNumeral2Int.sol\":1374:1395  romanMap[currentChar] */\n      0x00\n        /* \"task1/RomanNumeral2Int.sol\":1383:1394  currentChar */\n      dup4\n        /* \"task1/RomanNumeral2Int.sol\":1374:1395  romanMap[currentChar] */\n      not(0xffffffffffffffffffffffffffffffffffffffffffffffffffffffffffffff)\n      and\n      not(0xffffffffffffffffffffffffffffffffffffffffffffffffffffffffffffff)\n      and\n      dup2\n      mstore\n      0x20\n      add\n      swap1\n      dup2\n      mstore\n      0x20\n      add\n      0x00\n      keccak256\n      sload\n        /* \"task1/RomanNumeral2Int.sol\":1351:1395  uint256 currentValue = romanMap[currentChar] */\n      swap1\n      pop\n        /* \"task1/RomanNumeral2Int.sol\":1430:1431  0 */\n      0x00\n        /* \"task1/RomanNumeral2Int.sol\":1414:1426  currentValue */\n      dup2\n        /* \"task1/RomanNumeral2Int.sol\":1414:1431  currentValue == 0 */\n      sub\n        /* \"task1/RomanNumeral2Int.sol\":1410:1474  if (currentValue == 0) revert(\"Invalid Roman numeral character\") */\n      tag_22\n      jumpi\n        /* \"task1/RomanNumeral2Int.sol\":1433:1474  revert(\"Invalid Roman numeral character\") */\n      mload(0x40)\n      0x08c379a000000000000000000000000000000000000000000000000000000000\n      dup2\n      mstore\n      0x04\n      add\n      tag_23\n      swap1\n      tag_24\n      jump\t// in\n    tag_23:\n      mload(0x40)\n      dup1\n      swap2\n      sub\n      swap1\n      revert\n        /* \"task1/RomanNumeral2Int.sol\":1410:1474  if (currentValue == 0) revert(\"Invalid Roman numeral character\") */\n    tag_22:\n        /* \"task1/RomanNumeral2Int.sol\":1508:1517  prevValue */\n      dup4\n        /* \"task1/RomanNumeral2Int.sol\":1493:1505  currentValue */\n      dup2\n        /* \"task1/RomanNumeral2Int.sol\":1493:1517  currentValue < prevValue */\n      lt\n        /* \"task1/RomanNumeral2Int.sol\":1489:1635  if (currentValue < prevValue) {... */\n      iszero\n      tag_25\n      jumpi\n        /* \"task1/RomanNumeral2Int.sol\":1547:1559  currentValue */\n      dup1\n        /* \"task1/RomanNumeral2Int.sol\":1537:1559  result -= currentValue */\n      dup6\n      tag_26\n      swap2\n      swap1\n      tag_18\n      jump\t// in\n    tag_26:\n      swap5\n      pop\n        /* \"task1/RomanNumeral2Int.sol\":1489:1635  if (currentValue < prevValue) {... */\n      jump(tag_27)\n    tag_25:\n        /* \"task1/RomanNumeral2Int.sol\":1608:1620  currentValue */\n      dup1\n        /* \"task1/RomanNumeral2Int.sol\":1598:1620  result += currentValue */\n      dup6\n      tag_28\n      swap2\n      swap1\n      tag_29\n      jump\t// in\n    tag_28:\n      swap5\n      pop\n        /* \"task1/RomanNumeral2Int.sol\":1489:1635  if (currentValue < prevValue) {... */\n    tag_27:\n        /* \"task1/RomanNumeral2Int.sol\":1661:1673  currentValue */\n      dup1\n        /* \"task1/RomanNumeral2Int.sol\":1649:1673  prevValue = currentValue */\n      swap4\n      pop\n        /* \"task1/RomanNumeral2Int.sol\":1285:1684  {... */\n      pop\n      pop\n        /* \"task1/RomanNumeral2Int.sol\":1280:1283  i-- */\n      dup1\n      dup1\n      tag_30\n      swap1\n      tag_31\n      jump\t// in\n    tag_30:\n      swap2\n      pop\n      pop\n        /* \"task1/RomanNumeral2Int.sol\":1248:1684  for (uint256 i = length; i > 0; i--) {... */\n      jump(tag_14)\n    tag_15:\n      pop\n        /* \"task1/RomanNumeral2Int.sol\":1701:1707  result */\n      dup2\n        /* \"task1/RomanNumeral2Int.sol\":1694:1707  return result */\n      swap5\n      pop\n      pop\n      pop\n      pop\n      pop\n        /* \"task1/RomanNumeral2Int.sol\":964:1714  function romanToInt(string memory roman) public view returns (uint256) {... */\n      swap2\n      swap1\n      pop\n      jump\t// out\n        /* \"#utility.yul\":7:82   */\n    tag_32:\n        /* \"#utility.yul\":40:46   */\n      0x00\n        /* \"#utility.yul\":73:75   */\n      0x40\n        /* \"#utility.yul\":67:76   */\n      mload\n        /* \"#utility.yul\":57:76   */\n      swap1\n      pop\n        /* \"#utility.yul\":7:82   */\n      swap1\n      jump\t// out\n        /* \"#utility.yul\":88:205   */\n    tag_33:\n        /* \"#utility.yul\":197:198   */\n      0x00\n        /* \"#utility.yul\":194:195   */\n      0x00\n        /* \"#utility.yul\":187:199   */\n      revert\n        /* \"#utility.yul\":211:328   */\n    tag_34:\n        /* \"#utility.yul\":320:321   */\n      0x00\n        /* \"#utility.yul\":317:318   */\n      0x00\n        /* \"#utility.yul\":310:322   */\n      revert\n        /* \"#utility.yul\":334:451   */\n    tag_35:\n        /* \"#utility.yul\":443:444   */\n      0x00\n        /* \"#utility.yul\":440:441   */\n      0x00\n        /* \"#utility.yul\":433:445   */\n      revert\n        /* \"#utility.yul\":457:574   */\n    tag_36:\n        /* \"#utility.yul\":566:567   */\n      0x00\n        /* \"#utility.yul\":563:564   */\n      0x00\n        /* \"#utility.yul\":556:568   */\n      revert\n        /* \"#utility.yul\":580:682   */\n    tag_37:\n        /* \"#utility.yul\":621:627   */\n      0x00\n        /* \"#utility.yul\":672:674   */\n      0x1f\n        /* \"#utility.yul\":668:675   */\n      not\n        /* \"#utility.yul\":663:665   */\n      0x1f\n        /* \"#utility.yul\":656:661   */\n      dup4\n        /* \"#utility.yul\":652:666   */\n      add\n        /* \"#utility.yul\":648:676   */\n      and\n        /* \"#utility.yul\":638:676   */\n      swap1\n      pop\n        /* \"#utility.yul\":580:682   */\n      swap2\n      swap1\n      pop\n      jump\t// out\n        /* \"#utility.yul\":688:868   */\n    tag_38:\n        /* \"#utility.yul\":736:813   */\n      0x4e487b7100000000000000000000000000000000000000000000000000000000\n        /* \"#utility.yul\":733:734   */\n      0x00\n        /* \"#utility.yul\":726:814   */\n      mstore\n        /* \"#utility.yul\":833:837   */\n      0x41\n        /* \"#utility.yul\":830:831   */\n      0x04\n        /* \"#utility.yul\":823:838   */\n      mstore\n        /* \"#utility.yul\":857:861   */\n      0x24\n        /* \"#utility.yul\":854:855   */\n      0x00\n        /* \"#utility.yul\":847:862   */\n      revert\n        /* \"#utility.yul\":874:1155   */\n    tag_39:\n        /* \"#utility.yul\":957:984   */\n      tag_62\n        /* \"#utility.yul\":979:983   */\n      dup3\n        /* \"#utility.yul\":957:984   */\n      tag_37\n      jump\t// in\n    tag_62:\n        /* \"#utility.yul\":949:955   */\n      dup2\n        /* \"#utility.yul\":945:985   */\n      add\n        /* \"#utility.yul\":1087:1093   */\n      dup2\n        /* \"#utility.yul\":1075:1085   */\n      dup2\n        /* \"#utility.yul\":1072:1094   */\n      lt\n        /* \"#utility.yul\":1051:1069   */\n      0xffffffffffffffff\n        /* \"#utility.yul\":1039:1049   */\n      dup3\n        /* \"#utility.yul\":1036:1070   */\n      gt\n        /* \"#utility.yul\":1033:1095   */\n      or\n        /* \"#utility.yul\":1030:1118   */\n      iszero\n      tag_63\n      jumpi\n        /* \"#utility.yul\":1098:1116   */\n      tag_64\n      tag_38\n      jump\t// in\n    tag_64:\n        /* \"#utility.yul\":1030:1118   */\n    tag_63:\n        /* \"#utility.yul\":1138:1148   */\n      dup1\n        /* \"#utility.yul\":1134:1136   */\n      0x40\n        /* \"#utility.yul\":1127:1149   */\n      mstore\n        /* \"#utility.yul\":917:1155   */\n      pop\n        /* \"#utility.yul\":874:1155   */\n      pop\n      pop\n      jump\t// out\n        /* \"#utility.yul\":1161:1290   */\n    tag_40:\n        /* \"#utility.yul\":1195:1201   */\n      0x00\n        /* \"#utility.yul\":1222:1242   */\n      tag_66\n      tag_32\n      jump\t// in\n    tag_66:\n        /* \"#utility.yul\":1212:1242   */\n      swap1\n      pop\n        /* \"#utility.yul\":1251:1284   */\n      tag_67\n        /* \"#utility.yul\":1279:1283   */\n      dup3\n        /* \"#utility.yul\":1271:1277   */\n      dup3\n        /* \"#utility.yul\":1251:1284   */\n      tag_39\n      jump\t// in\n    tag_67:\n        /* \"#utility.yul\":1161:1290   */\n      swap2\n      swap1\n      pop\n      jump\t// out\n        /* \"#utility.yul\":1296:1604   */\n    tag_41:\n        /* \"#utility.yul\":1358:1362   */\n      0x00\n        /* \"#utility.yul\":1448:1466   */\n      0xffffffffffffffff\n        /* \"#utility.yul\":1440:1446   */\n      dup3\n        /* \"#utility.yul\":1437:1467   */\n      gt\n        /* \"#utility.yul\":1434:1490   */\n      iszero\n      tag_69\n      jumpi\n        /* \"#utility.yul\":1470:1488   */\n      tag_70\n      tag_38\n      jump\t// in\n    tag_70:\n        /* \"#utility.yul\":1434:1490   */\n    tag_69:\n        /* \"#utility.yul\":1508:1537   */\n      tag_71\n        /* \"#utility.yul\":1530:1536   */\n      dup3\n        /* \"#utility.yul\":1508:1537   */\n      tag_37\n      jump\t// in\n    tag_71:\n        /* \"#utility.yul\":1500:1537   */\n      swap1\n      pop\n        /* \"#utility.yul\":1592:1596   */\n      0x20\n        /* \"#utility.yul\":1586:1590   */\n      dup2\n        /* \"#utility.yul\":1582:1597   */\n      add\n        /* \"#utility.yul\":1574:1597   */\n      swap1\n      pop\n        /* \"#utility.yul\":1296:1604   */\n      swap2\n      swap1\n      pop\n      jump\t// out\n        /* \"#utility.yul\":1610:1758   */\n    tag_42:\n        /* \"#utility.yul\":1708:1714   */\n      dup3\n        /* \"#utility.yul\":1703:1706   */\n      dup2\n        /* \"#utility.yul\":1698:1701   */\n      dup4\n        /* \"#utility.yul\":1685:1715   */\n      calldatacopy\n        /* \"#utility.yul\":1749:1750   */\n      0x00\n        /* \"#utility.yul\":1740:1746   */\n      dup4\n        /* \"#utility.yul\":1735:1738   */\n      dup4\n        /* \"#utility.yul\":1731:1747   */\n      add\n        /* \"#utility.yul\":1724:1751   */\n      mstore\n        /* \"#utility.yul\":1610:1758   */\n      pop\n      pop\n      pop\n      jump\t// out\n        /* \"#utility.yul\":1764:2189   */\n    tag_43:\n        /* \"#utility.yul\":1842:1847   */\n      0x00\n        /* \"#utility.yul\":1867:1933   */\n      tag_74\n        /* \"#utility.yul\":1883:1932   */\n      tag_75\n        /* \"#utility.yul\":1925:1931   */\n      dup5\n        /* \"#utility.yul\":1883:1932   */\n      tag_41\n      jump\t// in\n    tag_75:\n        /* \"#utility.yul\":1867:1933   */\n      tag_40\n      jump\t// in\n    tag_74:\n        /* \"#utility.yul\":1858:1933   */\n      swap1\n      pop\n        /* \"#utility.yul\":1956:1962   */\n      dup3\n        /* \"#utility.yul\":1949:1954   */\n      dup2\n        /* \"#utility.yul\":1942:1963   */\n      mstore\n        /* \"#utility.yul\":1994:1998   */\n      0x20\n        /* \"#utility.yul\":1987:1992   */\n      dup2\n        /* \"#utility.yul\":1983:1999   */\n      add\n        /* \"#utility.yul\":2032:2035   */\n      dup5\n        /* \"#utility.yul\":2023:2029   */\n      dup5\n        /* \"#utility.yul\":2018:2021   */\n      dup5\n        /* \"#utility.yul\":2014:2030   */\n      add\n        /* \"#utility.yul\":2011:2036   */\n      gt\n        /* \"#utility.yul\":2008:2120   */\n      iszero\n      tag_76\n      jumpi\n        /* \"#utility.yul\":2039:2118   */\n      tag_77\n      tag_36\n      jump\t// in\n    tag_77:\n        /* \"#utility.yul\":2008:2120   */\n    tag_76:\n        /* \"#utility.yul\":2129:2183   */\n      tag_78\n        /* \"#utility.yul\":2176:2182   */\n      dup5\n        /* \"#utility.yul\":2171:2174   */\n      dup3\n        /* \"#utility.yul\":2166:2169   */\n      dup6\n        /* \"#utility.yul\":2129:2183   */\n      tag_42\n      jump\t// in\n    tag_78:\n        /* \"#utility.yul\":1848:2189   */\n      pop\n        /* \"#utility.yul\":1764:2189   */\n      swap4\n      swap3\n      pop\n      pop\n      pop\n      jump\t// out\n        /* \"#utility.yul\":2209:2549   */\n    tag_44:\n        /* \"#utility.yul\":2265:2270   */\n      0x00\n        /* \"#utility.yul\":2314:2317   */\n      dup3\n        /* \"#utility.yul\":2307:2311   */\n      0x1f\n        /* \"#utility.yul\":2299:2305   */\n      dup4\n        /* \"#utility.yul\":2295:2312   */\n      add\n        /* \"#utility.yul\":2291:2318   */\n      slt\n        /* \"#utility.yul\":2281:2403   */\n      tag_80\n      jumpi\n        /* \"#utility.yul\":2322:2401   */\n      tag_81\n      tag_35\n      jump\t// in\n    tag_81:\n        /* \"#utility.yul\":2281:2403   */\n    tag_80:\n        /* \"#utility.yul\":2439:2445   */\n      dup2\n        /* \"#utility.yul\":2426:2446   */\n      calldataload\n        /* \"#utility.yul\":2464:2543   */\n      tag_82\n        /* \"#utility.yul\":2539:2542   */\n      dup5\n        /* \"#utility.yul\":2531:2537   */\n      dup3\n        /* \"#utility.yul\":2524:2528   */\n      0x20\n        /* \"#utility.yul\":2516:2522   */\n      dup7\n        /* \"#utility.yul\":2512:2529   */\n      add\n        /* \"#utility.yul\":2464:2543   */\n      tag_43\n      jump\t// in\n    tag_82:\n        /* \"#utility.yul\":2455:2543   */\n      swap2\n      pop\n        /* \"#utility.yul\":2271:2549   */\n      pop\n        /* \"#utility.yul\":2209:2549   */\n      swap3\n      swap2\n      pop\n      pop\n      jump\t// out\n        /* \"#utility.yul\":2555:3064   */\n    tag_6:\n        /* \"#utility.yul\":2624:2630   */\n      0x00\n        /* \"#utility.yul\":2673:2675   */\n      0x20\n        /* \"#utility.yul\":2661:2670   */\n      dup3\n        /* \"#utility.yul\":2652:2659   */\n      dup5\n        /* \"#utility.yul\":2648:2671   */\n      sub\n        /* \"#utility.yul\":2644:2676   */\n      slt\n        /* \"#utility.yul\":2641:2760   */\n      iszero\n      tag_84\n      jumpi\n        /* \"#utility.yul\":2679:2758   */\n      tag_85\n      tag_33\n      jump\t// in\n    tag_85:\n        /* \"#utility.yul\":2641:2760   */\n    tag_84:\n        /* \"#utility.yul\":2827:2828   */\n      0x00\n        /* \"#utility.yul\":2816:2825   */\n      dup3\n        /* \"#utility.yul\":2812:2829   */\n      add\n        /* \"#utility.yul\":2799:2830   */\n      calldataload\n        /* \"#utility.yul\":2857:2875   */\n      0xffffffffffffffff\n        /* \"#utility.yul\":2849:2855   */\n      dup2\n        /* \"#utility.yul\":2846:2876   */\n      gt\n        /* \"#utility.yul\":2843:2960   */\n      iszero\n      tag_86\n      jumpi\n        /* \"#utility.yul\":2879:2958   */\n      tag_87\n      tag_34\n      jump\t// in\n    tag_87:\n        /* \"#utility.yul\":2843:2960   */\n    tag_86:\n        /* \"#utility.yul\":2984:3047   */\n      tag_88\n        /* \"#utility.yul\":3039:3046   */\n      dup5\n        /* \"#utility.yul\":3030:3036   */\n      dup3\n        /* \"#utility.yul\":3019:3028   */\n      dup6\n        /* \"#utility.yul\":3015:3037   */\n      add\n        /* \"#utility.yul\":2984:3047   */\n      tag_44\n      jump\t// in\n    tag_88:\n        /* \"#utility.yul\":2974:3047   */\n      swap2\n      pop\n        /* \"#utility.yul\":2770:3057   */\n      pop\n        /* \"#utility.yul\":2555:3064   */\n      swap3\n      swap2\n      pop\n      pop\n      jump\t// out\n        /* \"#utility.yul\":3070:3147   */\n    tag_45:\n        /* \"#utility.yul\":3107:3114   */\n      0x00\n        /* \"#utility.yul\":3136:3141   */\n      dup2\n        /* \"#utility.yul\":3125:3141   */\n      swap1\n      pop\n        /* \"#utility.yul\":3070:3147   */\n      swap2\n      swap1\n      pop\n      jump\t// out\n        /* \"#utility.yul\":3153:3271   */\n    tag_46:\n        /* \"#utility.yul\":3240:3264   */\n      tag_91\n        /* \"#utility.yul\":3258:3263   */\n      dup2\n        /* \"#utility.yul\":3240:3264   */\n      tag_45\n      jump\t// in\n    tag_91:\n        /* \"#utility.yul\":3235:3238   */\n      dup3\n        /* \"#utility.yul\":3228:3265   */\n      mstore\n        /* \"#utility.yul\":3153:3271   */\n      pop\n      pop\n      jump\t// out\n        /* \"#utility.yul\":3277:3499   */\n    tag_9:\n        /* \"#utility.yul\":3370:3374   */\n      0x00\n        /* \"#utility.yul\":3408:3410   */\n      0x20\n        /* \"#utility.yul\":3397:3406   */\n      dup3\n        /* \"#utility.yul\":3393:3411   */\n      add\n        /* \"#utility.yul\":3385:3411   */\n      swap1\n      pop\n        /* \"#utility.yul\":3421:3492   */\n      tag_93\n        /* \"#utility.yul\":3489:3490   */\n      0x00\n        /* \"#utility.yul\":3478:3487   */\n      dup4\n        /* \"#utility.yul\":3474:3491   */\n      add\n        /* \"#utility.yul\":3465:3471   */\n      dup5\n        /* \"#utility.yul\":3421:3492   */\n      tag_46\n      jump\t// in\n    tag_93:\n        /* \"#utility.yul\":3277:3499   */\n      swap3\n      swap2\n      pop\n      pop\n      jump\t// out\n        /* \"#utility.yul\":3505:3674   */\n    tag_47:\n        /* \"#utility.yul\":3589:3600   */\n      0x00\n        /* \"#utility.yul\":3623:3629   */\n      dup3\n        /* \"#utility.yul\":3618:3621   */\n      dup3\n        /* \"#utility.yul\":3611:3630   */\n      mstore\n        /* \"#utility.yul\":3663:3667   */\n      0x20\n        /* \"#utility.yul\":3658:3661   */\n      dup3\n        /* \"#utility.yul\":3654:3668   */\n      add\n        /* \"#utility.yul\":3639:3668   */\n      swap1\n      pop\n        /* \"#utility.yul\":3505:3674   */\n      swap3\n      swap2\n      pop\n      pop\n      jump\t// out\n        /* \"#utility.yul\":3680:3842   */\n    tag_48:\n        /* \"#utility.yul\":3820:3834   */\n      0x456d70747920737472696e670000000000000000000000000000000000000000\n        /* \"#utility.yul\":3816:3817   */\n      0x00\n        /* \"#utility.yul\":3808:3814   */\n      dup3\n        /* \"#utility.yul\":3804:3818   */\n      add\n        /* \"#utility.yul\":3797:3835   */\n      mstore\n        /* \"#utility.yul\":3680:3842   */\n      pop\n      jump\t// out\n        /* \"#utility.yul\":3848:4214   */\n    tag_49:\n        /* \"#utility.yul\":3990:3993   */\n      0x00\n        /* \"#utility.yul\":4011:4078   */\n      tag_97\n        /* \"#utility.yul\":4075:4077   */\n      0x0c\n        /* \"#utility.yul\":4070:4073   */\n      dup4\n        /* \"#utility.yul\":4011:4078   */\n      tag_47\n      jump\t// in\n    tag_97:\n        /* \"#utility.yul\":4004:4078   */\n      swap2\n      pop\n        /* \"#utility.yul\":4087:4180   */\n      tag_98\n        /* \"#utility.yul\":4176:4179   */\n      dup3\n        /* \"#utility.yul\":4087:4180   */\n      tag_48\n      jump\t// in\n    tag_98:\n        /* \"#utility.yul\":4205:4207   */\n      0x20\n        /* \"#utility.yul\":4200:4203   */\n      dup3\n        /* \"#utility.yul\":4196:4208   */\n      add\n        /* \"#utility.yul\":4189:4208   */\n      swap1\n      pop\n        /* \"#utility.yul\":3848:4214   */\n      swap2\n      swap1\n      pop\n      jump\t// out\n        /* \"#utility.yul\":4220:4639   */\n    tag_13:\n        /* \"#utility.yul\":4386:4390   */\n      0x00\n        /* \"#utility.yul\":4424:4426   */\n      0x20\n        /* \"#utility.yul\":4413:4422   */\n      dup3\n        /* \"#utility.yul\":4409:4427   */\n      add\n        /* \"#utility.yul\":4401:4427   */\n      swap1\n      pop\n        /* \"#utility.yul\":4473:4482   */\n      dup2\n        /* \"#utility.yul\":4467:4471   */\n      dup2\n        /* \"#utility.yul\":4463:4483   */\n      sub\n        /* \"#utility.yul\":4459:4460   */\n      0x00\n        /* \"#utility.yul\":4448:4457   */\n      dup4\n        /* \"#utility.yul\":4444:4461   */\n      add\n        /* \"#utility.yul\":4437:4484   */\n      mstore\n        /* \"#utility.yul\":4501:4632   */\n      tag_100\n        /* \"#utility.yul\":4627:4631   */\n      dup2\n        /* \"#utility.yul\":4501:4632   */\n      tag_49\n      jump\t// in\n    tag_100:\n        /* \"#utility.yul\":4493:4632   */\n      swap1\n      pop\n        /* \"#utility.yul\":4220:4639   */\n      swap2\n      swap1\n      pop\n      jump\t// out\n        /* \"#utility.yul\":4645:4825   */\n    tag_50:\n        /* \"#utility.yul\":4693:4770   */\n      0x4e487b7100000000000000000000000000000000000000000000000000000000\n        /* \"#utility.yul\":4690:4691   */\n      0x00\n        /* \"#utility.yul\":4683:4771   */\n      mstore\n        /* \"#utility.yul\":4790:4794   */\n      0x11\n        /* \"#utility.yul\":4787:4788   */\n      0x04\n        /* \"#utility.yul\":4780:4795   */\n      mstore\n        /* \"#utility.yul\":4814:4818   */\n      0x24\n        /* \"#utility.yul\":4811:4812   */\n      0x00\n        /* \"#utility.yul\":4804:4819   */\n      revert\n        /* \"#utility.yul\":4831:5025   */\n    tag_18:\n        /* \"#utility.yul\":4871:4875   */\n      0x00\n        /* \"#utility.yul\":4891:4911   */\n      tag_103\n        /* \"#utility.yul\":4909:4910   */\n      dup3\n        /* \"#utility.yul\":4891:4911   */\n      tag_45\n      jump\t// in\n    tag_103:\n        /* \"#utility.yul\":4886:4911   */\n      swap2\n      pop\n        /* \"#utility.yul\":4925:4945   */\n      tag_104\n        /* \"#utility.yul\":4943:4944   */\n      dup4\n        /* \"#utility.yul\":4925:4945   */\n      tag_45\n      jump\t// in\n    tag_104:\n        /* \"#utility.yul\":4920:4945   */\n      swap3\n      pop\n        /* \"#utility.yul\":4969:4970   */\n      dup3\n        /* \"#utility.yul\":4966:4967   */\n      dup3\n        /* \"#utility.yul\":4962:4971   */\n      sub\n        /* \"#utility.yul\":4954:4971   */\n      swap1\n      pop\n        /* \"#utility.yul\":4993:4994   */\n      dup2\n        /* \"#utility.yul\":4987:4991   */\n      dup2\n        /* \"#utility.yul\":4984:4995   */\n      gt\n        /* \"#utility.yul\":4981:5018   */\n      iszero\n      tag_105\n      jumpi\n        /* \"#utility.yul\":4998:5016   */\n      tag_106\n      tag_50\n      jump\t// in\n    tag_106:\n        /* \"#utility.yul\":4981:5018   */\n    tag_105:\n        /* \"#utility.yul\":4831:5025   */\n      swap3\n      swap2\n      pop\n      pop\n      jump\t// out\n        /* \"#utility.yul\":5031:5211   */\n    tag_21:\n        /* \"#utility.yul\":5079:5156   */\n      0x4e487b7100000000000000000000000000000000000000000000000000000000\n        /* \"#utility.yul\":5076:5077   */\n      0x00\n        /* \"#utility.yul\":5069:5157   */\n      mstore\n        /* \"#utility.yul\":5176:5180   */\n      0x32\n        /* \"#utility.yul\":5173:5174   */\n      0x04\n        /* \"#utility.yul\":5166:5181   */\n      mstore\n        /* \"#utility.yul\":5200:5204   */\n      0x24\n        /* \"#utility.yul\":5197:5198   */\n      0x00\n        /* \"#utility.yul\":5190:5205   */\n      revert\n        /* \"#utility.yul\":5217:5398   */\n    tag_51:\n        /* \"#utility.yul\":5357:5390   */\n      0x496e76616c696420526f6d616e206e756d6572616c2063686172616374657200\n        /* \"#utility.yul\":5353:5354   */\n      0x00\n        /* \"#utility.yul\":5345:5351   */\n      dup3\n        /* \"#utility.yul\":5341:5355   */\n      add\n        /* \"#utility.yul\":5334:5391   */\n      mstore\n        /* \"#utility.yul\":5217:5398   */\n      pop\n      jump\t// out\n        /* \"#utility.yul\":5404:5770   */\n    tag_52:\n        /* \"#utility.yul\":5546:5549   */\n      0x00\n        /* \"#utility.yul\":5567:5634   */\n      tag_110\n        /* \"#utility.yul\":5631:5633   */\n      0x1f\n        /* \"#utility.yul\":5626:5629   */\n      dup4\n        /* \"#utility.yul\":5567:5634   */\n      tag_47\n      jump\t// in\n    tag_110:\n        /* \"#utility.yul\":5560:5634   */\n      swap2\n      pop\n        /* \"#utility.yul\":5643:5736   */\n      tag_111\n        /* \"#utility.yul\":5732:5735   */\n      dup3\n        /* \"#utility.yul\":5643:5736   */\n      tag_51\n      jump\t// in\n    tag_111:\n        /* \"#utility.yul\":5761:5763   */\n      0x20\n        /* \"#utility.yul\":5756:5759   */\n      dup3\n        /* \"#utility.yul\":5752:5764   */\n      add\n        /* \"#utility.yul\":5745:5764   */\n      swap1\n      pop\n        /* \"#utility.yul\":5404:5770   */\n      swap2\n      swap1\n      pop\n      jump\t// out\n        /* \"#utility.yul\":5776:6195   */\n    tag_24:\n        /* \"#utility.yul\":5942:5946   */\n      0x00\n        /* \"#utility.yul\":5980:5982   */\n      0x20\n        /* \"#utility.yul\":5969:5978   */\n      dup3\n        /* \"#utility.yul\":5965:5983   */\n      add\n        /* \"#utility.yul\":5957:5983   */\n      swap1\n      pop\n        /* \"#utility.yul\":6029:6038   */\n      dup2\n        /* \"#utility.yul\":6023:6027   */\n      dup2\n        /* \"#utility.yul\":6019:6039   */\n      sub\n        /* \"#utility.yul\":6015:6016   */\n      0x00\n        /* \"#utility.yul\":6004:6013   */\n      dup4\n        /* \"#utility.yul\":6000:6017   */\n      add\n        /* \"#utility.yul\":5993:6040   */\n      mstore\n        /* \"#utility.yul\":6057:6188   */\n      tag_113\n        /* \"#utility.yul\":6183:6187   */\n      dup2\n        /* \"#utility.yul\":6057:6188   */\n      tag_52\n      jump\t// in\n    tag_113:\n        /* \"#utility.yul\":6049:6188   */\n      swap1\n      pop\n        /* \"#utility.yul\":5776:6195   */\n      swap2\n      swap1\n      pop\n      jump\t// out\n        /* \"#utility.yul\":6201:6392   */\n    tag_29:\n        /* \"#utility.yul\":6241:6244   */\n      0x00\n        /* \"#utility.yul\":6260:6280   */\n      tag_115\n        /* \"#utility.yul\":6278:6279   */\n      dup3\n        /* \"#utility.yul\":6260:6280   */\n      tag_45\n      jump\t// in\n    tag_115:\n        /* \"#utility.yul\":6255:6280   */\n      swap2\n      pop\n        /* \"#utility.yul\":6294:6314   */\n      tag_116\n        /* \"#utility.yul\":6312:6313   */\n      dup4\n        /* \"#utility.yul\":6294:6314   */\n      tag_45\n      jump\t// in\n    tag_116:\n        /* \"#utility.yul\":6289:6314   */\n      swap3\n      pop\n        /* \"#utility.yul\":6337:6338   */\n      dup3\n        /* \"#utility.yul\":6334:6335   */\n      dup3\n        /* \"#utility.yul\":6330:6339   */\n      add\n        /* \"#utility.yul\":6323:6339   */\n      swap1\n      pop\n        /* \"#utility.yul\":6358:6361   */\n      dup1\n        /* \"#utility.yul\":6355:6356   */\n      dup3\n        /* \"#utility.yul\":6352:6362   */\n      gt\n        /* \"#utility.yul\":6349:6385   */\n      iszero\n      tag_117\n      jumpi\n        /* \"#utility.yul\":6365:6383   */\n      tag_118\n      tag_50\n      jump\t// in\n    tag_118:\n        /* \"#utility.yul\":6349:6385   */\n    tag_117:\n        /* \"#utility.yul\":6201:6392   */\n      swap3\n      swap2\n      pop\n      pop\n      jump\t// out\n        /* \"#utility.yul\":6398:6569   */\n    tag_31:\n        /* \"#utility.yul\":6437:6440   */\n      0x00\n        /* \"#utility.yul\":6460:6484   */\n      tag_120\n        /* \"#utility.yul\":6478:6483   */\n      dup3\n        /* \"#utility.yul\":6460:6484   */\n      tag_45\n      jump\t// in\n    tag_120:\n        /* \"#utility.yul\":6451:6484   */\n      swap2\n      pop\n        /* \"#utility.yul\":6506:6510   */\n      0x00\n        /* \"#utility.yul\":6499:6504   */\n      dup3\n        /* \"#utility.yul\":6496:6511   */\n      sub\n        /* \"#utility.yul\":6493:6534   */\n      tag_121\n      jumpi\n        /* \"#utility.yul\":6514:6532   */\n      tag_122\n      tag_50\n      jump\t// in\n    tag_122:\n        /* \"#utility.yul\":6493:6534   */\n    tag_121:\n        /* \"#utility.yul\":6561:6562   */\n      0x01\n        /* \"#utility.yul\":6554:6559   */\n      dup3\n        /* \"#utility.yul\":6550:6563   */\n      sub\n        /* \"#utility.yul\":6543:6563   */\n      swap1\n      pop\n        /* \"#utility.yul\":6398:6569   */\n      swap2\n      swap1\n      pop\n      jump\t// out\n\n    auxdata: 0xa264697066735822122042d5f8f23cc49bdd1bdc477bb09e96660295068ce7ecca87a3d7ed5d639fe4c964736f6c634300081e0033\n}\n",
				"bytecode": {
					"linkReferences": {},
					"object": "608060405234801561000f575f5ffd5b5060015f5f7f49000000000000000000000000000000000000000000000000000000000000007effffffffffffffffffffffffffffffffffffffffffffffffffffffffffffff191681526020019081526020015f208190555060055f5f7f56000000000000000000000000000000000000000000000000000000000000007effffffffffffffffffffffffffffffffffffffffffffffffffffffffffffff191681526020019081526020015f2081905550600a5f5f7f58000000000000000000000000000000000000000000000000000000000000007effffffffffffffffffffffffffffffffffffffffffffffffffffffffffffff191681526020019081526020015f208190555060325f5f7f4c000000000000000000000000000000000000000000000000000000000000007effffffffffffffffffffffffffffffffffffffffffffffffffffffffffffff191681526020019081526020015f208190555060645f5f7f43000000000000000000000000000000000000000000000000000000000000007effffffffffffffffffffffffffffffffffffffffffffffffffffffffffffff191681526020019081526020015f20819055506101f45f5f7f44000000000000000000000000000000000000000000000000000000000000007effffffffffffffffffffffffffffffffffffffffffffffffffffffffffffff191681526020019081526020015f20819055506103e85f5f7f4d000000000000000000000000000000000000000000000000000000000000007effffffffffffffffffffffffffffffffffffffffffffffffffffffffffffff191681526020019081526020015f2081905550610596806102875f395ff3fe608060405234801561000f575f5ffd5b5060043610610029575f3560e01c8063cb159dfe1461002d575b5f5ffd5b61004760048036038101906100429190610321565b61005d565b6040516100549190610380565b60405180910390f35b5f5f8290505f815190505f81036100a9576040517f08c379a00000000000000000000000000000000000000000000000000000000081526004016100a0906103f3565b60405180910390fd5b5f5f90505f5f90505f8390505b5f8111156101c7575f856001836100cd919061043e565b815181106100de576100dd610471565b5b602001015160f81c60f81b90505f5f5f837effffffffffffffffffffffffffffffffffffffffffffffffffffffffffffff19167effffffffffffffffffffffffffffffffffffffffffffffffffffffffffffff191681526020019081526020015f205490505f8103610185576040517f08c379a000000000000000000000000000000000000000000000000000000000815260040161017c906104e8565b60405180910390fd5b838110156101a0578085610199919061043e565b94506101af565b80856101ac9190610506565b94505b809350505080806101bf90610539565b9150506100b6565b5081945050505050919050565b5f604051905090565b5f5ffd5b5f5ffd5b5f5ffd5b5f5ffd5b5f601f19601f8301169050919050565b7f4e487b71000000000000000000000000000000000000000000000000000000005f52604160045260245ffd5b610233826101ed565b810181811067ffffffffffffffff82111715610252576102516101fd565b5b80604052505050565b5f6102646101d4565b9050610270828261022a565b919050565b5f67ffffffffffffffff82111561028f5761028e6101fd565b5b610298826101ed565b9050602081019050919050565b828183375f83830152505050565b5f6102c56102c084610275565b61025b565b9050828152602081018484840111156102e1576102e06101e9565b5b6102ec8482856102a5565b509392505050565b5f82601f830112610308576103076101e5565b5b81356103188482602086016102b3565b91505092915050565b5f60208284031215610336576103356101dd565b5b5f82013567ffffffffffffffff811115610353576103526101e1565b5b61035f848285016102f4565b91505092915050565b5f819050919050565b61037a81610368565b82525050565b5f6020820190506103935f830184610371565b92915050565b5f82825260208201905092915050565b7f456d70747920737472696e6700000000000000000000000000000000000000005f82015250565b5f6103dd600c83610399565b91506103e8826103a9565b602082019050919050565b5f6020820190508181035f83015261040a816103d1565b9050919050565b7f4e487b71000000000000000000000000000000000000000000000000000000005f52601160045260245ffd5b5f61044882610368565b915061045383610368565b925082820390508181111561046b5761046a610411565b5b92915050565b7f4e487b71000000000000000000000000000000000000000000000000000000005f52603260045260245ffd5b7f496e76616c696420526f6d616e206e756d6572616c20636861726163746572005f82015250565b5f6104d2601f83610399565b91506104dd8261049e565b602082019050919050565b5f6020820190508181035f8301526104ff816104c6565b9050919050565b5f61051082610368565b915061051b83610368565b925082820190508082111561053357610532610411565b5b92915050565b5f61054382610368565b91505f820361055557610554610411565b5b60018203905091905056fea264697066735822122042d5f8f23cc49bdd1bdc477bb09e96660295068ce7ecca87a3d7ed5d639fe4c964736f6c634300081e0033",
					"opcodes": "PUSH1 0x80 PUSH1 0x40 MSTORE CALLVALUE DUP1 ISZERO PUSH2 0xF JUMPI PUSH0 PUSH0 REVERT JUMPDEST POP PUSH1 0x1 PUSH0 PUSH0 PUSH32 0x4900000000000000000000000000000000000000000000000000000000000000 PUSH31 0xFFFFFFFFFFFFFFFFFFFFFFFFFFFFFFFFFFFFFFFFFFFFFFFFFFFFFFFFFFFFFF NOT AND DUP2 MSTORE PUSH1 0x20 ADD SWAP1 DUP2 MSTORE PUSH1 0x20 ADD PUSH0 KECCAK256 DUP2 SWAP1 SSTORE POP PUSH1 0x5 PUSH0 PUSH0 PUSH32 0x5600000000000000000000000000000000000000000000000000000000000000 PUSH31 0xFFFFFFFFFFFFFFFFFFFFFFFFFFFFFFFFFFFFFFFFFFFFFFFFFFFFFFFFFFFFFF NOT AND DUP2 MSTORE PUSH1 0x20 ADD SWAP1 DUP2 MSTORE PUSH1 0x20 ADD PUSH0 KECCAK256 DUP2 SWAP1 SSTORE POP PUSH1 0xA PUSH0 PUSH0 PUSH32 0x5800000000000000000000000000000000000000000000000000000000000000 PUSH31 0xFFFFFFFFFFFFFFFFFFFFFFFFFFFFFFFFFFFFFFFFFFFFFFFFFFFFFFFFFFFFFF NOT AND DUP2 MSTORE PUSH1 0x20 ADD SWAP1 DUP2 MSTORE PUSH1 0x20 ADD PUSH0 KECCAK256 DUP2 SWAP1 SSTORE POP PUSH1 0x32 PUSH0 PUSH0 PUSH32 0x4C00000000000000000000000000000000000000000000000000000000000000 PUSH31 0xFFFFFFFFFFFFFFFFFFFFFFFFFFFFFFFFFFFFFFFFFFFFFFFFFFFFFFFFFFFFFF NOT AND DUP2 MSTORE PUSH1 0x20 ADD SWAP1 DUP2 MSTORE PUSH1 0x20 ADD PUSH0 KECCAK256 DUP2 SWAP1 SSTORE POP PUSH1 0x64 PUSH0 PUSH0 PUSH32 0x4300000000000000000000000000000000000000000000000000000000000000 PUSH31 0xFFFFFFFFFFFFFFFFFFFFFFFFFFFFFFFFFFFFFFFFFFFFFFFFFFFFFFFFFFFFFF NOT AND DUP2 MSTORE PUSH1 0x20 ADD SWAP1 DUP2 MSTORE PUSH1 0x20 ADD PUSH0 KECCAK256 DUP2 SWAP1 SSTORE POP PUSH2 0x1F4 PUSH0 PUSH0 PUSH32 0x4400000000000000000000000000000000000000000000000000000000000000 PUSH31 0xFFFFFFFFFFFFFFFFFFFFFFFFFFFFFFFFFFFFFFFFFFFFFFFFFFFFFFFFFFFFFF NOT AND DUP2 MSTORE PUSH1 0x20 ADD SWAP1 DUP2 MSTORE PUSH1 0x20 ADD PUSH0 KECCAK256 DUP2 SWAP1 SSTORE POP PUSH2 0x3E8 PUSH0 PUSH0 PUSH32 0x4D00000000000000000000000000000000000000000000000000000000000000 PUSH31 0xFFFFFFFFFFFFFFFFFFFFFFFFFFFFFFFFFFFFFFFFFFFFFFFFFFFFFFFFFFFFFF NOT AND DUP2 MSTORE PUSH1 0x20 ADD SWAP1 DUP2 MSTORE PUSH1 0x20 ADD PUSH0 KECCAK256 DUP2 SWAP1 SSTORE POP PUSH2 0x596 DUP1 PUSH2 0x287 PUSH0 CODECOPY PUSH0 RETURN INVALID PUSH1 0x80 PUSH1 0x40 MSTORE CALLVALUE DUP1 ISZERO PUSH2 0xF JUMPI PUSH0 PUSH0 REVERT JUMPDEST POP PUSH1 0x4 CALLDATASIZE LT PUSH2 0x29 JUMPI PUSH0 CALLDATALOAD PUSH1 0xE0 SHR DUP1 PUSH4 0xCB159DFE EQ PUSH2 0x2D JUMPI JUMPDEST PUSH0 PUSH0 REVERT JUMPDEST PUSH2 0x47 PUSH1 0x4 DUP1 CALLDATASIZE SUB DUP2 ADD SWAP1 PUSH2 0x42 SWAP2 SWAP1 PUSH2 0x321 JUMP JUMPDEST PUSH2 0x5D JUMP JUMPDEST PUSH1 0x40 MLOAD PUSH2 0x54 SWAP2 SWAP1 PUSH2 0x380 JUMP JUMPDEST PUSH1 0x40 MLOAD DUP1 SWAP2 SUB SWAP1 RETURN JUMPDEST PUSH0 PUSH0 DUP3 SWAP1 POP PUSH0 DUP2 MLOAD SWAP1 POP PUSH0 DUP2 SUB PUSH2 0xA9 JUMPI PUSH1 0x40 MLOAD PUSH32 0x8C379A000000000000000000000000000000000000000000000000000000000 DUP2 MSTORE PUSH1 0x4 ADD PUSH2 0xA0 SWAP1 PUSH2 0x3F3 JUMP JUMPDEST PUSH1 0x40 MLOAD DUP1 SWAP2 SUB SWAP1 REVERT JUMPDEST PUSH0 PUSH0 SWAP1 POP PUSH0 PUSH0 SWAP1 POP PUSH0 DUP4 SWAP1 POP JUMPDEST PUSH0 DUP2 GT ISZERO PUSH2 0x1C7 JUMPI PUSH0 DUP6 PUSH1 0x1 DUP4 PUSH2 0xCD SWAP2 SWAP1 PUSH2 0x43E JUMP JUMPDEST DUP2 MLOAD DUP2 LT PUSH2 0xDE JUMPI PUSH2 0xDD PUSH2 0x471 JUMP JUMPDEST JUMPDEST PUSH1 0x20 ADD ADD MLOAD PUSH1 0xF8 SHR PUSH1 0xF8 SHL SWAP1 POP PUSH0 PUSH0 PUSH0 DUP4 PUSH31 0xFFFFFFFFFFFFFFFFFFFFFFFFFFFFFFFFFFFFFFFFFFFFFFFFFFFFFFFFFFFFFF NOT AND PUSH31 0xFFFFFFFFFFFFFFFFFFFFFFFFFFFFFFFFFFFFFFFFFFFFFFFFFFFFFFFFFFFFFF NOT AND DUP2 MSTORE PUSH1 0x20 ADD SWAP1 DUP2 MSTORE PUSH1 0x20 ADD PUSH0 KECCAK256 SLOAD SWAP1 POP PUSH0 DUP2 SUB PUSH2 0x185 JUMPI PUSH1 0x40 MLOAD PUSH32 0x8C379A000000000000000000000000000000000000000000000000000000000 DUP2 MSTORE PUSH1 0x4 ADD PUSH2 0x17C SWAP1 PUSH2 0x4E8 JUMP JUMPDEST PUSH1 0x40 MLOAD DUP1 SWAP2 SUB SWAP1 REVERT JUMPDEST DUP4 DUP2 LT ISZERO PUSH2 0x1A0 JUMPI DUP1 DUP6 PUSH2 0x199 SWAP2 SWAP1 PUSH2 0x43E JUMP JUMPDEST SWAP5 POP PUSH2 0x1AF JUMP JUMPDEST DUP1 DUP6 PUSH2 0x1AC SWAP2 SWAP1 PUSH2 0x506 JUMP JUMPDEST SWAP5 POP JUMPDEST DUP1 SWAP4 POP POP POP DUP1 DUP1 PUSH2 0x1BF SWAP1 PUSH2 0x539 JUMP JUMPDEST SWAP2 POP POP PUSH2 0xB6 JUMP JUMPDEST POP DUP2 SWAP5 POP POP POP POP POP SWAP2 SWAP1 POP JUMP JUMPDEST PUSH0 PUSH1 0x40 MLOAD SWAP1 POP SWAP1 JUMP JUMPDEST PUSH0 PUSH0 REVERT JUMPDEST PUSH0 PUSH0 REVERT JUMPDEST PUSH0 PUSH0 REVERT JUMPDEST PUSH0 PUSH0 REVERT JUMPDEST PUSH0 PUSH1 0x1F NOT PUSH1 0x1F DUP4 ADD AND SWAP1 POP SWAP2 SWAP1 POP JUMP JUMPDEST PUSH32 0x4E487B7100000000000000000000000000000000000000000000000000000000 PUSH0 MSTORE PUSH1 0x41 PUSH1 0x4 MSTORE PUSH1 0x24 PUSH0 REVERT JUMPDEST PUSH2 0x233 DUP3 PUSH2 0x1ED JUMP JUMPDEST DUP2 ADD DUP2 DUP2 LT PUSH8 0xFFFFFFFFFFFFFFFF DUP3 GT OR ISZERO PUSH2 0x252 JUMPI PUSH2 0x251 PUSH2 0x1FD JUMP JUMPDEST JUMPDEST DUP1 PUSH1 0x40 MSTORE POP POP POP JUMP JUMPDEST PUSH0 PUSH2 0x264 PUSH2 0x1D4 JUMP JUMPDEST SWAP1 POP PUSH2 0x270 DUP3 DUP3 PUSH2 0x22A JUMP JUMPDEST SWAP2 SWAP1 POP JUMP JUMPDEST PUSH0 PUSH8 0xFFFFFFFFFFFFFFFF DUP3 GT ISZERO PUSH2 0x28F JUMPI PUSH2 0x28E PUSH2 0x1FD JUMP JUMPDEST JUMPDEST PUSH2 0x298 DUP3 PUSH2 0x1ED JUMP JUMPDEST SWAP1 POP PUSH1 0x20 DUP2 ADD SWAP1 POP SWAP2 SWAP1 POP JUMP JUMPDEST DUP3 DUP2 DUP4 CALLDATACOPY PUSH0 DUP4 DUP4 ADD MSTORE POP POP POP JUMP JUMPDEST PUSH0 PUSH2 0x2C5 PUSH2 0x2C0 DUP5 PUSH2 0x275 JUMP JUMPDEST PUSH2 0x25B JUMP JUMPDEST SWAP1 POP DUP3 DUP2 MSTORE PUSH1 0x20 DUP2 ADD DUP5 DUP5 DUP5 ADD GT ISZERO PUSH2 0x2E1 JUMPI PUSH2 0x2E0 PUSH2 0x1E9 JUMP JUMPDEST JUMPDEST PUSH2 0x2EC DUP5 DUP3 DUP6 PUSH2 0x2A5 JUMP JUMPDEST POP SWAP4 SWAP3 POP POP POP JUMP JUMPDEST PUSH0 DUP3 PUSH1 0x1F DUP4 ADD SLT PUSH2 0x308 JUMPI PUSH2 0x307 PUSH2 0x1E5 JUMP JUMPDEST JUMPDEST DUP2 CALLDATALOAD PUSH2 0x318 DUP5 DUP3 PUSH1 0x20 DUP7 ADD PUSH2 0x2B3 JUMP JUMPDEST SWAP2 POP POP SWAP3 SWAP2 POP POP JUMP JUMPDEST PUSH0 PUSH1 0x20 DUP3 DUP5 SUB SLT ISZERO PUSH2 0x336 JUMPI PUSH2 0x335 PUSH2 0x1DD JUMP JUMPDEST JUMPDEST PUSH0 DUP3 ADD CALLDATALOAD PUSH8 0xFFFFFFFFFFFFFFFF DUP2 GT ISZERO PUSH2 0x353 JUMPI PUSH2 0x352 PUSH2 0x1E1 JUMP JUMPDEST JUMPDEST PUSH2 0x35F DUP5 DUP3 DUP6 ADD PUSH2 0x2F4 JUMP JUMPDEST SWAP2 POP POP SWAP3 SWAP2 POP POP JUMP JUMPDEST PUSH0 DUP2 SWAP1 POP SWAP2 SWAP1 POP JUMP JUMPDEST PUSH2 0x37A DUP2 PUSH2 0x368 JUMP JUMPDEST DUP3 MSTORE POP POP JUMP JUMPDEST PUSH0 PUSH1 0x20 DUP3 ADD SWAP1 POP PUSH2 0x393 PUSH0 DUP4 ADD DUP5 PUSH2 0x371 JUMP JUMPDEST SWAP3 SWAP2 POP POP JUMP JUMPDEST PUSH0 DUP3 DUP3 MSTORE PUSH1 0x20 DUP3 ADD SWAP1 POP SWAP3 SWAP2 POP POP JUMP JUMPDEST PUSH32 0x456D70747920737472696E670000000000000000000000000000000000000000 PUSH0 DUP3 ADD MSTORE POP JUMP JUMPDEST PUSH0 PUSH2 0x3DD PUSH1 0xC DUP4 PUSH2 0x399 JUMP JUMPDEST SWAP2 POP PUSH2 0x3E8 DUP3 PUSH2 0x3A9 JUMP JUMPDEST PUSH1 0x20 DUP3 ADD SWAP1 POP SWAP2 SWAP1 POP JUMP JUMPDEST PUSH0 PUSH1 0x20 DUP3 ADD SWAP1 POP DUP2 DUP2 SUB PUSH0 DUP4 ADD MSTORE PUSH2 0x40A DUP2 PUSH2 0x3D1 JUMP JUMPDEST SWAP1 POP SWAP2 SWAP1 POP JUMP JUMPDEST PUSH32 0x4E487B7100000000000000000000000000000000000000000000000000000000 PUSH0 MSTORE PUSH1 0x11 PUSH1 0x4 MSTORE PUSH1 0x24 PUSH0 REVERT JUMPDEST PUSH0 PUSH2 0x448 DUP3 PUSH2 0x368 JUMP JUMPDEST SWAP2 POP PUSH2 0x453 DUP4 PUSH2 0x368 JUMP JUMPDEST SWAP3 POP DUP3 DUP3 SUB SWAP1 POP DUP2 DUP2 GT ISZERO PUSH2 0x46B JUMPI PUSH2 0x46A PUSH2 0x411 JUMP JUMPDEST JUMPDEST SWAP3 SWAP2 POP POP JUMP JUMPDEST PUSH32 0x4E487B7100000000000000000000000000000000000000000000000000000000 PUSH0 MSTORE PUSH1 0x32 PUSH1 0x4 MSTORE PUSH1 0x24 PUSH0 REVERT JUMPDEST PUSH32 0x496E76616C696420526F6D616E206E756D6572616C2063686172616374657200 PUSH0 DUP3 ADD MSTORE POP JUMP JUMPDEST PUSH0 PUSH2 0x4D2 PUSH1 0x1F DUP4 PUSH2 0x399 JUMP JUMPDEST SWAP2 POP PUSH2 0x4DD DUP3 PUSH2 0x49E JUMP JUMPDEST PUSH1 0x20 DUP3 ADD SWAP1 POP SWAP2 SWAP1 POP JUMP JUMPDEST PUSH0 PUSH1 0x20 DUP3 ADD SWAP1 POP DUP2 DUP2 SUB PUSH0 DUP4 ADD MSTORE PUSH2 0x4FF DUP2 PUSH2 0x4C6 JUMP JUMPDEST SWAP1 POP SWAP2 SWAP1 POP JUMP JUMPDEST PUSH0 PUSH2 0x510 DUP3 PUSH2 0x368 JUMP JUMPDEST SWAP2 POP PUSH2 0x51B DUP4 PUSH2 0x368 JUMP JUMPDEST SWAP3 POP DUP3 DUP3 ADD SWAP1 POP DUP1 DUP3 GT ISZERO PUSH2 0x533 JUMPI PUSH2 0x532 PUSH2 0x411 JUMP JUMPDEST JUMPDEST SWAP3 SWAP2 POP POP JUMP JUMPDEST PUSH0 PUSH2 0x543 DUP3 PUSH2 0x368 JUMP JUMPDEST SWAP2 POP PUSH0 DUP3 SUB PUSH2 0x555 JUMPI PUSH2 0x554 PUSH2 0x411 JUMP JUMPDEST JUMPDEST PUSH1 0x1 DUP3 SUB SWAP1 POP SWAP2 SWAP1 POP JUMP INVALID LOG2 PUSH5 0x6970667358 0x22 SLT KECCAK256 TIMESTAMP 0xD5 EXTCALL CALLCODE EXTCODECOPY 0xC4 SWAP12 0xDD SHL 0xDC SELFBALANCE PUSH28 0xB09E96660295068CE7ECCA87A3D7ED5D639FE4C964736F6C63430008 0x1E STOP CALLER "
				},
				"gasEstimates": {
					"creation": {
						"codeDepositCost": "286000",
						"executionCost": "155708",
						"totalCost": "441708"
					},
					"external": {
						"romanToInt(string)": "infinite"
					}
				},
				"methodIdentifiers": {
					"romanToInt(string)": "cb159dfe"
				}
			},
			"storageLayout": {
				"storage": [
					{
						"astId": 5,
						"contract": "task1/RomanNumeral2Int.sol:RomanNumeral2Int",
						"label": "romanMap",
						"offset": 0,
						"slot": "0",
						"type": "t_mapping(t_bytes1,t_uint256)"
					}
				],
				"types": {
					"t_bytes1": {
						"encoding": "inplace",
						"label": "bytes1",
						"numberOfBytes": "1"
					},
					"t_mapping(t_bytes1,t_uint256)": {
						"encoding": "mapping",
						"key": "t_bytes1",
						"label": "mapping(bytes1 => uint256)",
						"numberOfBytes": "32",
						"value": "t_uint256"
					},
					"t_uint256": {
						"encoding": "inplace",
						"label": "uint256",
						"numberOfBytes": "32"
					}
				}
			},
			"userdoc": {
				"kind": "user",
				"methods": {},
				"version": 1
			}
		}
	}
}