{
	"data": {
		"bytecode": {
			"linkReferences": {},
			"object": "6080604052348015600e575f5ffd5b50610cbd8061001c5f395ff3fe608060405234801561000f575f5ffd5b5060043610610029575f3560e01c8063ab7baabe1461002d575b5f5ffd5b6100476004803603810190610042919061098b565b61005d565b6040516100549190610a26565b60405180910390f35b60605f821180156100705750610f9f8211155b6100af576040517f08c379a00000000000000000000000000000000000000000000000000000000081526004016100a690610ab6565b60405180910390fd5b5f6103e8836100be9190610b01565b90505f60646103e8856100d19190610b31565b6100db9190610b01565b90505f600a6064866100ed9190610b31565b6100f79190610b01565b90505f600a866101079190610b31565b90506101128461015a565b61011b846101c2565b61012484610448565b61012d846106ce565b6040516020016101409493929190610b9b565b604051602081830303815290604052945050505050919050565b60605f82036101795760405180602001604052805f81525090506101bd565b60605f5f90505b838110156101b757816040516020016101999190610c66565b60405160208183030381529060405291508080600101915050610180565b50809150505b919050565b606060098203610209576040518060400160405280600281526020017f434d0000000000000000000000000000000000000000000000000000000000008152509050610443565b6008820361024e576040518060400160405280600481526020017f44434343000000000000000000000000000000000000000000000000000000008152509050610443565b60078203610293576040518060400160405280600381526020017f44434300000000000000000000000000000000000000000000000000000000008152509050610443565b600682036102d8576040518060400160405280600281526020017f44430000000000000000000000000000000000000000000000000000000000008152509050610443565b6005820361031d576040518060400160405280600181526020017f44000000000000000000000000000000000000000000000000000000000000008152509050610443565b60048203610362576040518060400160405280600281526020017f43440000000000000000000000000000000000000000000000000000000000008152509050610443565b600382036103a7576040518060400160405280600381526020017f43434300000000000000000000000000000000000000000000000000000000008152509050610443565b600282036103ec576040518060400160405280600281526020017f43430000000000000000000000000000000000000000000000000000000000008152509050610443565b60018203610431576040518060400160405280600181526020017f43000000000000000000000000000000000000000000000000000000000000008152509050610443565b60405180602001604052805f81525090505b919050565b60606009820361048f576040518060400160405280600281526020017f584300000000000000000000000000000000000000000000000000000000000081525090506106c9565b600882036104d4576040518060400160405280600481526020017f4c5858580000000000000000000000000000000000000000000000000000000081525090506106c9565b60078203610519576040518060400160405280600381526020017f4c5858000000000000000000000000000000000000000000000000000000000081525090506106c9565b6006820361055e576040518060400160405280600281526020017f4c5800000000000000000000000000000000000000000000000000000000000081525090506106c9565b600582036105a3576040518060400160405280600181526020017f4c0000000000000000000000000000000000000000000000000000000000000081525090506106c9565b600482036105e8576040518060400160405280600281526020017f584c00000000000000000000000000000000000000000000000000000000000081525090506106c9565b6003820361062d576040518060400160405280600381526020017f585858000000000000000000000000000000000000000000000000000000000081525090506106c9565b60028203610672576040518060400160405280600281526020017f585800000000000000000000000000000000000000000000000000000000000081525090506106c9565b600182036106b7576040518060400160405280600181526020017f580000000000000000000000000000000000000000000000000000000000000081525090506106c9565b60405180602001604052805f81525090505b919050565b606060098203610715576040518060400160405280600281526020017f4958000000000000000000000000000000000000000000000000000000000000815250905061094f565b6008820361075a576040518060400160405280600481526020017f5649494900000000000000000000000000000000000000000000000000000000815250905061094f565b6007820361079f576040518060400160405280600381526020017f5649490000000000000000000000000000000000000000000000000000000000815250905061094f565b600682036107e4576040518060400160405280600281526020017f5649000000000000000000000000000000000000000000000000000000000000815250905061094f565b60058203610829576040518060400160405280600181526020017f5600000000000000000000000000000000000000000000000000000000000000815250905061094f565b6004820361086e576040518060400160405280600281526020017f4956000000000000000000000000000000000000000000000000000000000000815250905061094f565b600382036108b3576040518060400160405280600381526020017f4949490000000000000000000000000000000000000000000000000000000000815250905061094f565b600282036108f8576040518060400160405280600281526020017f4949000000000000000000000000000000000000000000000000000000000000815250905061094f565b6001820361093d576040518060400160405280600181526020017f4900000000000000000000000000000000000000000000000000000000000000815250905061094f565b60405180602001604052805f81525090505b919050565b5f5ffd5b5f819050919050565b61096a81610958565b8114610974575f5ffd5b50565b5f8135905061098581610961565b92915050565b5f602082840312156109a05761099f610954565b5b5f6109ad84828501610977565b91505092915050565b5f81519050919050565b5f82825260208201905092915050565b8281835e5f83830152505050565b5f601f19601f8301169050919050565b5f6109f8826109b6565b610a0281856109c0565b9350610a128185602086016109d0565b610a1b816109de565b840191505092915050565b5f6020820190508181035f830152610a3e81846109ee565b905092915050565b7f4e756d626572206d757374206265206265747765656e203120616e64203339395f8201527f3900000000000000000000000000000000000000000000000000000000000000602082015250565b5f610aa06021836109c0565b9150610aab82610a46565b604082019050919050565b5f6020820190508181035f830152610acd81610a94565b9050919050565b7f4e487b71000000000000000000000000000000000000000000000000000000005f52601260045260245ffd5b5f610b0b82610958565b9150610b1683610958565b925082610b2657610b25610ad4565b5b828204905092915050565b5f610b3b82610958565b9150610b4683610958565b925082610b5657610b55610ad4565b5b828206905092915050565b5f81905092915050565b5f610b75826109b6565b610b7f8185610b61565b9350610b8f8185602086016109d0565b80840191505092915050565b5f610ba68287610b6b565b9150610bb28286610b6b565b9150610bbe8285610b6b565b9150610bca8284610b6b565b915081905095945050505050565b5f81519050919050565b5f81905092915050565b5f610bf682610bd8565b610c008185610be2565b9350610c108185602086016109d0565b80840191505092915050565b7f4d000000000000000000000000000000000000000000000000000000000000005f82015250565b5f610c50600183610b61565b9150610c5b82610c1c565b600182019050919050565b5f610c718284610bec565b9150610c7c82610c44565b91508190509291505056fea2646970667358221220a32d321f46c3ca9248437a6528981c8d224208ff35a9789c1f21bdccb2c9248d64736f6c634300081e0033",
			"opcodes": "PUSH1 0x80 PUSH1 0x40 MSTORE CALLVALUE DUP1 ISZERO PUSH1 0xE JUMPI PUSH0 PUSH0 REVERT JUMPDEST POP PUSH2 0xCBD DUP1 PUSH2 0x1C PUSH0 CODECOPY PUSH0 RETURN INVALID PUSH1 0x80 PUSH1 0x40 MSTORE CALLVALUE DUP1 ISZERO PUSH2 0xF JUMPI PUSH0 PUSH0 REVERT JUMPDEST POP PUSH1 0x4 CALLDATASIZE LT PUSH2 0x29 JUMPI PUSH0 CALLDATALOAD PUSH1 0xE0 SHR DUP1 PUSH4 0xAB7BAABE EQ PUSH2 0x2D JUMPI JUMPDEST PUSH0 PUSH0 REVERT JUMPDEST PUSH2 0x47 PUSH1 0x4 DUP1 CALLDATASIZE SUB DUP2 ADD SWAP1 PUSH2 0x42 SWAP2 SWAP1 PUSH2 0x98B JUMP JUMPDEST PUSH2 0x5D JUMP JUMPDEST PUSH1 0x40 MLOAD PUSH2 0x54 SWAP2 SWAP1 PUSH2 0xA26 JUMP JUMPDEST PUSH1 0x40 MLOAD DUP1 SWAP2 SUB SWAP1 RETURN JUMPDEST PUSH1 0x60 PUSH0 DUP3 GT DUP1 ISZERO PUSH2 0x70 JUMPI POP PUSH2 0xF9F DUP3 GT ISZERO JUMPDEST PUSH2 0xAF JUMPI PUSH1 0x40 MLOAD PUSH32 0x8C379A000000000000000000000000000000000000000000000000000000000 DUP2 MSTORE PUSH1 0x4 ADD PUSH2 0xA6 SWAP1 PUSH2 0xAB6 JUMP JUMPDEST PUSH1 0x40 MLOAD DUP1 SWAP2 SUB SWAP1 REVERT JUMPDEST PUSH0 PUSH2 0x3E8 DUP4 PUSH2 0xBE SWAP2 SWAP1 PUSH2 0xB01 JUMP JUMPDEST SWAP1 POP PUSH0 PUSH1 0x64 PUSH2 0x3E8 DUP6 PUSH2 0xD1 SWAP2 SWAP1 PUSH2 0xB31 JUMP JUMPDEST PUSH2 0xDB SWAP2 SWAP1 PUSH2 0xB01 JUMP JUMPDEST SWAP1 POP PUSH0 PUSH1 0xA PUSH1 0x64 DUP7 PUSH2 0xED SWAP2 SWAP1 PUSH2 0xB31 JUMP JUMPDEST PUSH2 0xF7 SWAP2 SWAP1 PUSH2 0xB01 JUMP JUMPDEST SWAP1 POP PUSH0 PUSH1 0xA DUP7 PUSH2 0x107 SWAP2 SWAP1 PUSH2 0xB31 JUMP JUMPDEST SWAP1 POP PUSH2 0x112 DUP5 PUSH2 0x15A JUMP JUMPDEST PUSH2 0x11B DUP5 PUSH2 0x1C2 JUMP JUMPDEST PUSH2 0x124 DUP5 PUSH2 0x448 JUMP JUMPDEST PUSH2 0x12D DUP5 PUSH2 0x6CE JUMP JUMPDEST PUSH1 0x40 MLOAD PUSH1 0x20 ADD PUSH2 0x140 SWAP5 SWAP4 SWAP3 SWAP2 SWAP1 PUSH2 0xB9B JUMP JUMPDEST PUSH1 0x40 MLOAD PUSH1 0x20 DUP2 DUP4 SUB SUB DUP2 MSTORE SWAP1 PUSH1 0x40 MSTORE SWAP5 POP POP POP POP POP SWAP2 SWAP1 POP JUMP JUMPDEST PUSH1 0x60 PUSH0 DUP3 SUB PUSH2 0x179 JUMPI PUSH1 0x40 MLOAD DUP1 PUSH1 0x20 ADD PUSH1 0x40 MSTORE DUP1 PUSH0 DUP2 MSTORE POP SWAP1 POP PUSH2 0x1BD JUMP JUMPDEST PUSH1 0x60 PUSH0 PUSH0 SWAP1 POP JUMPDEST DUP4 DUP2 LT ISZERO PUSH2 0x1B7 JUMPI DUP2 PUSH1 0x40 MLOAD PUSH1 0x20 ADD PUSH2 0x199 SWAP2 SWAP1 PUSH2 0xC66 JUMP JUMPDEST PUSH1 0x40 MLOAD PUSH1 0x20 DUP2 DUP4 SUB SUB DUP2 MSTORE SWAP1 PUSH1 0x40 MSTORE SWAP2 POP DUP1 DUP1 PUSH1 0x1 ADD SWAP2 POP POP PUSH2 0x180 JUMP JUMPDEST POP DUP1 SWAP2 POP POP JUMPDEST SWAP2 SWAP1 POP JUMP JUMPDEST PUSH1 0x60 PUSH1 0x9 DUP3 SUB PUSH2 0x209 JUMPI PUSH1 0x40 MLOAD DUP1 PUSH1 0x40 ADD PUSH1 0x40 MSTORE DUP1 PUSH1 0x2 DUP2 MSTORE PUSH1 0x20 ADD PUSH32 0x434D000000000000000000000000000000000000000000000000000000000000 DUP2 MSTORE POP SWAP1 POP PUSH2 0x443 JUMP JUMPDEST PUSH1 0x8 DUP3 SUB PUSH2 0x24E JUMPI PUSH1 0x40 MLOAD DUP1 PUSH1 0x40 ADD PUSH1 0x40 MSTORE DUP1 PUSH1 0x4 DUP2 MSTORE PUSH1 0x20 ADD PUSH32 0x4443434300000000000000000000000000000000000000000000000000000000 DUP2 MSTORE POP SWAP1 POP PUSH2 0x443 JUMP JUMPDEST PUSH1 0x7 DUP3 SUB PUSH2 0x293 JUMPI PUSH1 0x40 MLOAD DUP1 PUSH1 0x40 ADD PUSH1 0x40 MSTORE DUP1 PUSH1 0x3 DUP2 MSTORE PUSH1 0x20 ADD PUSH32 0x4443430000000000000000000000000000000000000000000000000000000000 DUP2 MSTORE POP SWAP1 POP PUSH2 0x443 JUMP JUMPDEST PUSH1 0x6 DUP3 SUB PUSH2 0x2D8 JUMPI PUSH1 0x40 MLOAD DUP1 PUSH1 0x40 ADD PUSH1 0x40 MSTORE DUP1 PUSH1 0x2 DUP2 MSTORE PUSH1 0x20 ADD PUSH32 0x4443000000000000000000000000000000000000000000000000000000000000 DUP2 MSTORE POP SWAP1 POP PUSH2 0x443 JUMP JUMPDEST PUSH1 0x5 DUP3 SUB PUSH2 0x31D JUMPI PUSH1 0x40 MLOAD DUP1 PUSH1 0x40 ADD PUSH1 0x40 MSTORE DUP1 PUSH1 0x1 DUP2 MSTORE PUSH1 0x20 ADD PUSH32 0x4400000000000000000000000000000000000000000000000000000000000000 DUP2 MSTORE POP SWAP1 POP PUSH2 0x443 JUMP JUMPDEST PUSH1 0x4 DUP3 SUB PUSH2 0x362 JUMPI PUSH1 0x40 MLOAD DUP1 PUSH1 0x40 ADD PUSH1 0x40 MSTORE DUP1 PUSH1 0x2 DUP2 MSTORE PUSH1 0x20 ADD PUSH32 0x4344000000000000000000000000000000000000000000000000000000000000 DUP2 MSTORE POP SWAP1 POP PUSH2 0x443 JUMP JUMPDEST PUSH1 0x3 DUP3 SUB PUSH2 0x3A7 JUMPI PUSH1 0x40 MLOAD DUP1 PUSH1 0x40 ADD PUSH1 0x40 MSTORE DUP1 PUSH1 0x3 DUP2 MSTORE PUSH1 0x20 ADD PUSH32 0x4343430000000000000000000000000000000000000000000000000000000000 DUP2 MSTORE POP SWAP1 POP PUSH2 0x443 JUMP JUMPDEST PUSH1 0x2 DUP3 SUB PUSH2 0x3EC JUMPI PUSH1 0x40 MLOAD DUP1 PUSH1 0x40 ADD PUSH1 0x40 MSTORE DUP1 PUSH1 0x2 DUP2 MSTORE PUSH1 0x20 ADD PUSH32 0x4343000000000000000000000000000000000000000000000000000000000000 DUP2 MSTORE POP SWAP1 POP PUSH2 0x443 JUMP JUMPDEST PUSH1 0x1 DUP3 SUB PUSH2 0x431 JUMPI PUSH1 0x40 MLOAD DUP1 PUSH1 0x40 ADD PUSH1 0x40 MSTORE DUP1 PUSH1 0x1 DUP2 MSTORE PUSH1 0x20 ADD PUSH32 0x4300000000000000000000000000000000000000000000000000000000000000 DUP2 MSTORE POP SWAP1 POP PUSH2 0x443 JUMP JUMPDEST PUSH1 0x40 MLOAD DUP1 PUSH1 0x20 ADD PUSH1 0x40 MSTORE DUP1 PUSH0 DUP2 MSTORE POP SWAP1 POP JUMPDEST SWAP2 SWAP1 POP JUMP JUMPDEST PUSH1 0x60 PUSH1 0x9 DUP3 SUB PUSH2 0x48F JUMPI PUSH1 0x40 MLOAD DUP1 PUSH1 0x40 ADD PUSH1 0x40 MSTORE DUP1 PUSH1 0x2 DUP2 MSTORE PUSH1 0x20 ADD PUSH32 0x5843000000000000000000000000000000000000000000000000000000000000 DUP2 MSTORE POP SWAP1 POP PUSH2 0x6C9 JUMP JUMPDEST PUSH1 0x8 DUP3 SUB PUSH2 0x4D4 JUMPI PUSH1 0x40 MLOAD DUP1 PUSH1 0x40 ADD PUSH1 0x40 MSTORE DUP1 PUSH1 0x4 DUP2 MSTORE PUSH1 0x20 ADD PUSH32 0x4C58585800000000000000000000000000000000000000000000000000000000 DUP2 MSTORE POP SWAP1 POP PUSH2 0x6C9 JUMP JUMPDEST PUSH1 0x7 DUP3 SUB PUSH2 0x519 JUMPI PUSH1 0x40 MLOAD DUP1 PUSH1 0x40 ADD PUSH1 0x40 MSTORE DUP1 PUSH1 0x3 DUP2 MSTORE PUSH1 0x20 ADD PUSH32 0x4C58580000000000000000000000000000000000000000000000000000000000 DUP2 MSTORE POP SWAP1 POP PUSH2 0x6C9 JUMP JUMPDEST PUSH1 0x6 DUP3 SUB PUSH2 0x55E JUMPI PUSH1 0x40 MLOAD DUP1 PUSH1 0x40 ADD PUSH1 0x40 MSTORE DUP1 PUSH1 0x2 DUP2 MSTORE PUSH1 0x20 ADD PUSH32 0x4C58000000000000000000000000000000000000000000000000000000000000 DUP2 MSTORE POP SWAP1 POP PUSH2 0x6C9 JUMP JUMPDEST PUSH1 0x5 DUP3 SUB PUSH2 0x5A3 JUMPI PUSH1 0x40 MLOAD DUP1 PUSH1 0x40 ADD PUSH1 0x40 MSTORE DUP1 PUSH1 0x1 DUP2 MSTORE PUSH1 0x20 ADD PUSH32 0x4C00000000000000000000000000000000000000000000000000000000000000 DUP2 MSTORE POP SWAP1 POP PUSH2 0x6C9 JUMP JUMPDEST PUSH1 0x4 DUP3 SUB PUSH2 0x5E8 JUMPI PUSH1 0x40 MLOAD DUP1 PUSH1 0x40 ADD PUSH1 0x40 MSTORE DUP1 PUSH1 0x2 DUP2 MSTORE PUSH1 0x20 ADD PUSH32 0x584C000000000000000000000000000000000000000000000000000000000000 DUP2 MSTORE POP SWAP1 POP PUSH2 0x6C9 JUMP JUMPDEST PUSH1 0x3 DUP3 SUB PUSH2 0x62D JUMPI PUSH1 0x40 MLOAD DUP1 PUSH1 0x40 ADD PUSH1 0x40 MSTORE DUP1 PUSH1 0x3 DUP2 MSTORE PUSH1 0x20 ADD PUSH32 0x5858580000000000000000000000000000000000000000000000000000000000 DUP2 MSTORE POP SWAP1 POP PUSH2 0x6C9 JUMP JUMPDEST PUSH1 0x2 DUP3 SUB PUSH2 0x672 JUMPI PUSH1 0x40 MLOAD DUP1 PUSH1 0x40 ADD PUSH1 0x40 MSTORE DUP1 PUSH1 0x2 DUP2 MSTORE PUSH1 0x20 ADD PUSH32 0x5858000000000000000000000000000000000000000000000000000000000000 DUP2 MSTORE POP SWAP1 POP PUSH2 0x6C9 JUMP JUMPDEST PUSH1 0x1 DUP3 SUB PUSH2 0x6B7 JUMPI PUSH1 0x40 MLOAD DUP1 PUSH1 0x40 ADD PUSH1 0x40 MSTORE DUP1 PUSH1 0x1 DUP2 MSTORE PUSH1 0x20 ADD PUSH32 0x5800000000000000000000000000000000000000000000000000000000000000 DUP2 MSTORE POP SWAP1 POP PUSH2 0x6C9 JUMP JUMPDEST PUSH1 0x40 MLOAD DUP1 PUSH1 0x20 ADD PUSH1 0x40 MSTORE DUP1 PUSH0 DUP2 MSTORE POP SWAP1 POP JUMPDEST SWAP2 SWAP1 POP JUMP JUMPDEST PUSH1 0x60 PUSH1 0x9 DUP3 SUB PUSH2 0x715 JUMPI PUSH1 0x40 MLOAD DUP1 PUSH1 0x40 ADD PUSH1 0x40 MSTORE DUP1 PUSH1 0x2 DUP2 MSTORE PUSH1 0x20 ADD PUSH32 0x4958000000000000000000000000000000000000000000000000000000000000 DUP2 MSTORE POP SWAP1 POP PUSH2 0x94F JUMP JUMPDEST PUSH1 0x8 DUP3 SUB PUSH2 0x75A JUMPI PUSH1 0x40 MLOAD DUP1 PUSH1 0x40 ADD PUSH1 0x40 MSTORE DUP1 PUSH1 0x4 DUP2 MSTORE PUSH1 0x20 ADD PUSH32 0x5649494900000000000000000000000000000000000000000000000000000000 DUP2 MSTORE POP SWAP1 POP PUSH2 0x94F JUMP JUMPDEST PUSH1 0x7 DUP3 SUB PUSH2 0x79F JUMPI PUSH1 0x40 MLOAD DUP1 PUSH1 0x40 ADD PUSH1 0x40 MSTORE DUP1 PUSH1 0x3 DUP2 MSTORE PUSH1 0x20 ADD PUSH32 0x5649490000000000000000000000000000000000000000000000000000000000 DUP2 MSTORE POP SWAP1 POP PUSH2 0x94F JUMP JUMPDEST PUSH1 0x6 DUP3 SUB PUSH2 0x7E4 JUMPI PUSH1 0x40 MLOAD DUP1 PUSH1 0x40 ADD PUSH1 0x40 MSTORE DUP1 PUSH1 0x2 DUP2 MSTORE PUSH1 0x20 ADD PUSH32 0x5649000000000000000000000000000000000000000000000000000000000000 DUP2 MSTORE POP SWAP1 POP PUSH2 0x94F JUMP JUMPDEST PUSH1 0x5 DUP3 SUB PUSH2 0x829 JUMPI PUSH1 0x40 MLOAD DUP1 PUSH1 0x40 ADD PUSH1 0x40 MSTORE DUP1 PUSH1 0x1 DUP2 MSTORE PUSH1 0x20 ADD PUSH32 0x5600000000000000000000000000000000000000000000000000000000000000 DUP2 MSTORE POP SWAP1 POP PUSH2 0x94F JUMP JUMPDEST PUSH1 0x4 DUP3 SUB PUSH2 0x86E JUMPI PUSH1 0x40 MLOAD DUP1 PUSH1 0x40 ADD PUSH1 0x40 MSTORE DUP1 PUSH1 0x2 DUP2 MSTORE PUSH1 0x20 ADD PUSH32 0x4956000000000000000000000000000000000000000000000000000000000000 DUP2 MSTORE POP SWAP1 POP PUSH2 0x94F JUMP JUMPDEST PUSH1 0x3 DUP3 SUB PUSH2 0x8B3 JUMPI PUSH1 0x40 MLOAD DUP1 PUSH1 0x40 ADD PUSH1 0x40 MSTORE DUP1 PUSH1 0x3 DUP2 MSTORE PUSH1 0x20 ADD PUSH32 0x4949490000000000000000000000000000000000000000000000000000000000 DUP2 MSTORE POP SWAP1 POP PUSH2 0x94F JUMP JUMPDEST PUSH1 0x2 DUP3 SUB PUSH2 0x8F8 JUMPI PUSH1 0x40 MLOAD DUP1 PUSH1 0x40 ADD PUSH1 0x40 MSTORE DUP1 PUSH1 0x2 DUP2 MSTORE PUSH1 0x20 ADD PUSH32 0x4949000000000000000000000000000000000000000000000000000000000000 DUP2 MSTORE POP SWAP1 POP PUSH2 0x94F JUMP JUMPDEST PUSH1 0x1 DUP3 SUB PUSH2 0x93D JUMPI PUSH1 0x40 MLOAD DUP1 PUSH1 0x40 ADD PUSH1 0x40 MSTORE DUP1 PUSH1 0x1 DUP2 MSTORE PUSH1 0x20 ADD PUSH32 0x4900000000000000000000000000000000000000000000000000000000000000 DUP2 MSTORE POP SWAP1 POP PUSH2 0x94F JUMP JUMPDEST PUSH1 0x40 MLOAD DUP1 PUSH1 0x20 ADD PUSH1 0x40 MSTORE DUP1 PUSH0 DUP2 MSTORE POP SWAP1 POP JUMPDEST SWAP2 SWAP1 POP JUMP JUMPDEST PUSH0 PUSH0 REVERT JUMPDEST PUSH0 DUP2 SWAP1 POP SWAP2 SWAP1 POP JUMP JUMPDEST PUSH2 0x96A DUP2 PUSH2 0x958 JUMP JUMPDEST DUP2 EQ PUSH2 0x974 JUMPI PUSH0 PUSH0 REVERT JUMPDEST POP JUMP JUMPDEST PUSH0 DUP2 CALLDATALOAD SWAP1 POP PUSH2 0x985 DUP2 PUSH2 0x961 JUMP JUMPDEST SWAP3 SWAP2 POP POP JUMP JUMPDEST PUSH0 PUSH1 0x20 DUP3 DUP5 SUB SLT ISZERO PUSH2 0x9A0 JUMPI PUSH2 0x99F PUSH2 0x954 JUMP JUMPDEST JUMPDEST PUSH0 PUSH2 0x9AD DUP5 DUP3 DUP6 ADD PUSH2 0x977 JUMP JUMPDEST SWAP2 POP POP SWAP3 SWAP2 POP POP JUMP JUMPDEST PUSH0 DUP2 MLOAD SWAP1 POP SWAP2 SWAP1 POP JUMP JUMPDEST PUSH0 DUP3 DUP3 MSTORE PUSH1 0x20 DUP3 ADD SWAP1 POP SWAP3 SWAP2 POP POP JUMP JUMPDEST DUP3 DUP2 DUP4 MCOPY PUSH0 DUP4 DUP4 ADD MSTORE POP POP POP JUMP JUMPDEST PUSH0 PUSH1 0x1F NOT PUSH1 0x1F DUP4 ADD AND SWAP1 POP SWAP2 SWAP1 POP JUMP JUMPDEST PUSH0 PUSH2 0x9F8 DUP3 PUSH2 0x9B6 JUMP JUMPDEST PUSH2 0xA02 DUP2 DUP6 PUSH2 0x9C0 JUMP JUMPDEST SWAP4 POP PUSH2 0xA12 DUP2 DUP6 PUSH1 0x20 DUP7 ADD PUSH2 0x9D0 JUMP JUMPDEST PUSH2 0xA1B DUP2 PUSH2 0x9DE JUMP JUMPDEST DUP5 ADD SWAP2 POP POP SWAP3 SWAP2 POP POP JUMP JUMPDEST PUSH0 PUSH1 0x20 DUP3 ADD SWAP1 POP DUP2 DUP2 SUB PUSH0 DUP4 ADD MSTORE PUSH2 0xA3E DUP2 DUP5 PUSH2 0x9EE JUMP JUMPDEST SWAP1 POP SWAP3 SWAP2 POP POP JUMP JUMPDEST PUSH32 0x4E756D626572206D757374206265206265747765656E203120616E6420333939 PUSH0 DUP3 ADD MSTORE PUSH32 0x3900000000000000000000000000000000000000000000000000000000000000 PUSH1 0x20 DUP3 ADD MSTORE POP JUMP JUMPDEST PUSH0 PUSH2 0xAA0 PUSH1 0x21 DUP4 PUSH2 0x9C0 JUMP JUMPDEST SWAP2 POP PUSH2 0xAAB DUP3 PUSH2 0xA46 JUMP JUMPDEST PUSH1 0x40 DUP3 ADD SWAP1 POP SWAP2 SWAP1 POP JUMP JUMPDEST PUSH0 PUSH1 0x20 DUP3 ADD SWAP1 POP DUP2 DUP2 SUB PUSH0 DUP4 ADD MSTORE PUSH2 0xACD DUP2 PUSH2 0xA94 JUMP JUMPDEST SWAP1 POP SWAP2 SWAP1 POP JUMP JUMPDEST PUSH32 0x4E487B7100000000000000000000000000000000000000000000000000000000 PUSH0 MSTORE PUSH1 0x12 PUSH1 0x4 MSTORE PUSH1 0x24 PUSH0 REVERT JUMPDEST PUSH0 PUSH2 0xB0B DUP3 PUSH2 0x958 JUMP JUMPDEST SWAP2 POP PUSH2 0xB16 DUP4 PUSH2 0x958 JUMP JUMPDEST SWAP3 POP DUP3 PUSH2 0xB26 JUMPI PUSH2 0xB25 PUSH2 0xAD4 JUMP JUMPDEST JUMPDEST DUP3 DUP3 DIV SWAP1 POP SWAP3 SWAP2 POP POP JUMP JUMPDEST PUSH0 PUSH2 0xB3B DUP3 PUSH2 0x958 JUMP JUMPDEST SWAP2 POP PUSH2 0xB46 DUP4 PUSH2 0x958 JUMP JUMPDEST SWAP3 POP DUP3 PUSH2 0xB56 JUMPI PUSH2 0xB55 PUSH2 0xAD4 JUMP JUMPDEST JUMPDEST DUP3 DUP3 MOD SWAP1 POP SWAP3 SWAP2 POP POP JUMP JUMPDEST PUSH0 DUP2 SWAP1 POP SWAP3 SWAP2 POP POP JUMP JUMPDEST PUSH0 PUSH2 0xB75 DUP3 PUSH2 0x9B6 JUMP JUMPDEST PUSH2 0xB7F DUP2 DUP6 PUSH2 0xB61 JUMP JUMPDEST SWAP4 POP PUSH2 0xB8F DUP2 DUP6 PUSH1 0x20 DUP7 ADD PUSH2 0x9D0 JUMP JUMPDEST DUP1 DUP5 ADD SWAP2 POP POP SWAP3 SWAP2 POP POP JUMP JUMPDEST PUSH0 PUSH2 0xBA6 DUP3 DUP8 PUSH2 0xB6B JUMP JUMPDEST SWAP2 POP PUSH2 0xBB2 DUP3 DUP7 PUSH2 0xB6B JUMP JUMPDEST SWAP2 POP PUSH2 0xBBE DUP3 DUP6 PUSH2 0xB6B JUMP JUMPDEST SWAP2 POP PUSH2 0xBCA DUP3 DUP5 PUSH2 0xB6B JUMP JUMPDEST SWAP2 POP DUP2 SWAP1 POP SWAP6 SWAP5 POP POP POP POP POP JUMP JUMPDEST PUSH0 DUP2 MLOAD SWAP1 POP SWAP2 SWAP1 POP JUMP JUMPDEST PUSH0 DUP2 SWAP1 POP SWAP3 SWAP2 POP POP JUMP JUMPDEST PUSH0 PUSH2 0xBF6 DUP3 PUSH2 0xBD8 JUMP JUMPDEST PUSH2 0xC00 DUP2 DUP6 PUSH2 0xBE2 JUMP JUMPDEST SWAP4 POP PUSH2 0xC10 DUP2 DUP6 PUSH1 0x20 DUP7 ADD PUSH2 0x9D0 JUMP JUMPDEST DUP1 DUP5 ADD SWAP2 POP POP SWAP3 SWAP2 POP POP JUMP JUMPDEST PUSH32 0x4D00000000000000000000000000000000000000000000000000000000000000 PUSH0 DUP3 ADD MSTORE POP JUMP JUMPDEST PUSH0 PUSH2 0xC50 PUSH1 0x1 DUP4 PUSH2 0xB61 JUMP JUMPDEST SWAP2 POP PUSH2 0xC5B DUP3 PUSH2 0xC1C JUMP JUMPDEST PUSH1 0x1 DUP3 ADD SWAP1 POP SWAP2 SWAP1 POP JUMP JUMPDEST PUSH0 PUSH2 0xC71 DUP3 DUP5 PUSH2 0xBEC JUMP JUMPDEST SWAP2 POP PUSH2 0xC7C DUP3 PUSH2 0xC44 JUMP JUMPDEST SWAP2 POP DUP2 SWAP1 POP SWAP3 SWAP2 POP POP JUMP INVALID LOG2 PUSH5 0x6970667358 0x22 SLT KECCAK256 LOG3 0x2D ORIGIN 0x1F CHAINID 0xC3 0xCA SWAP3 BASEFEE NUMBER PUSH27 0x6528981C8D224208FF35A9789C1F21BDCCB2C9248D64736F6C6343 STOP ADDMOD 0x1E STOP CALLER "
		},
		"gasEstimates": {
			"creation": {
				"codeDepositCost": "652200",
				"executionCost": "681",
				"totalCost": "652881"
			},
			"external": {
				"toRoman(uint256)": "infinite"
			},
			"internal": {
				"_convertHundreds(uint256)": "infinite",
				"_convertOnes(uint256)": "infinite",
				"_convertTens(uint256)": "infinite",
				"_convertThousands(uint256)": "infinite"
			}
		},
		"methodIdentifiers": {
			"toRoman(uint256)": "ab7baabe"
		}
	},
	"abi": [
		{
			"inputs": [
				{
					"internalType": "uint256",
					"name": "number",
					"type": "uint256"
				}
			],
			"name": "toRoman",
			"outputs": [
				{
					"internalType": "string",
					"name": "",
					"type": "string"
				}
			],
			"stateMutability": "pure",
			"type": "function"
		}
	]
}